{
  "transactions": [
    {
      "hash": "0xe67594c13ebcd59077f20bb4c9b2eb943bd72996646503bbd9899593fe9c0226",
      "transactionType": "CALL",
      "contractName": null,
      "contractAddress": "0xc6fd57c740bb98f870a9992cf438514b21082682",
      "function": "transferOwnership(address)",
      "arguments": [
        "0xe26dA5cBf101bDA4028E2B3208c32424f5D09421"
      ],
      "transaction": {
        "from": "0x388e360edaac94372df1a2663ffe52671bbd8b58",
        "to": "0xc6fd57c740bb98f870a9992cf438514b21082682",
        "gas": "0x9a1d",
        "value": "0x0",
        "input": "0xf2fde38b000000000000000000000000e26da5cbf101bda4028e2b3208c32424f5d09421",
        "nonce": "0x5d",
        "chainId": "0x3e7"
      },
      "additionalContracts": [],
      "isFixedGasLimit": false
    }
  ],
  "receipts": [
    {
      "status": "0x1",
      "cumulativeGasUsed": "0x38bdd",
      "logs": [
        {
          "address": "0xc6fd57c740bb98f870a9992cf438514b21082682",
          "topics": [
            "0x8be0079c531659141344cd1fd0a4f28419497f9722a3daafe3b4186f6b6457e0",
            "0x000000000000000000000000388e360edaac94372df1a2663ffe52671bbd8b58",
            "0x000000000000000000000000e26da5cbf101bda4028e2b3208c32424f5d09421"
          ],
          "data": "0x",
          "blockHash": "0x3cf1160b4d1bab9c40d31b57b914fcacf5789496c00eba262de0a2f72bebe514",
          "blockNumber": "0x1843d0",
          "blockTimestamp": "0x67e2f948",
          "transactionHash": "0xe67594c13ebcd59077f20bb4c9b2eb943bd72996646503bbd9899593fe9c0226",
          "transactionIndex": "0x1",
          "logIndex": "0x4",
          "removed": false
        }
      ],
      "logsBloom": "0x00000200000000000008000000000000000000000000000000800000000000000000000000000000000000100000000000000000004000000000000000000000000000000000000000000000000000000001000000000000000000000000000200000000000000000000000000100000000000000000000000000000000000400000000000000000000000000000000000000000000000000000000000000000000000000000000000000800000000000000000000000000008000000000000000000000000000000000000000000000000000000000000000000000000000000000000000000004000000000000000000000000000000000000000000000000",
      "type": "0x2",
      "transactionHash": "0xe67594c13ebcd59077f20bb4c9b2eb943bd72996646503bbd9899593fe9c0226",
      "transactionIndex": "0x1",
      "blockHash": "0x3cf1160b4d1bab9c40d31b57b914fcacf5789496c00eba262de0a2f72bebe514",
      "blockNumber": "0x1843d0",
      "gasUsed": "0x6f94",
      "effectiveGasPrice": "0x5f5e101",
      "from": "0x388e360edaac94372df1a2663ffe52671bbd8b58",
      "to": "0xc6fd57c740bb98f870a9992cf438514b21082682",
      "contractAddress": null
    }
  ],
  "libraries": [],
  "pending": [],
  "returns": {},
  "timestamp": 1742928200,
  "chain": 999,
  "commit": "a3d86bb"
}