{
  "transactions": [
    {
      "hash": "0xc518b51f8b14f0ee016025e6b957118261bfffca4d526ad260cfc52d89fa0c25",
      "transactionType": "CALL",
      "contractName": null,
      "contractAddress": "0xd5a3000de5dbe273c141e31c58a4241d77623140",
      "function": "transferOwnership(address)",
      "arguments": [
        "0xe26dA5cBf101bDA4028E2B3208c32424f5D09421"
      ],
      "transaction": {
        "from": "0x388e360edaac94372df1a2663ffe52671bbd8b58",
        "to": "0xd5a3000de5dbe273c141e31c58a4241d77623140",
        "gas": "0x9a1d",
        "value": "0x0",
        "input": "0xf2fde38b000000000000000000000000e26da5cbf101bda4028e2b3208c32424f5d09421",
        "nonce": "0x86",
        "chainId": "0x3e7"
      },
      "additionalContracts": [],
      "isFixedGasLimit": false
    }
  ],
  "receipts": [
    {
      "status": "0x1",
      "cumulativeGasUsed": "0x6f94",
      "logs": [
        {
          "address": "0xd5a3000de5dbe273c141e31c58a4241d77623140",
          "topics": [
            "0x8be0079c531659141344cd1fd0a4f28419497f9722a3daafe3b4186f6b6457e0",
            "0x000000000000000000000000388e360edaac94372df1a2663ffe52671bbd8b58",
            "0x000000000000000000000000e26da5cbf101bda4028e2b3208c32424f5d09421"
          ],
          "data": "0x",
          "blockHash": "0x4929d1648a428b0e3c0e7f3b4818d438efca6af45892324a0403f78312a676fd",
          "blockNumber": "0x1c35e5",
          "blockTimestamp": "0x67ea9d10",
          "transactionHash": "0xc518b51f8b14f0ee016025e6b957118261bfffca4d526ad260cfc52d89fa0c25",
          "transactionIndex": "0x0",
          "logIndex": "0x0",
          "removed": false
        }
      ],
      "logsBloom": "0x00000000000000000002000000000000000000000000000000800000000000000000000000000000010000100000000000000000004000000000000000000000000000000000000000000000000000000001000000000000000000000000000200000000000000000000000000100000000000000000000000000000000000400000000000000000000000000000000000000000008000000000000000000000000000000000000000000000000000000000000000000000008000000000000000000000000000000000000000000000000000000000000000000000000000000000000000000004000000000000000000000000000000000000000000000000",
      "type": "0x2",
      "transactionHash": "0xc518b51f8b14f0ee016025e6b957118261bfffca4d526ad260cfc52d89fa0c25",
      "transactionIndex": "0x0",
      "blockHash": "0x4929d1648a428b0e3c0e7f3b4818d438efca6af45892324a0403f78312a676fd",
      "blockNumber": "0x1c35e5",
      "gasUsed": "0x6f94",
      "effectiveGasPrice": "0x77ff3f6",
      "from": "0x388e360edaac94372df1a2663ffe52671bbd8b58",
      "to": "0xd5a3000de5dbe273c141e31c58a4241d77623140",
      "contractAddress": null
    }
  ],
  "libraries": [],
  "pending": [],
  "returns": {},
  "timestamp": 1743428881,
  "chain": 999,
  "commit": "ab206aa"
}