{
  "transactions": [
    {
      "hash": "0x80f4111cb3a7d402469e8350e302653420e5c6d728b7c080c1ff38f97e46dad4",
      "transactionType": "CALL",
      "contractName": null,
      "contractAddress": "0xeec0458c9cc27f0411d95473f4cbc39b9762dc0e",
      "function": "setSTEX(address)",
      "arguments": [
        "0x2053Ede7213b31B69839f10378F468845B000143"
      ],
      "transaction": {
        "from": "0x388e360edaac94372df1a2663ffe52671bbd8b58",
        "to": "0xeec0458c9cc27f0411d95473f4cbc39b9762dc0e",
        "gas": "0x19fae",
        "value": "0x0",
        "input": "0xe66bdfef0000000000000000000000002053ede7213b31b69839f10378f468845b000143",
        "nonce": "0x7e",
        "chainId": "0x3e7"
      },
      "additionalContracts": [],
      "isFixedGasLimit": false
    }
  ],
  "receipts": [
    {
      "status": "0x1",
      "cumulativeGasUsed": "0x408be",
      "logs": [
        {
          "address": "0xeec0458c9cc27f0411d95473f4cbc39b9762dc0e",
          "topics": [
            "0x1800999767e413aff1424b2ef4640c197542e07fa0ae4fb1b3392750e49e3248"
          ],
          "data": "0x0000000000000000000000002053ede7213b31b69839f10378f468845b000143",
          "blockHash": "0x558f1de153ccfbddc83fe3fbe2cd74dcab668e5d2c695b269a44aade910b695e",
          "blockNumber": "0x1c3243",
          "blockTimestamp": "0x67ea9608",
          "transactionHash": "0x80f4111cb3a7d402469e8350e302653420e5c6d728b7c080c1ff38f97e46dad4",
          "transactionIndex": "0x2",
          "logIndex": "0x7",
          "removed": false
        }
      ],
      "logsBloom": "0x00000000000000000000000000000000000000000000000000000000000000200000000000000000000000000000000000000000000000000000000000000000000000010000000000000000000000000000000000000000000000000000000000000000000000000000000000000000000000008000000000000000000000000000000000080000000000000000000000000000000000000000200000000000000000000000000000000000000000000000000000000000000000000000000000000000000000000000000000000000000000000000200000000000000000000000000000000000000000000000000000000000000000000000000000000000",
      "type": "0x2",
      "transactionHash": "0x80f4111cb3a7d402469e8350e302653420e5c6d728b7c080c1ff38f97e46dad4",
      "transactionIndex": "0x2",
      "blockHash": "0x558f1de153ccfbddc83fe3fbe2cd74dcab668e5d2c695b269a44aade910b695e",
      "blockNumber": "0x1c3243",
      "gasUsed": "0x11c3a",
      "effectiveGasPrice": "0x5f5e101",
      "from": "0x388e360edaac94372df1a2663ffe52671bbd8b58",
      "to": "0xeec0458c9cc27f0411d95473f4cbc39b9762dc0e",
      "contractAddress": null
    }
  ],
  "libraries": [],
  "pending": [],
  "returns": {},
  "timestamp": 1743427081,
  "chain": 999,
  "commit": "ab206aa"
}