{
  "transactions": [
    {
      "hash": "0x4c31e44e0efdac4b4845310e7e449630cc3b70eba13266382b03ee562013f35c",
      "transactionType": "CALL",
      "contractName": null,
      "contractAddress": "0x69317cecf77fb5dc68abe5c7aafb283de46956d9",
      "function": "transferOwnership(address)",
      "arguments": [
        "0xe26dA5cBf101bDA4028E2B3208c32424f5D09421"
      ],
      "transaction": {
        "from": "0x388e360edaac94372df1a2663ffe52671bbd8b58",
        "to": "0x69317cecf77fb5dc68abe5c7aafb283de46956d9",
        "gas": "0x9a14",
        "value": "0x0",
        "input": "0xf2fde38b000000000000000000000000e26da5cbf101bda4028e2b3208c32424f5d09421",
        "nonce": "0xc1",
        "chainId": "0x3e7"
      },
      "additionalContracts": [],
      "isFixedGasLimit": false
    }
  ],
  "receipts": [
    {
      "status": "0x1",
      "cumulativeGasUsed": "0x6f8e",
      "logs": [
        {
          "address": "0x69317cecf77fb5dc68abe5c7aafb283de46956d9",
          "topics": [
            "0x8be0079c531659141344cd1fd0a4f28419497f9722a3daafe3b4186f6b6457e0",
            "0x000000000000000000000000388e360edaac94372df1a2663ffe52671bbd8b58",
            "0x000000000000000000000000e26da5cbf101bda4028e2b3208c32424f5d09421"
          ],
          "data": "0x",
          "blockHash": "0x9791870d88125dd72a7b38f23381e18307453a06ce3fc3490d210f7a72db6c87",
          "blockNumber": "0x1d9302",
          "blockTimestamp": "0x67ed40c4",
          "transactionHash": "0x4c31e44e0efdac4b4845310e7e449630cc3b70eba13266382b03ee562013f35c",
          "transactionIndex": "0x0",
          "logIndex": "0x0",
          "removed": false
        }
      ],
      "logsBloom": "0x00000000000000000000000000000000000000000000000000800000000000000000000000000000000000100000000000000000004000000100000000000000000000000000000000000000000000000001000000000000000000000000000200000000000000000000000000100000000000000000000000000000000000400000000000000000000000000000000001000000000000000000000000000000000000000000000000000000000000000000000000000000008000000000000000000000000000000000000000000000000000000800000000000000000000000000000000000004000000000000000000000000000000000000000000000000",
      "type": "0x2",
      "transactionHash": "0x4c31e44e0efdac4b4845310e7e449630cc3b70eba13266382b03ee562013f35c",
      "transactionIndex": "0x0",
      "blockHash": "0x9791870d88125dd72a7b38f23381e18307453a06ce3fc3490d210f7a72db6c87",
      "blockNumber": "0x1d9302",
      "gasUsed": "0x6f8e",
      "effectiveGasPrice": "0x60b428f",
      "from": "0x388e360edaac94372df1a2663ffe52671bbd8b58",
      "to": "0x69317cecf77fb5dc68abe5c7aafb283de46956d9",
      "contractAddress": null
    }
  ],
  "libraries": [],
  "pending": [],
  "returns": {},
  "timestamp": 1743601861,
  "chain": 999,
  "commit": "0f08994"
}