{
  "transactions": [
    {
      "hash": "0xb33c167eb7c0c6551a7e7d81c697d2f61777cc50780dc2d7e40ae2dbbc93da82",
      "transactionType": "CALL",
      "contractName": null,
      "contractAddress": "0x1da0ea7f6464d715b0da6922aeb45c382cc8ab15",
      "function": "setSTEX(address)",
      "arguments": [
        "0xE20725BEa0aF2b125Fe21882385275cDbfA94298"
      ],
      "transaction": {
        "from": "0x388e360edaac94372df1a2663ffe52671bbd8b58",
        "to": "0x1da0ea7f6464d715b0da6922aeb45c382cc8ab15",
        "gas": "0x18888",
        "value": "0x0",
        "input": "0xe66bdfef000000000000000000000000e20725bea0af2b125fe21882385275cdbfa94298",
        "nonce": "0x8f",
        "chainId": "0x3e7"
      },
      "additionalContracts": [],
      "isFixedGasLimit": false
    }
  ],
  "receipts": [
    {
      "status": "0x1",
      "cumulativeGasUsed": "0xc524a",
      "logs": [
        {
          "address": "0x1da0ea7f6464d715b0da6922aeb45c382cc8ab15",
          "topics": [
            "0x1800999767e413aff1424b2ef4640c197542e07fa0ae4fb1b3392750e49e3248"
          ],
          "data": "0x000000000000000000000000e20725bea0af2b125fe21882385275cdbfa94298",
          "blockHash": "0x7303e10c941c0f3ed7e90d638b91f4670dd75a1dc50cc7693fbe50048ad586ea",
          "blockNumber": "0x1c4166",
          "blockTimestamp": "0x67eab354",
          "transactionHash": "0xb33c167eb7c0c6551a7e7d81c697d2f61777cc50780dc2d7e40ae2dbbc93da82",
          "transactionIndex": "0x2",
          "logIndex": "0x2",
          "removed": false
        }
      ],
      "logsBloom": "0x00000000000000000000000000000000000000000000000000000000000000000000000000000000000000000000000000000000000000000000000000000000000000000000001000000000000000000000000000000000000000000000000000000000000000000000000000000000000000000000000000000000000000000000000000080000000000000000000000000000000000000000200000000000000000000000000000000000000000000000000004000000000000000000000000000000000000000000000000000000000000000000201000000000000000000000000000000000000000000000000000000000000000000000000000000000",
      "type": "0x2",
      "transactionHash": "0xb33c167eb7c0c6551a7e7d81c697d2f61777cc50780dc2d7e40ae2dbbc93da82",
      "transactionIndex": "0x2",
      "blockHash": "0x7303e10c941c0f3ed7e90d638b91f4670dd75a1dc50cc7693fbe50048ad586ea",
      "blockNumber": "0x1c4166",
      "gasUsed": "0x11c30",
      "effectiveGasPrice": "0x5f5e101",
      "from": "0x388e360edaac94372df1a2663ffe52671bbd8b58",
      "to": "0x1da0ea7f6464d715b0da6922aeb45c382cc8ab15",
      "contractAddress": null
    }
  ],
  "libraries": [],
  "pending": [],
  "returns": {},
  "timestamp": 1743434580,
  "chain": 999,
  "commit": "25575b2"
}