{
  "transactions": [
    {
      "hash": "0x42f60a4e508de1a5310e9a413a1acc91df5815458f3ab2aa06ab8a7afd07ee4f",
      "transactionType": "CALL",
      "contractName": null,
      "contractAddress": "0xe20725bea0af2b125fe21882385275cdbfa94298",
      "function": "transferOwnership(address)",
      "arguments": [
        "0xe26dA5cBf101bDA4028E2B3208c32424f5D09421"
      ],
      "transaction": {
        "from": "0x388e360edaac94372df1a2663ffe52671bbd8b58",
        "to": "0xe20725bea0af2b125fe21882385275cdbfa94298",
        "gas": "0x9a56",
        "value": "0x0",
        "input": "0xf2fde38b000000000000000000000000e26da5cbf101bda4028e2b3208c32424f5d09421",
        "nonce": "0x95",
        "chainId": "0x3e7"
      },
      "additionalContracts": [],
      "isFixedGasLimit": false
    }
  ],
  "receipts": [
    {
      "status": "0x1",
      "cumulativeGasUsed": "0x49c0b",
      "logs": [
        {
          "address": "0xe20725bea0af2b125fe21882385275cdbfa94298",
          "topics": [
            "0x8be0079c531659141344cd1fd0a4f28419497f9722a3daafe3b4186f6b6457e0",
            "0x000000000000000000000000388e360edaac94372df1a2663ffe52671bbd8b58",
            "0x000000000000000000000000e26da5cbf101bda4028e2b3208c32424f5d09421"
          ],
          "data": "0x",
          "blockHash": "0x3b865dfe7bc5e11299b722f7c82d26d193156fa5cdfc1dd46246dbdf5b9f4791",
          "blockNumber": "0x1c4656",
          "blockTimestamp": "0x67eabce4",
          "transactionHash": "0x42f60a4e508de1a5310e9a413a1acc91df5815458f3ab2aa06ab8a7afd07ee4f",
          "transactionIndex": "0x1",
          "logIndex": "0x1",
          "removed": false
        }
      ],
      "logsBloom": "0x00000000000000000000000000000000000000000000000000800000000000000000000000000000000000100000000000000000004000000000000000000000000000000000000000000000000000000001000000000000000000000000000200000000000000000000000000100000000000000000000000000000000000400000000000000000000000000000000000020000000000000004000000000000000000000000000000000000000000000000000000000000008000000000000000000000000000000000002000000000000000000000000000000000000000000000000000000004000000000000000000000000000000000000000000000000",
      "type": "0x2",
      "transactionHash": "0x42f60a4e508de1a5310e9a413a1acc91df5815458f3ab2aa06ab8a7afd07ee4f",
      "transactionIndex": "0x1",
      "blockHash": "0x3b865dfe7bc5e11299b722f7c82d26d193156fa5cdfc1dd46246dbdf5b9f4791",
      "blockNumber": "0x1c4656",
      "gasUsed": "0x6fbe",
      "effectiveGasPrice": "0x5f5e101",
      "from": "0x388e360edaac94372df1a2663ffe52671bbd8b58",
      "to": "0xe20725bea0af2b125fe21882385275cdbfa94298",
      "contractAddress": null
    }
  ],
  "libraries": [],
  "pending": [],
  "returns": {},
  "timestamp": 1743437029,
  "chain": 999,
  "commit": "25575b2"
}