{
  "transactions": [
    {
      "hash": "0x94d1dda2c1b0d5279c419d1273161d5bc0a3736901d3b2ec682624c245355188",
      "transactionType": "CALL",
      "contractName": null,
      "contractAddress": "0xcefb205ef3fa5398b02e8163f099ed274743ca0a",
      "function": "setSwapFeeParams(uint32,uint32,uint32,uint32)",
      "arguments": [
        "3000",
        "7000",
        "1",
        "40"
      ],
      "transaction": {
        "from": "0x388e360edaac94372df1a2663ffe52671bbd8b58",
        "to": "0xcefb205ef3fa5398b02e8163f099ed274743ca0a",
        "gas": "0x107d8",
        "value": "0x0",
        "input": "0x3a19db240000000000000000000000000000000000000000000000000000000000000bb80000000000000000000000000000000000000000000000000000000000001b5800000000000000000000000000000000000000000000000000000000000000010000000000000000000000000000000000000000000000000000000000000028",
        "nonce": "0x46",
        "chainId": "0x3e7"
      },
      "additionalContracts": [],
      "isFixedGasLimit": false
    }
  ],
  "receipts": [
    {
      "status": "0x1",
      "cumulativeGasUsed": "0x155b3",
      "logs": [
        {
          "address": "0xcefb205ef3fa5398b02e8163f099ed274743ca0a",
          "topics": [
            "0xde009035ce9bf03c8f59c64dca704ee738ebc761db15bf9bc3a2f6f82ad6fe3e"
          ],
          "data": "0x0000000000000000000000000000000000000000000000000000000000000bb80000000000000000000000000000000000000000000000000000000000001b5800000000000000000000000000000000000000000000000000000000000000010000000000000000000000000000000000000000000000000000000000000028",
          "blockHash": "0x0279ae5d1c85ba89480257a71984985b36a6175773c7a3491605b942c814fe0a",
          "blockNumber": "0x179794",
          "blockTimestamp": "0x67e1abec",
          "transactionHash": "0x94d1dda2c1b0d5279c419d1273161d5bc0a3736901d3b2ec682624c245355188",
          "transactionIndex": "0x1",
          "logIndex": "0x1",
          "removed": false
        }
      ],
      "logsBloom": "0x00000000000000000000000000000000000000000000000000000000000000000000000000000000000000000000000000000000000000000000000000000000000000000000000000000000000000000000000000000000000000000000000000000000008000000000000000000000000000000000000000000000000000000000000000002000000000000000000000000000000000000000000000000000000000000000000000000000000000000000000000000000000000000000000400000000000000000000000000000000000000000000000000000000000000000000000000000000000000800002100000000000000000000000000000000000",
      "type": "0x2",
      "transactionHash": "0x94d1dda2c1b0d5279c419d1273161d5bc0a3736901d3b2ec682624c245355188",
      "transactionIndex": "0x1",
      "blockHash": "0x0279ae5d1c85ba89480257a71984985b36a6175773c7a3491605b942c814fe0a",
      "blockNumber": "0x179794",
      "gasUsed": "0xbf05",
      "effectiveGasPrice": "0x5f5e101",
      "from": "0x388e360edaac94372df1a2663ffe52671bbd8b58",
      "to": "0xcefb205ef3fa5398b02e8163f099ed274743ca0a",
      "contractAddress": null
    }
  ],
  "libraries": [],
  "pending": [],
  "returns": {},
  "timestamp": 1742842860,
  "chain": 999,
  "commit": "a3d86bb"
}