{
  "transactions": [
    {
      "hash": "0x7fc0ecbb1e23940263e0c379dcac2596907cedaff4e68fafbce20bf793a1072c",
      "transactionType": "CALL",
      "contractName": null,
      "contractAddress": "0x18cdf91af34e44d4b4cf5e86b31b42bd86569418",
      "function": "transferOwnership(address)",
      "arguments": [
        "0xe26dA5cBf101bDA4028E2B3208c32424f5D09421"
      ],
      "transaction": {
        "from": "0x388e360edaac94372df1a2663ffe52671bbd8b58",
        "to": "0x18cdf91af34e44d4b4cf5e86b31b42bd86569418",
        "gas": "0x9a14",
        "value": "0x0",
        "input": "0xf2fde38b000000000000000000000000e26da5cbf101bda4028e2b3208c32424f5d09421",
        "nonce": "0x102",
        "chainId": "0x3e7"
      },
      "additionalContracts": [],
      "isFixedGasLimit": false
    }
  ],
  "receipts": [
    {
      "status": "0x1",
      "cumulativeGasUsed": "0x401fe",
      "logs": [
        {
          "address": "0x18cdf91af34e44d4b4cf5e86b31b42bd86569418",
          "topics": [
            "0x8be0079c531659141344cd1fd0a4f28419497f9722a3daafe3b4186f6b6457e0",
            "0x000000000000000000000000388e360edaac94372df1a2663ffe52671bbd8b58",
            "0x000000000000000000000000e26da5cbf101bda4028e2b3208c32424f5d09421"
          ],
          "data": "0x",
          "blockHash": "0x8bfdf723a2caf3958994df866de0177fc6d19bbf0d7627311b263cadf9ce0bc7",
          "blockNumber": "0x2b0d55",
          "blockTimestamp": "0x68075820",
          "transactionHash": "0x7fc0ecbb1e23940263e0c379dcac2596907cedaff4e68fafbce20bf793a1072c",
          "transactionIndex": "0x2",
          "logIndex": "0x6",
          "removed": false
        }
      ],
      "logsBloom": "0x00000000000000000000000000000000000000000000000000800000000000000000000000000000000000100000000000000000004000000000000000000000000000000000000000000000000000000001000000000000000000000000000200002000000000000000000400100000000000000000000000000000000000400000000000000000000000000000000000000000000000000000000000000000000000000000000000000000000000000000000000000000008000000000000000000000000000000000000080000000000000000000000000000000000000000000000000000004000000000000000000000000000000000000000000000000",
      "type": "0x2",
      "transactionHash": "0x7fc0ecbb1e23940263e0c379dcac2596907cedaff4e68fafbce20bf793a1072c",
      "transactionIndex": "0x2",
      "blockHash": "0x8bfdf723a2caf3958994df866de0177fc6d19bbf0d7627311b263cadf9ce0bc7",
      "blockNumber": "0x2b0d55",
      "gasUsed": "0x6f8e",
      "effectiveGasPrice": "0x3a06a5a7c",
      "from": "0x388e360edaac94372df1a2663ffe52671bbd8b58",
      "to": "0x18cdf91af34e44d4b4cf5e86b31b42bd86569418",
      "contractAddress": null
    }
  ],
  "libraries": [],
  "pending": [],
  "returns": {},
  "timestamp": 1745311777,
  "chain": 999,
  "commit": "bf56312"
}