{
  "transactions": [
    {
      "hash": "0x28ddbb95d412a299b1a5438a6eb1a2093eb3e30ad6737f6436f9189a84d4938d",
      "transactionType": "CALL",
      "contractName": null,
      "contractAddress": "0xa0a81b8583c808ce868c5052a6339dab25814c34",
      "function": "setKeeper(address)",
      "arguments": [
        "0x6Fa0b094b71EF7fcA715177242682bdf1954e2e8"
      ],
      "transaction": {
        "from": "0x388e360edaac94372df1a2663ffe52671bbd8b58",
        "to": "0xa0a81b8583c808ce868c5052a6339dab25814c34",
        "gas": "0xa5b0",
        "value": "0x0",
        "input": "0x748747e60000000000000000000000006fa0b094b71ef7fca715177242682bdf1954e2e8",
        "nonce": "0x21",
        "chainId": "0x3e7"
      },
      "additionalContracts": [],
      "isFixedGasLimit": false
    }
  ],
  "receipts": [
    {
      "status": "0x1",
      "cumulativeGasUsed": "0x13a66",
      "logs": [],
      "logsBloom": "0x00000000000000000000000000000000000000000000000000000000000000000000000000000000000000000000000000000000000000000000000000000000000000000000000000000000000000000000000000000000000000000000000000000000000000000000000000000000000000000000000000000000000000000000000000000000000000000000000000000000000000000000000000000000000000000000000000000000000000000000000000000000000000000000000000000000000000000000000000000000000000000000000000000000000000000000000000000000000000000000000000000000000000000000000000000000",
      "type": "0x2",
      "transactionHash": "0x28ddbb95d412a299b1a5438a6eb1a2093eb3e30ad6737f6436f9189a84d4938d",
      "transactionIndex": "0x1",
      "blockHash": "0xcdbe96e3b48ed15efabd4adb478067035be144e3439dd0a304462483d4f9e215",
      "blockNumber": "0x1029e7",
      "gasUsed": "0x714b",
      "effectiveGasPrice": "0x5f5e101",
      "from": "0x388e360edaac94372df1a2663ffe52671bbd8b58",
      "to": "0xa0a81b8583c808ce868c5052a6339dab25814c34",
      "contractAddress": null
    }
  ],
  "libraries": [],
  "pending": [],
  "returns": {},
  "timestamp": 1741900320,
  "chain": 999,
  "commit": "d96c1da"
}