{
  "transactions": [
    {
      "hash": "0x0e3f3a5808fba7932a6e59863c0ca1db940d1a916f81931fcee1c165b2fb930e",
      "transactionType": "CALL",
      "contractName": null,
      "contractAddress": "0x0aef1eaad539c16292faeb16d3f4ab5842f0aa6c",
      "function": "transferOwnership(address)",
      "arguments": [
        "0xe26dA5cBf101bDA4028E2B3208c32424f5D09421"
      ],
      "transaction": {
        "from": "0x388e360edaac94372df1a2663ffe52671bbd8b58",
        "to": "0x0aef1eaad539c16292faeb16d3f4ab5842f0aa6c",
        "gas": "0x9a1d",
        "value": "0x0",
        "input": "0xf2fde38b000000000000000000000000e26da5cbf101bda4028e2b3208c32424f5d09421",
        "nonce": "0x97",
        "chainId": "0x3e7"
      },
      "additionalContracts": [],
      "isFixedGasLimit": false
    }
  ],
  "receipts": [
    {
      "status": "0x1",
      "cumulativeGasUsed": "0x6f94",
      "logs": [
        {
          "address": "0x0aef1eaad539c16292faeb16d3f4ab5842f0aa6c",
          "topics": [
            "0x8be0079c531659141344cd1fd0a4f28419497f9722a3daafe3b4186f6b6457e0",
            "0x000000000000000000000000388e360edaac94372df1a2663ffe52671bbd8b58",
            "0x000000000000000000000000e26da5cbf101bda4028e2b3208c32424f5d09421"
          ],
          "data": "0x",
          "blockHash": "0x6ae63fda2caed1267753626dd23016fcae81af8dd7238afea7cdee21828e95e2",
          "blockNumber": "0x1c4698",
          "blockTimestamp": "0x67eabd64",
          "transactionHash": "0x0e3f3a5808fba7932a6e59863c0ca1db940d1a916f81931fcee1c165b2fb930e",
          "transactionIndex": "0x0",
          "logIndex": "0x0",
          "removed": false
        }
      ],
      "logsBloom": "0x00000008000000000000000000000000000000000000000000800000000000000000000000000000000000100000000000000000004000000000000000000000000000000000000000000000000000000001000000000000000000000000000200000000000000000000000000100000000000000000000000000000000000400000000000000000000000000000000000000000000000000000000800000000000000000000000000000000000000000000000000000000008000000000000000000000000000000000000000000000000000000000000000000000000000000000000000000004000000000000000000000000000008000000000000000000",
      "type": "0x2",
      "transactionHash": "0x0e3f3a5808fba7932a6e59863c0ca1db940d1a916f81931fcee1c165b2fb930e",
      "transactionIndex": "0x0",
      "blockHash": "0x6ae63fda2caed1267753626dd23016fcae81af8dd7238afea7cdee21828e95e2",
      "blockNumber": "0x1c4698",
      "gasUsed": "0x6f94",
      "effectiveGasPrice": "0x7270e00",
      "from": "0x388e360edaac94372df1a2663ffe52671bbd8b58",
      "to": "0x0aef1eaad539c16292faeb16d3f4ab5842f0aa6c",
      "contractAddress": null
    }
  ],
  "libraries": [],
  "pending": [],
  "returns": {},
  "timestamp": 1743437157,
  "chain": 999,
  "commit": "25575b2"
}