{
  "transactions": [
    {
      "hash": "0x520b875584ebe233845144868523e204ea7dd2061c7d78d4a468b212ce61a769",
      "transactionType": "CALL",
      "contractName": null,
      "contractAddress": "0xa0a81b8583c808ce868c5052a6339dab25814c34",
      "function": "setKeeper(address)",
      "arguments": [
        "0xa0A81b8583c808ce868c5052A6339dab25814C34"
      ],
      "transaction": {
        "from": "0x388e360edaac94372df1a2663ffe52671bbd8b58",
        "to": "0xa0a81b8583c808ce868c5052a6339dab25814c34",
        "gas": "0xa5b0",
        "value": "0x0",
        "input": "0x748747e6000000000000000000000000a0a81b8583c808ce868c5052a6339dab25814c34",
        "nonce": "0x22",
        "chainId": "0x3e7"
      },
      "additionalContracts": [],
      "isFixedGasLimit": false
    },
    {
      "hash": "0x21ecbfdda8dfe80de4d795561a99c746686f9ef45f6f64c92e5f57edf97bced9",
      "transactionType": "CALL",
      "contractName": null,
      "contractAddress": "0xc7267f6cc4b4f61a025a797ef03c11285e6b630c",
      "function": "transferOwnership(address)",
      "arguments": [
        "0xa0A81b8583c808ce868c5052A6339dab25814C34"
      ],
      "transaction": {
        "from": "0x388e360edaac94372df1a2663ffe52671bbd8b58",
        "to": "0xc7267f6cc4b4f61a025a797ef03c11285e6b630c",
        "gas": "0x9a56",
        "value": "0x0",
        "input": "0xf2fde38b000000000000000000000000a0a81b8583c808ce868c5052a6339dab25814c34",
        "nonce": "0x23",
        "chainId": "0x3e7"
      },
      "additionalContracts": [],
      "isFixedGasLimit": false
    }
  ],
  "receipts": [
    {
      "status": "0x1",
      "cumulativeGasUsed": "0x714b",
      "logs": [],
      "logsBloom": "0x00000000000000000000000000000000000000000000000000000000000000000000000000000000000000000000000000000000000000000000000000000000000000000000000000000000000000000000000000000000000000000000000000000000000000000000000000000000000000000000000000000000000000000000000000000000000000000000000000000000000000000000000000000000000000000000000000000000000000000000000000000000000000000000000000000000000000000000000000000000000000000000000000000000000000000000000000000000000000000000000000000000000000000000000000000000",
      "type": "0x2",
      "transactionHash": "0x520b875584ebe233845144868523e204ea7dd2061c7d78d4a468b212ce61a769",
      "transactionIndex": "0x0",
      "blockHash": "0xdaf742c86564d47241df37c673f4d1442740f6a4f16ecc8e2d91819a1ba49591",
      "blockNumber": "0x108ae0",
      "gasUsed": "0x714b",
      "effectiveGasPrice": "0x5f5e101",
      "from": "0x388e360edaac94372df1a2663ffe52671bbd8b58",
      "to": "0xa0a81b8583c808ce868c5052a6339dab25814c34",
      "contractAddress": null
    },
    {
      "status": "0x1",
      "cumulativeGasUsed": "0x6fbe",
      "logs": [
        {
          "address": "0xc7267f6cc4b4f61a025a797ef03c11285e6b630c",
          "topics": [
            "0x8be0079c531659141344cd1fd0a4f28419497f9722a3daafe3b4186f6b6457e0",
            "0x000000000000000000000000388e360edaac94372df1a2663ffe52671bbd8b58",
            "0x000000000000000000000000a0a81b8583c808ce868c5052a6339dab25814c34"
          ],
          "data": "0x",
          "blockHash": "0x50a5e47242688d48e39a39f91fb0b5bf71ade50c56562025170acbb94026f68e",
          "blockNumber": "0x108ae1",
          "blockTimestamp": "0x67d405d0",
          "transactionHash": "0x21ecbfdda8dfe80de4d795561a99c746686f9ef45f6f64c92e5f57edf97bced9",
          "transactionIndex": "0x0",
          "logIndex": "0x0",
          "removed": false
        }
      ],
      "logsBloom": "0x00040000000000000000000000100000000000000000000000800000000000000000000000000000000000100000000000000000004000000000000000000000000000000000000000000000000000000001000000000000000000000000000200000000000000000000000000000000000200000000000000000000000000400000000000000000000000000000000000000000000000000000000000000000000000020000000000000000000000000000000000000100000000000000000000000000000000000000000000000000000000000000000000000000000000000000000000000000000000000000000000000000000000000000000000000000",
      "type": "0x2",
      "transactionHash": "0x21ecbfdda8dfe80de4d795561a99c746686f9ef45f6f64c92e5f57edf97bced9",
      "transactionIndex": "0x0",
      "blockHash": "0x50a5e47242688d48e39a39f91fb0b5bf71ade50c56562025170acbb94026f68e",
      "blockNumber": "0x108ae1",
      "gasUsed": "0x6fbe",
      "effectiveGasPrice": "0x5f5e101",
      "from": "0x388e360edaac94372df1a2663ffe52671bbd8b58",
      "to": "0xc7267f6cc4b4f61a025a797ef03c11285e6b630c",
      "contractAddress": null
    }
  ],
  "libraries": [],
  "pending": [],
  "returns": {},
  "timestamp": 1741948368,
  "chain": 999,
  "commit": "d96c1da"
}