{
  "transactions": [
    {
      "hash": "0xe146dfdf0250e6dcdd2bcb740a96070dbb83b7b70c453a1781bff1e406bb63ca",
      "transactionType": "CALL",
      "contractName": null,
      "contractAddress": "0x72cb15fbcc74ca3ef4e0aad43fc77acd82d182f4",
      "function": "setSwapFeeParams(uint32,uint32,uint32,uint32)",
      "arguments": [
        "3000",
        "7000",
        "5",
        "40"
      ],
      "transaction": {
        "from": "0x388e360edaac94372df1a2663ffe52671bbd8b58",
        "to": "0x72cb15fbcc74ca3ef4e0aad43fc77acd82d182f4",
        "gas": "0x107d8",
        "value": "0x0",
        "input": "0x3a19db240000000000000000000000000000000000000000000000000000000000000bb80000000000000000000000000000000000000000000000000000000000001b5800000000000000000000000000000000000000000000000000000000000000050000000000000000000000000000000000000000000000000000000000000028",
        "nonce": "0x8a",
        "chainId": "0x3e7"
      },
      "additionalContracts": [],
      "isFixedGasLimit": false
    }
  ],
  "receipts": [
    {
      "status": "0x1",
      "cumulativeGasUsed": "0xad990",
      "logs": [
        {
          "address": "0x72cb15fbcc74ca3ef4e0aad43fc77acd82d182f4",
          "topics": [
            "0xde009035ce9bf03c8f59c64dca704ee738ebc761db15bf9bc3a2f6f82ad6fe3e"
          ],
          "data": "0x0000000000000000000000000000000000000000000000000000000000000bb80000000000000000000000000000000000000000000000000000000000001b5800000000000000000000000000000000000000000000000000000000000000050000000000000000000000000000000000000000000000000000000000000028",
          "blockHash": "0xfd59689c9f46e21645aa206e3ca270d9270dfb788dde8781ac2a9abd8b1f43fd",
          "blockNumber": "0x1c406e",
          "blockTimestamp": "0x67eab174",
          "transactionHash": "0xe146dfdf0250e6dcdd2bcb740a96070dbb83b7b70c453a1781bff1e406bb63ca",
          "transactionIndex": "0x4",
          "logIndex": "0x4",
          "removed": false
        }
      ],
      "logsBloom": "0x00000000000000000000000000000000000000000000000000000000000000000000000000000000000000000000000000000000000000000000000000000000000000000000000000000000000000000000000000000000001000000000000000000000000000000000000000000000000000000000000000000000000000000000000000000000000000010000000000000000000000000000000000000000000000000000000000000000000000000000000000000000000000000000000000000000000000000000000000000000000000000000000000000000000000000000000000000000000000800002100000000000000000000001000000000000",
      "type": "0x2",
      "transactionHash": "0xe146dfdf0250e6dcdd2bcb740a96070dbb83b7b70c453a1781bff1e406bb63ca",
      "transactionIndex": "0x4",
      "blockHash": "0xfd59689c9f46e21645aa206e3ca270d9270dfb788dde8781ac2a9abd8b1f43fd",
      "blockNumber": "0x1c406e",
      "gasUsed": "0xbf05",
      "effectiveGasPrice": "0x62de33d",
      "from": "0x388e360edaac94372df1a2663ffe52671bbd8b58",
      "to": "0x72cb15fbcc74ca3ef4e0aad43fc77acd82d182f4",
      "contractAddress": null
    }
  ],
  "libraries": [],
  "pending": [],
  "returns": {},
  "timestamp": 1743434101,
  "chain": 999,
  "commit": "25575b2"
}