{
  "transactions": [
    {
      "hash": "0x30c77eb59a02eafba9602e26f393fbf8ca96f0f444400608b6f5fd4a40ba0935",
      "transactionType": "CALL",
      "contractName": null,
      "contractAddress": "0x9b9ce64d716ace08fe88e9cbf3a53b3680470f61",
      "function": "setKeeper(address)",
      "arguments": [
        "0x6Fa0b094b71EF7fcA715177242682bdf1954e2e8"
      ],
      "transaction": {
        "from": "0x388e360edaac94372df1a2663ffe52671bbd8b58",
        "to": "0x9b9ce64d716ace08fe88e9cbf3a53b3680470f61",
        "gas": "0x1077b",
        "value": "0x0",
        "input": "0x748747e60000000000000000000000006fa0b094b71ef7fca715177242682bdf1954e2e8",
        "nonce": "0x25",
        "chainId": "0x3e7"
      },
      "additionalContracts": [],
      "isFixedGasLimit": false
    }
  ],
  "receipts": [
    {
      "status": "0x1",
      "cumulativeGasUsed": "0x12d12",
      "logs": [],
      "logsBloom": "0x00000000000000000000000000000000000000000000000000000000000000000000000000000000000000000000000000000000000000000000000000000000000000000000000000000000000000000000000000000000000000000000000000000000000000000000000000000000000000000000000000000000000000000000000000000000000000000000000000000000000000000000000000000000000000000000000000000000000000000000000000000000000000000000000000000000000000000000000000000000000000000000000000000000000000000000000000000000000000000000000000000000000000000000000000000000",
      "type": "0x2",
      "transactionHash": "0x30c77eb59a02eafba9602e26f393fbf8ca96f0f444400608b6f5fd4a40ba0935",
      "transactionIndex": "0x1",
      "blockHash": "0x70670bdd5dde1432a92a30a164e77b280af541dc4340407adc48b0a0266d92c1",
      "blockNumber": "0x10b92c",
      "gasUsed": "0xb429",
      "effectiveGasPrice": "0x5f5e101",
      "from": "0x388e360edaac94372df1a2663ffe52671bbd8b58",
      "to": "0x9b9ce64d716ace08fe88e9cbf3a53b3680470f61",
      "contractAddress": null
    }
  ],
  "libraries": [],
  "pending": [],
  "returns": {},
  "timestamp": 1741971306,
  "chain": 999,
  "commit": "b0ba237"
}