{
  "transactions": [
    {
      "hash": "0x2d66e4e9df0ada4302016187213f8049a4d87981ec8dfe38e3fed28795396fb1",
      "transactionType": "CALL",
      "contractName": null,
      "contractAddress": "0x72cb15fbcc74ca3ef4e0aad43fc77acd82d182f4",
      "function": "setPool(address)",
      "arguments": [
        "0xEF340bA1e70510739f0E82E0c9511497182FBe86"
      ],
      "transaction": {
        "from": "0x388e360edaac94372df1a2663ffe52671bbd8b58",
        "to": "0x72cb15fbcc74ca3ef4e0aad43fc77acd82d182f4",
        "gas": "0xfef5",
        "value": "0x0",
        "input": "0x4437152a000000000000000000000000ef340ba1e70510739f0e82e0c9511497182fbe86",
        "nonce": "0x8e",
        "chainId": "0x3e7"
      },
      "additionalContracts": [],
      "isFixedGasLimit": false
    }
  ],
  "receipts": [
    {
      "status": "0x1",
      "cumulativeGasUsed": "0x46aba",
      "logs": [
        {
          "address": "0x72cb15fbcc74ca3ef4e0aad43fc77acd82d182f4",
          "topics": [
            "0x025f89b99c8ce32af8da7624f4575b920a86ebf07870d85a9fb545fee349ddce"
          ],
          "data": "0x000000000000000000000000ef340ba1e70510739f0e82e0c9511497182fbe86",
          "blockHash": "0x44ac6bddb5e08159aacfc727597c42f922c223ad76957cee404125666ade2576",
          "blockNumber": "0x1c4147",
          "blockTimestamp": "0x67eab318",
          "transactionHash": "0x2d66e4e9df0ada4302016187213f8049a4d87981ec8dfe38e3fed28795396fb1",
          "transactionIndex": "0x3",
          "logIndex": "0x4",
          "removed": false
        }
      ],
      "logsBloom": "0x00000000000000000000000000000000000000000000000000000000000000000000000000000000004000000000000000000000000000000000000000000000000000000000000000000000000000000000000000000000001000000000000000000000000000000000000000000000000000000000000000000000000000000000000000000000000000010000000000000000000000000000000000000000000000000000000000000020000000000000000000000000000000000000000000000000000000000000000000000000000000000000000000008000000000000000000000000000000000000000000000000000000000000001000000000000",
      "type": "0x2",
      "transactionHash": "0x2d66e4e9df0ada4302016187213f8049a4d87981ec8dfe38e3fed28795396fb1",
      "transactionIndex": "0x3",
      "blockHash": "0x44ac6bddb5e08159aacfc727597c42f922c223ad76957cee404125666ade2576",
      "blockNumber": "0x1c4147",
      "gasUsed": "0xb896",
      "effectiveGasPrice": "0x5f5e101",
      "from": "0x388e360edaac94372df1a2663ffe52671bbd8b58",
      "to": "0x72cb15fbcc74ca3ef4e0aad43fc77acd82d182f4",
      "contractAddress": null
    }
  ],
  "libraries": [],
  "pending": [],
  "returns": {},
  "timestamp": 1743434520,
  "chain": 999,
  "commit": "25575b2"
}