{
  "transactions": [
    {
      "hash": "0xa126bc05f4db249297b3d32229f9bfc1eb12bed650c2ec40add5341ee293c666",
      "transactionType": "CALL",
      "contractName": null,
      "contractAddress": "0xc64399afe18754ef940e3b0a089a232edc4bc77e",
      "function": "transferOwnership(address)",
      "arguments": [
        "0xD760A2c1180f0255086Ce17a28D4952E1758b175"
      ],
      "transaction": {
        "from": "0x388e360edaac94372df1a2663ffe52671bbd8b58",
        "to": "0xc64399afe18754ef940e3b0a089a232edc4bc77e",
        "gas": "0x9a77",
        "value": "0x0",
        "input": "0xf2fde38b000000000000000000000000d760a2c1180f0255086ce17a28d4952e1758b175",
        "nonce": "0x5c",
        "chainId": "0x3e7"
      },
      "additionalContracts": [],
      "isFixedGasLimit": false
    }
  ],
  "receipts": [
    {
      "status": "0x1",
      "cumulativeGasUsed": "0x38f61",
      "logs": [
        {
          "address": "0xc64399afe18754ef940e3b0a089a232edc4bc77e",
          "topics": [
            "0x8be0079c531659141344cd1fd0a4f28419497f9722a3daafe3b4186f6b6457e0",
            "0x000000000000000000000000388e360edaac94372df1a2663ffe52671bbd8b58",
            "0x000000000000000000000000d760a2c1180f0255086ce17a28d4952e1758b175"
          ],
          "data": "0x",
          "blockHash": "0xc6caa7ae1a4d38f1b7df5c31f8f776bf8d2d68bb72d18849dfb3accc38e307cf",
          "blockNumber": "0x1843a8",
          "blockTimestamp": "0x67e2f8fa",
          "transactionHash": "0xa126bc05f4db249297b3d32229f9bfc1eb12bed650c2ec40add5341ee293c666",
          "transactionIndex": "0x1",
          "logIndex": "0x0",
          "removed": false
        }
      ],
      "logsBloom": "0x00000000000000000000004000000000000000000000000000800000000000000000000000000000000000110000000000000008004000000000000000000000000000000000000080000000000000000001000000000000000000000000000200000000000000000000000000000000000020000000000000000000000000400000000000000000000000000000000000000000000000000000000000000000000000000000000000000000000000000000000000000000000000000000000000000000000000000000000000000000000000000000000000000000000000000000000000000000000000400000000000000000000000000000000000000000",
      "type": "0x2",
      "transactionHash": "0xa126bc05f4db249297b3d32229f9bfc1eb12bed650c2ec40add5341ee293c666",
      "transactionIndex": "0x1",
      "blockHash": "0xc6caa7ae1a4d38f1b7df5c31f8f776bf8d2d68bb72d18849dfb3accc38e307cf",
      "blockNumber": "0x1843a8",
      "gasUsed": "0x6fd5",
      "effectiveGasPrice": "0x5f5e101",
      "from": "0x388e360edaac94372df1a2663ffe52671bbd8b58",
      "to": "0xc64399afe18754ef940e3b0a089a232edc4bc77e",
      "contractAddress": null
    }
  ],
  "libraries": [],
  "pending": [],
  "returns": {},
  "timestamp": 1742928123,
  "chain": 999,
  "commit": "a3d86bb"
}