{
  "transactions": [
    {
      "hash": "0xf3c6ce928e8140273a4a298838fd5de46b1005568257f07ab6fc9874760d7b07",
      "transactionType": "CALL",
      "contractName": null,
      "contractAddress": "0x2053ede7213b31b69839f10378f468845b000143",
      "function": "transferOwnership(address)",
      "arguments": [
        "0xe26dA5cBf101bDA4028E2B3208c32424f5D09421"
      ],
      "transaction": {
        "from": "0x388e360edaac94372df1a2663ffe52671bbd8b58",
        "to": "0x2053ede7213b31b69839f10378f468845b000143",
        "gas": "0x9a56",
        "value": "0x0",
        "input": "0xf2fde38b000000000000000000000000e26da5cbf101bda4028e2b3208c32424f5d09421",
        "nonce": "0x85",
        "chainId": "0x3e7"
      },
      "additionalContracts": [],
      "isFixedGasLimit": false
    }
  ],
  "receipts": [
    {
      "status": "0x1",
      "cumulativeGasUsed": "0x11c80cf",
      "logs": [
        {
          "address": "0x2053ede7213b31b69839f10378f468845b000143",
          "topics": [
            "0x8be0079c531659141344cd1fd0a4f28419497f9722a3daafe3b4186f6b6457e0",
            "0x000000000000000000000000388e360edaac94372df1a2663ffe52671bbd8b58",
            "0x000000000000000000000000e26da5cbf101bda4028e2b3208c32424f5d09421"
          ],
          "data": "0x",
          "blockHash": "0xda2925f62c6d8f2efbcc21cde6404f3fa0a1770ddaa2b44e4dc582563f8a3548",
          "blockNumber": "0x1c35c6",
          "blockTimestamp": "0x67ea9cd4",
          "transactionHash": "0xf3c6ce928e8140273a4a298838fd5de46b1005568257f07ab6fc9874760d7b07",
          "transactionIndex": "0x1",
          "logIndex": "0x0",
          "removed": false
        }
      ],
      "logsBloom": "0x00000000000000000000000000000000000800000000000000800000000000000000000000000000000000100000000000400000004000000000000000000000000000000000000000000000000000000001000000000000000000000000200200000000000000000000000000100000000000000000000000000000000000400000000000000000000000000000000000000000000000000000000000000000000000000000000000000000000000000000000000000000008000000000000000000000000000000000000000000000000000000000000000000000000000000000000000000004000000000000000000000000000000000000000000000000",
      "type": "0x2",
      "transactionHash": "0xf3c6ce928e8140273a4a298838fd5de46b1005568257f07ab6fc9874760d7b07",
      "transactionIndex": "0x1",
      "blockHash": "0xda2925f62c6d8f2efbcc21cde6404f3fa0a1770ddaa2b44e4dc582563f8a3548",
      "blockNumber": "0x1c35c6",
      "gasUsed": "0x6fbe",
      "effectiveGasPrice": "0x6efc724",
      "from": "0x388e360edaac94372df1a2663ffe52671bbd8b58",
      "to": "0x2053ede7213b31b69839f10378f468845b000143",
      "contractAddress": null
    }
  ],
  "libraries": [],
  "pending": [],
  "returns": {},
  "timestamp": 1743428820,
  "chain": 999,
  "commit": "ab206aa"
}