{
  "transactions": [
    {
      "hash": "0x76e6692d856e4f2b535ff5d7fcb8fec9cd9c64f34e17726c6b9fb67951d5ce26",
      "transactionType": "CALL",
      "contractName": null,
      "contractAddress": "0x39694eff3b02248929120c73f90347013aec834d",
      "function": "transferOwnership(address)",
      "arguments": [
        "0xe26dA5cBf101bDA4028E2B3208c32424f5D09421"
      ],
      "transaction": {
        "from": "0x388e360edaac94372df1a2663ffe52671bbd8b58",
        "to": "0x39694eff3b02248929120c73f90347013aec834d",
        "gas": "0x9a56",
        "value": "0x0",
        "input": "0xf2fde38b000000000000000000000000e26da5cbf101bda4028e2b3208c32424f5d09421",
        "nonce": "0xc2",
        "chainId": "0x3e7"
      },
      "additionalContracts": [],
      "isFixedGasLimit": false
    }
  ],
  "receipts": [
    {
      "status": "0x1",
      "cumulativeGasUsed": "0x5691b",
      "logs": [
        {
          "address": "0x39694eff3b02248929120c73f90347013aec834d",
          "topics": [
            "0x8be0079c531659141344cd1fd0a4f28419497f9722a3daafe3b4186f6b6457e0",
            "0x000000000000000000000000388e360edaac94372df1a2663ffe52671bbd8b58",
            "0x000000000000000000000000e26da5cbf101bda4028e2b3208c32424f5d09421"
          ],
          "data": "0x",
          "blockHash": "0xec68df9da435e96ebab5941fe34fc8acd7d7db454d0ab7ad5d744ec7a2a12ce2",
          "blockNumber": "0x1d9321",
          "blockTimestamp": "0x67ed4100",
          "transactionHash": "0x76e6692d856e4f2b535ff5d7fcb8fec9cd9c64f34e17726c6b9fb67951d5ce26",
          "transactionIndex": "0x2",
          "logIndex": "0x7",
          "removed": false
        }
      ],
      "logsBloom": "0x00000000000000000000000000000000000000000000000000800000000000000000000000000000000000100000000000000000004000000000000000000000000000000000000000000000000000000001000000000000000000000000000200000000000000000000000000100000000000000000001000000000000000400000000000000000000000004000000000000000000000000000000000000000000000000000000000000000000000000000000000000000008000000200000000000000000000000000000000000000000000000000000000000000000000000000000000000004000000000000000000000000000000000000000000000000",
      "type": "0x2",
      "transactionHash": "0x76e6692d856e4f2b535ff5d7fcb8fec9cd9c64f34e17726c6b9fb67951d5ce26",
      "transactionIndex": "0x2",
      "blockHash": "0xec68df9da435e96ebab5941fe34fc8acd7d7db454d0ab7ad5d744ec7a2a12ce2",
      "blockNumber": "0x1d9321",
      "gasUsed": "0x6fbe",
      "effectiveGasPrice": "0x5fbae4b",
      "from": "0x388e360edaac94372df1a2663ffe52671bbd8b58",
      "to": "0x39694eff3b02248929120c73f90347013aec834d",
      "contractAddress": null
    }
  ],
  "libraries": [],
  "pending": [],
  "returns": {},
  "timestamp": 1743601921,
  "chain": 999,
  "commit": "0f08994"
}