{
  "transactions": [
    {
      "hash": "0x50325b933dc316bb9be0450c9e525cbc2673832fbfd3bbad14d7a810b178350d",
      "transactionType": "CALL",
      "contractName": null,
      "contractAddress": "0x3d04388816fa663023ff44d822eb3bd4a82c9819",
      "function": "transferOwnership(address)",
      "arguments": [
        "0xe26dA5cBf101bDA4028E2B3208c32424f5D09421"
      ],
      "transaction": {
        "from": "0x388e360edaac94372df1a2663ffe52671bbd8b58",
        "to": "0x3d04388816fa663023ff44d822eb3bd4a82c9819",
        "gas": "0x99fe",
        "value": "0x0",
        "input": "0xf2fde38b000000000000000000000000e26da5cbf101bda4028e2b3208c32424f5d09421",
        "nonce": "0x87",
        "chainId": "0x3e7"
      },
      "additionalContracts": [],
      "isFixedGasLimit": false
    }
  ],
  "receipts": [
    {
      "status": "0x1",
      "cumulativeGasUsed": "0x1ce9ed",
      "logs": [
        {
          "address": "0x3d04388816fa663023ff44d822eb3bd4a82c9819",
          "topics": [
            "0x8be0079c531659141344cd1fd0a4f28419497f9722a3daafe3b4186f6b6457e0",
            "0x000000000000000000000000388e360edaac94372df1a2663ffe52671bbd8b58",
            "0x000000000000000000000000e26da5cbf101bda4028e2b3208c32424f5d09421"
          ],
          "data": "0x",
          "blockHash": "0x181a43360fa4b4827f77a8efd398a0610bdc4a0166fc15cdc9f70c1ec1cfc0d5",
          "blockNumber": "0x1c3623",
          "blockTimestamp": "0x67ea9d88",
          "transactionHash": "0x50325b933dc316bb9be0450c9e525cbc2673832fbfd3bbad14d7a810b178350d",
          "transactionIndex": "0x1",
          "logIndex": "0x0",
          "removed": false
        }
      ],
      "logsBloom": "0x00000000000000000000000000000000000000000000000000800000000000000000000000000000000000100000000000000000004000000000000000000000000000000080000000000000000000000001000000000000000000000000000200000000000000000000000000100000000000000000000000000000000000400000000000000000000000000000000000000000000000000000000000000000000000000000000000000000000000000000000000000000008000000000000000000000000000000000000000000000000000000000000000000000000000000000000000000004100000000000000000000000000004000000000000000000",
      "type": "0x2",
      "transactionHash": "0x50325b933dc316bb9be0450c9e525cbc2673832fbfd3bbad14d7a810b178350d",
      "transactionIndex": "0x1",
      "blockHash": "0x181a43360fa4b4827f77a8efd398a0610bdc4a0166fc15cdc9f70c1ec1cfc0d5",
      "blockNumber": "0x1c3623",
      "gasUsed": "0x6f7e",
      "effectiveGasPrice": "0x7961f2e",
      "from": "0x388e360edaac94372df1a2663ffe52671bbd8b58",
      "to": "0x3d04388816fa663023ff44d822eb3bd4a82c9819",
      "contractAddress": null
    }
  ],
  "libraries": [],
  "pending": [],
  "returns": {},
  "timestamp": 1743429001,
  "chain": 999,
  "commit": "ab206aa"
}