{
  "transactions": [
    {
      "hash": "0x1c2910bd2ddf16cbc361cfd934b25117ef3966c0a4dfea695192ef78da74ab6c",
      "transactionType": "CALL",
      "contractName": null,
      "contractAddress": "0x1da0ea7f6464d715b0da6922aeb45c382cc8ab15",
      "function": "transferOwnership(address)",
      "arguments": [
        "0x80c7f89398160fCD9E74519f63F437459E5d02E2"
      ],
      "transaction": {
        "from": "0x388e360edaac94372df1a2663ffe52671bbd8b58",
        "to": "0x1da0ea7f6464d715b0da6922aeb45c382cc8ab15",
        "gas": "0x9a77",
        "value": "0x0",
        "input": "0xf2fde38b00000000000000000000000080c7f89398160fcd9e74519f63f437459e5d02e2",
        "nonce": "0x99",
        "chainId": "0x3e7"
      },
      "additionalContracts": [],
      "isFixedGasLimit": false
    }
  ],
  "receipts": [
    {
      "status": "0x1",
      "cumulativeGasUsed": "0x6fd5",
      "logs": [
        {
          "address": "0x1da0ea7f6464d715b0da6922aeb45c382cc8ab15",
          "topics": [
            "0x8be0079c531659141344cd1fd0a4f28419497f9722a3daafe3b4186f6b6457e0",
            "0x000000000000000000000000388e360edaac94372df1a2663ffe52671bbd8b58",
            "0x00000000000000000000000080c7f89398160fcd9e74519f63f437459e5d02e2"
          ],
          "data": "0x",
          "blockHash": "0x9e6dd2f8c6cd078849e286e0eb22b327eb14ecaaa79035655c184db0afd27d23",
          "blockNumber": "0x1c46c6",
          "blockTimestamp": "0x67eabdbc",
          "transactionHash": "0x1c2910bd2ddf16cbc361cfd934b25117ef3966c0a4dfea695192ef78da74ab6c",
          "transactionIndex": "0x0",
          "logIndex": "0x0",
          "removed": false
        }
      ],
      "logsBloom": "0x00000000000000000000000000000000000000000000000000800000000000000000000000000000000000100000000002000000004000000000000000000000000000000000001000000000000000000201000000000000000000000000000200000000000000000000000000000000000000000000000000000000000000400000000000000000000000000000000000000000000000000000000000000000000000000000000000000000000000000000000004000000000000000000000000000000000000000000000000000000000000000000001400000000000000000000000000000000000000000000000000000000000000000000000000000000",
      "type": "0x2",
      "transactionHash": "0x1c2910bd2ddf16cbc361cfd934b25117ef3966c0a4dfea695192ef78da74ab6c",
      "transactionIndex": "0x0",
      "blockHash": "0x9e6dd2f8c6cd078849e286e0eb22b327eb14ecaaa79035655c184db0afd27d23",
      "blockNumber": "0x1c46c6",
      "gasUsed": "0x6fd5",
      "effectiveGasPrice": "0x5f5e101",
      "from": "0x388e360edaac94372df1a2663ffe52671bbd8b58",
      "to": "0x1da0ea7f6464d715b0da6922aeb45c382cc8ab15",
      "contractAddress": null
    }
  ],
  "libraries": [],
  "pending": [],
  "returns": {},
  "timestamp": 1743437245,
  "chain": 999,
  "commit": "25575b2"
}