{
  "transactions": [
    {
      "hash": "0xba887639c9db520ff4d4ddaeb288b828741e99e5296a277503416b0574d72500",
      "transactionType": "CALL",
      "contractName": null,
      "contractAddress": "0x69317cecf77fb5dc68abe5c7aafb283de46956d9",
      "function": "setSwapFeeParams(uint32,uint32,uint32,uint32)",
      "arguments": [
        "3000",
        "7000",
        "5",
        "40"
      ],
      "transaction": {
        "from": "0x388e360edaac94372df1a2663ffe52671bbd8b58",
        "to": "0x69317cecf77fb5dc68abe5c7aafb283de46956d9",
        "gas": "0x107d8",
        "value": "0x0",
        "input": "0x3a19db240000000000000000000000000000000000000000000000000000000000000bb80000000000000000000000000000000000000000000000000000000000001b5800000000000000000000000000000000000000000000000000000000000000050000000000000000000000000000000000000000000000000000000000000028",
        "nonce": "0xb9",
        "chainId": "0x3e7"
      },
      "additionalContracts": [],
      "isFixedGasLimit": false
    }
  ],
  "receipts": [
    {
      "status": "0x1",
      "cumulativeGasUsed": "0x8c2cb",
      "logs": [
        {
          "address": "0x69317cecf77fb5dc68abe5c7aafb283de46956d9",
          "topics": [
            "0xde009035ce9bf03c8f59c64dca704ee738ebc761db15bf9bc3a2f6f82ad6fe3e"
          ],
          "data": "0x0000000000000000000000000000000000000000000000000000000000000bb80000000000000000000000000000000000000000000000000000000000001b5800000000000000000000000000000000000000000000000000000000000000050000000000000000000000000000000000000000000000000000000000000028",
          "blockHash": "0xaf57cf8b1573489771471a851776f97427b45ea9faf2e71b033310a64ec79c9b",
          "blockNumber": "0x1d9094",
          "blockTimestamp": "0x67ed3c12",
          "transactionHash": "0xba887639c9db520ff4d4ddaeb288b828741e99e5296a277503416b0574d72500",
          "transactionIndex": "0x6",
          "logIndex": "0xf",
          "removed": false
        }
      ],
      "logsBloom": "0x00000000000000000000000000000000000000000000000000000000000000000000000000000000000000000000000000000000000000000100000000000000000000000000000000000000000000000000000000000000000000000000000000000000000000000000000000000000000000000000000000000000000000000000000000000000000000000000000001000000000000000000000000000000000000000000000000000000000000000000000000000000000000000000000000000000000000000000000000000000000000000800000000000000000000000000000000000000000000800002100000000000000000000000000000000000",
      "type": "0x2",
      "transactionHash": "0xba887639c9db520ff4d4ddaeb288b828741e99e5296a277503416b0574d72500",
      "transactionIndex": "0x6",
      "blockHash": "0xaf57cf8b1573489771471a851776f97427b45ea9faf2e71b033310a64ec79c9b",
      "blockNumber": "0x1d9094",
      "gasUsed": "0xbf05",
      "effectiveGasPrice": "0x5f5e101",
      "from": "0x388e360edaac94372df1a2663ffe52671bbd8b58",
      "to": "0x69317cecf77fb5dc68abe5c7aafb283de46956d9",
      "contractAddress": null
    }
  ],
  "libraries": [],
  "pending": [],
  "returns": {},
  "timestamp": 1743600659,
  "chain": 999,
  "commit": "0f08994"
}