{
  "transactions": [
    {
      "hash": "0xc5f51c81e218794f27951eddb927c8092f854d61b8dfae7d3f06685a6f882268",
      "transactionType": "CALL",
      "contractName": null,
      "contractAddress": "0xdb9fc77aa59bd37aeb1a1d96ea1eb2effe41bb8f",
      "function": "setSwapFeeParams(uint32,uint32,uint32,uint32)",
      "arguments": [
        "3000",
        "7000",
        "5",
        "40"
      ],
      "transaction": {
        "from": "0x388e360edaac94372df1a2663ffe52671bbd8b58",
        "to": "0xdb9fc77aa59bd37aeb1a1d96ea1eb2effe41bb8f",
        "gas": "0x107d8",
        "value": "0x0",
        "input": "0x3a19db240000000000000000000000000000000000000000000000000000000000000bb80000000000000000000000000000000000000000000000000000000000001b5800000000000000000000000000000000000000000000000000000000000000050000000000000000000000000000000000000000000000000000000000000028",
        "nonce": "0x79",
        "chainId": "0x3e7"
      },
      "additionalContracts": [],
      "isFixedGasLimit": false
    }
  ],
  "receipts": [
    {
      "status": "0x1",
      "cumulativeGasUsed": "0x7a825",
      "logs": [
        {
          "address": "0xdb9fc77aa59bd37aeb1a1d96ea1eb2effe41bb8f",
          "topics": [
            "0xde009035ce9bf03c8f59c64dca704ee738ebc761db15bf9bc3a2f6f82ad6fe3e"
          ],
          "data": "0x0000000000000000000000000000000000000000000000000000000000000bb80000000000000000000000000000000000000000000000000000000000001b5800000000000000000000000000000000000000000000000000000000000000050000000000000000000000000000000000000000000000000000000000000028",
          "blockHash": "0x60c993b521723d2ace6b37743005b3ea5e04d52e44c63e83334b618b1b0cb0db",
          "blockNumber": "0x1c3108",
          "blockTimestamp": "0x67ea93a8",
          "transactionHash": "0xc5f51c81e218794f27951eddb927c8092f854d61b8dfae7d3f06685a6f882268",
          "transactionIndex": "0x1",
          "logIndex": "0x0",
          "removed": false
        }
      ],
      "logsBloom": "0x00000000000000000000000040000000000000000000000000000000000000000000000000000000000000000000000000000000000000000000000000000000000000000000000000000000000000000000000000000000000000000000000000000000000000000000000400000000000000000000000000000000000000000000000000000000000000000000000000000000000000000000000000000000000000000200000000000000000000000000000000000000000000000000000000000000000000000000000000000000000000000000000000000000000000000000000000000000000000800002100000000000000000000000000000000000",
      "type": "0x2",
      "transactionHash": "0xc5f51c81e218794f27951eddb927c8092f854d61b8dfae7d3f06685a6f882268",
      "transactionIndex": "0x1",
      "blockHash": "0x60c993b521723d2ace6b37743005b3ea5e04d52e44c63e83334b618b1b0cb0db",
      "blockNumber": "0x1c3108",
      "gasUsed": "0xbf05",
      "effectiveGasPrice": "0x856c40e",
      "from": "0x388e360edaac94372df1a2663ffe52671bbd8b58",
      "to": "0xdb9fc77aa59bd37aeb1a1d96ea1eb2effe41bb8f",
      "contractAddress": null
    }
  ],
  "libraries": [],
  "pending": [],
  "returns": {},
  "timestamp": 1743426473,
  "chain": 999,
  "commit": "ab206aa"
}