{
  "transactions": [
    {
      "hash": "0xf04c62642bf18972e008df726047a6d1712cf409e87d16d764d8b8fd1919e5f6",
      "transactionType": "CALL",
      "contractName": null,
      "contractAddress": "0x100d51e2cad5801f787087afe2b87c10195b9218",
      "function": "setSwapFeeParams(uint32,uint32,uint32,uint32)",
      "arguments": [
        "3000",
        "7000",
        "1",
        "40"
      ],
      "transaction": {
        "from": "0x388e360edaac94372df1a2663ffe52671bbd8b58",
        "to": "0x100d51e2cad5801f787087afe2b87c10195b9218",
        "gas": "0x107d8",
        "value": "0x0",
        "input": "0x3a19db240000000000000000000000000000000000000000000000000000000000000bb80000000000000000000000000000000000000000000000000000000000001b5800000000000000000000000000000000000000000000000000000000000000010000000000000000000000000000000000000000000000000000000000000028",
        "nonce": "0x11",
        "chainId": "0x3e7"
      },
      "additionalContracts": [],
      "isFixedGasLimit": false
    }
  ],
  "receipts": [
    {
      "status": "0x1",
      "cumulativeGasUsed": "0xbf05",
      "logs": [
        {
          "address": "0x100d51e2cad5801f787087afe2b87c10195b9218",
          "topics": [
            "0xde009035ce9bf03c8f59c64dca704ee738ebc761db15bf9bc3a2f6f82ad6fe3e"
          ],
          "data": "0x0000000000000000000000000000000000000000000000000000000000000bb80000000000000000000000000000000000000000000000000000000000001b5800000000000000000000000000000000000000000000000000000000000000010000000000000000000000000000000000000000000000000000000000000028",
          "blockHash": "0x72bd1863be31c7c5381b1c6eb8bcbd7026ab2e9984930d41d56e0215a55953ae",
          "blockNumber": "0xf3e24",
          "blockTimestamp": "0x67d181cc",
          "transactionHash": "0xf04c62642bf18972e008df726047a6d1712cf409e87d16d764d8b8fd1919e5f6",
          "transactionIndex": "0x0",
          "logIndex": "0x0",
          "removed": false
        }
      ],
      "logsBloom": "0x00000000000000000000000000000000000000000000000000000000000000000000000000000000000000000000000000000000000000000000000000000000000000000008000000000000000000000000000000000000000000000000000000000000000000000000000000000000000000000000000000000000000000000000000000008000000000000000000000000000000000000000000000000000000000000000000000000000000000000000000000000000000000000000000000000000000000000000000000000000000000020000000000000000000000000000000000000000000000800002100000000000000000000000000000000000",
      "type": "0x2",
      "transactionHash": "0xf04c62642bf18972e008df726047a6d1712cf409e87d16d764d8b8fd1919e5f6",
      "transactionIndex": "0x0",
      "blockHash": "0x72bd1863be31c7c5381b1c6eb8bcbd7026ab2e9984930d41d56e0215a55953ae",
      "blockNumber": "0xf3e24",
      "gasUsed": "0xbf05",
      "effectiveGasPrice": "0x5f5e101",
      "from": "0x388e360edaac94372df1a2663ffe52671bbd8b58",
      "to": "0x100d51e2cad5801f787087afe2b87c10195b9218",
      "contractAddress": null
    }
  ],
  "libraries": [],
  "pending": [],
  "returns": {},
  "timestamp": 1741783500,
  "chain": 999,
  "commit": "4a7117b"
}