{
  "transactions": [
    {
      "hash": "0xeb8cc47a00c9350a548ee5888945503bd636e5dba3b9e291a62db34f3c399091",
      "transactionType": "CALL",
      "contractName": null,
      "contractAddress": "0xcefb205ef3fa5398b02e8163f099ed274743ca0a",
      "function": "transferOwnership(address)",
      "arguments": [
        "0xe26dA5cBf101bDA4028E2B3208c32424f5D09421"
      ],
      "transaction": {
        "from": "0x388e360edaac94372df1a2663ffe52671bbd8b58",
        "to": "0xcefb205ef3fa5398b02e8163f099ed274743ca0a",
        "gas": "0x9a14",
        "value": "0x0",
        "input": "0xf2fde38b000000000000000000000000e26da5cbf101bda4028e2b3208c32424f5d09421",
        "nonce": "0x5f",
        "chainId": "0x3e7"
      },
      "additionalContracts": [],
      "isFixedGasLimit": false
    }
  ],
  "receipts": [
    {
      "status": "0x1",
      "cumulativeGasUsed": "0x44fd3",
      "logs": [
        {
          "address": "0xcefb205ef3fa5398b02e8163f099ed274743ca0a",
          "topics": [
            "0x8be0079c531659141344cd1fd0a4f28419497f9722a3daafe3b4186f6b6457e0",
            "0x000000000000000000000000388e360edaac94372df1a2663ffe52671bbd8b58",
            "0x000000000000000000000000e26da5cbf101bda4028e2b3208c32424f5d09421"
          ],
          "data": "0x",
          "blockHash": "0x94446ab73fdd61da885ff76e9b417647a28b2b8a07442d49a75edfb4ead4203b",
          "blockNumber": "0x184416",
          "blockTimestamp": "0x67e2f9d0",
          "transactionHash": "0xeb8cc47a00c9350a548ee5888945503bd636e5dba3b9e291a62db34f3c399091",
          "transactionIndex": "0x3",
          "logIndex": "0x9",
          "removed": false
        }
      ],
      "logsBloom": "0x00000000000000000000000000000000000000000000000000800000000000000000000000000000000000100000000000000000004000000000000000000000000000000000000000000000000000000001000000000000000000000000000200000000008000000000000000100000000000000000000000000000000000400000000000002000000000000000000000000000000000000000000000000000000000000000000000000000000000000000000000000000008000000000000400000000000000000000000000000000000000000000000000000000000000000000000000000004000000000000000000000000000000000000000000000000",
      "type": "0x2",
      "transactionHash": "0xeb8cc47a00c9350a548ee5888945503bd636e5dba3b9e291a62db34f3c399091",
      "transactionIndex": "0x3",
      "blockHash": "0x94446ab73fdd61da885ff76e9b417647a28b2b8a07442d49a75edfb4ead4203b",
      "blockNumber": "0x184416",
      "gasUsed": "0x6f8e",
      "effectiveGasPrice": "0x6017f20",
      "from": "0x388e360edaac94372df1a2663ffe52671bbd8b58",
      "to": "0xcefb205ef3fa5398b02e8163f099ed274743ca0a",
      "contractAddress": null
    }
  ],
  "libraries": [],
  "pending": [],
  "returns": {},
  "timestamp": 1742928336,
  "chain": 999,
  "commit": "a3d86bb"
}