{
  "transactions": [
    {
      "hash": "0x7721ccc6b220fdc64501ca7ca52419de426b5aca0cc32c0d1b73d893ed193df7",
      "transactionType": "CALL",
      "contractName": null,
      "contractAddress": "0xa0a81b8583c808ce868c5052a6339dab25814c34",
      "function": "setKeeper(address)",
      "arguments": [
        "0x9B9Ce64d716aCe08fe88e9cbF3A53B3680470f61"
      ],
      "transaction": {
        "from": "0x388e360edaac94372df1a2663ffe52671bbd8b58",
        "to": "0xa0a81b8583c808ce868c5052a6339dab25814c34",
        "gas": "0xa5b0",
        "value": "0x0",
        "input": "0x748747e60000000000000000000000009b9ce64d716ace08fe88e9cbf3a53b3680470f61",
        "nonce": "0x26",
        "chainId": "0x3e7"
      },
      "additionalContracts": [],
      "isFixedGasLimit": false
    }
  ],
  "receipts": [
    {
      "status": "0x1",
      "cumulativeGasUsed": "0xea34",
      "logs": [],
      "logsBloom": "0x00000000000000000000000000000000000000000000000000000000000000000000000000000000000000000000000000000000000000000000000000000000000000000000000000000000000000000000000000000000000000000000000000000000000000000000000000000000000000000000000000000000000000000000000000000000000000000000000000000000000000000000000000000000000000000000000000000000000000000000000000000000000000000000000000000000000000000000000000000000000000000000000000000000000000000000000000000000000000000000000000000000000000000000000000000000",
      "type": "0x2",
      "transactionHash": "0x7721ccc6b220fdc64501ca7ca52419de426b5aca0cc32c0d1b73d893ed193df7",
      "transactionIndex": "0x1",
      "blockHash": "0x88982e5e0130703d45afdcb5c6af17ba45f28b3334742c52daefb1a7d8f630f4",
      "blockNumber": "0x10b93f",
      "gasUsed": "0x714b",
      "effectiveGasPrice": "0x5f5e101",
      "from": "0x388e360edaac94372df1a2663ffe52671bbd8b58",
      "to": "0xa0a81b8583c808ce868c5052a6339dab25814c34",
      "contractAddress": null
    }
  ],
  "libraries": [],
  "pending": [],
  "returns": {},
  "timestamp": 1741971343,
  "chain": 999,
  "commit": "b0ba237"
}