{
  "transactions": [
    {
      "hash": "0x4d16fe5f20289c7bde1805106974462e4d6168d6d625f449ec64d7d905c6c0ac",
      "transactionType": "CALL",
      "contractName": null,
      "contractAddress": "0x45f2b4a4ca043f44f468c126a03332d202626c7a",
      "function": "transferOwnership(address)",
      "arguments": [
        "0xe26dA5cBf101bDA4028E2B3208c32424f5D09421"
      ],
      "transaction": {
        "from": "0x388e360edaac94372df1a2663ffe52671bbd8b58",
        "to": "0x45f2b4a4ca043f44f468c126a03332d202626c7a",
        "gas": "0x9a56",
        "value": "0x0",
        "input": "0xf2fde38b000000000000000000000000e26da5cbf101bda4028e2b3208c32424f5d09421",
        "nonce": "0x5e",
        "chainId": "0x3e7"
      },
      "additionalContracts": [],
      "isFixedGasLimit": false
    }
  ],
  "receipts": [
    {
      "status": "0x1",
      "cumulativeGasUsed": "0x7913a",
      "logs": [
        {
          "address": "0x45f2b4a4ca043f44f468c126a03332d202626c7a",
          "topics": [
            "0x8be0079c531659141344cd1fd0a4f28419497f9722a3daafe3b4186f6b6457e0",
            "0x000000000000000000000000388e360edaac94372df1a2663ffe52671bbd8b58",
            "0x000000000000000000000000e26da5cbf101bda4028e2b3208c32424f5d09421"
          ],
          "data": "0x",
          "blockHash": "0x351250849327b48bb629e21c0089ec0da96a0d54c28d0f14eb0eef1a61e56375",
          "blockNumber": "0x1843f0",
          "blockTimestamp": "0x67e2f986",
          "transactionHash": "0x4d16fe5f20289c7bde1805106974462e4d6168d6d625f449ec64d7d905c6c0ac",
          "transactionIndex": "0x1",
          "logIndex": "0x6",
          "removed": false
        }
      ],
      "logsBloom": "0x00000000000000000000000000000000000000000000000000800000000000000000000000020000000000100000000000000000004000000000000000000000000000000000000000000000000000000001000000000000000000000000000200000000000000000000000000100000000000000000000000000000000000400004000000000000000000000000000000000000000000000000000000000000000000000000000000000000000000000000000000000000008000000000000000000000000000000000000000000000000000000000000000000000000000000000000000000004020000000000000000000000000000000000000000000000",
      "type": "0x2",
      "transactionHash": "0x4d16fe5f20289c7bde1805106974462e4d6168d6d625f449ec64d7d905c6c0ac",
      "transactionIndex": "0x1",
      "blockHash": "0x351250849327b48bb629e21c0089ec0da96a0d54c28d0f14eb0eef1a61e56375",
      "blockNumber": "0x1843f0",
      "gasUsed": "0x6fbe",
      "effectiveGasPrice": "0x5f5e101",
      "from": "0x388e360edaac94372df1a2663ffe52671bbd8b58",
      "to": "0x45f2b4a4ca043f44f468c126a03332d202626c7a",
      "contractAddress": null
    }
  ],
  "libraries": [],
  "pending": [],
  "returns": {},
  "timestamp": 1742928263,
  "chain": 999,
  "commit": "a3d86bb"
}