{
  "transactions": [
    {
      "hash": "0x43714a06c68bf6536813e6f3ec9011c783cb7753bce328dab4337ae14b5b0851",
      "transactionType": "CALL",
      "contractName": null,
      "contractAddress": "0xeec0458c9cc27f0411d95473f4cbc39b9762dc0e",
      "function": "transferOwnership(address)",
      "arguments": [
        "0x3D04388816FA663023ff44d822eb3bD4a82C9819"
      ],
      "transaction": {
        "from": "0x388e360edaac94372df1a2663ffe52671bbd8b58",
        "to": "0xeec0458c9cc27f0411d95473f4cbc39b9762dc0e",
        "gas": "0x9a77",
        "value": "0x0",
        "input": "0xf2fde38b0000000000000000000000003d04388816fa663023ff44d822eb3bd4a82c9819",
        "nonce": "0x88",
        "chainId": "0x3e7"
      },
      "additionalContracts": [],
      "isFixedGasLimit": false
    }
  ],
  "receipts": [
    {
      "status": "0x1",
      "cumulativeGasUsed": "0x1898a",
      "logs": [
        {
          "address": "0xeec0458c9cc27f0411d95473f4cbc39b9762dc0e",
          "topics": [
            "0x8be0079c531659141344cd1fd0a4f28419497f9722a3daafe3b4186f6b6457e0",
            "0x000000000000000000000000388e360edaac94372df1a2663ffe52671bbd8b58",
            "0x0000000000000000000000003d04388816fa663023ff44d822eb3bd4a82c9819"
          ],
          "data": "0x",
          "blockHash": "0x6c4e1b8fe042cd1b42aeac57325b5158cb3e42ea00ce3d0f042883e83beabe4f",
          "blockNumber": "0x1c3642",
          "blockTimestamp": "0x67ea9dc4",
          "transactionHash": "0x43714a06c68bf6536813e6f3ec9011c783cb7753bce328dab4337ae14b5b0851",
          "transactionIndex": "0x2",
          "logIndex": "0x0",
          "removed": false
        }
      ],
      "logsBloom": "0x00000000000000000000000000000000000000000000000000840000000400200000000000000000000000100000000000000000004000000000000000000002000000010000000000000000000000000001000000000000000000000000000200000000000000000000000000000000000000008000000000000000000000400000000000000000000000000000000000000000000000000000000000000000000000000000000000000000000000000000000000000000000000000000000000000000000000000000000000000000000000000000000000000000000000000000000000000000000000000000000000000000000000000000000000000000",
      "type": "0x2",
      "transactionHash": "0x43714a06c68bf6536813e6f3ec9011c783cb7753bce328dab4337ae14b5b0851",
      "transactionIndex": "0x2",
      "blockHash": "0x6c4e1b8fe042cd1b42aeac57325b5158cb3e42ea00ce3d0f042883e83beabe4f",
      "blockNumber": "0x1c3642",
      "gasUsed": "0x6fd5",
      "effectiveGasPrice": "0x6c20631",
      "from": "0x388e360edaac94372df1a2663ffe52671bbd8b58",
      "to": "0xeec0458c9cc27f0411d95473f4cbc39b9762dc0e",
      "contractAddress": null
    }
  ],
  "libraries": [],
  "pending": [],
  "returns": {},
  "timestamp": 1743429061,
  "chain": 999,
  "commit": "ab206aa"
}