{
  "transactions": [
    {
      "hash": "0x298cd6411737179b024052ddce051b88182ffa745e11c0abc2f54d30be5da9bd",
      "transactionType": "CALL",
      "contractName": null,
      "contractAddress": "0x69317cecf77fb5dc68abe5c7aafb283de46956d9",
      "function": "setPool(address)",
      "arguments": [
        "0x5365b6EF09253C7aBc0A9286eC578A9f4B413B7D"
      ],
      "transaction": {
        "from": "0x388e360edaac94372df1a2663ffe52671bbd8b58",
        "to": "0x69317cecf77fb5dc68abe5c7aafb283de46956d9",
        "gas": "0xfef5",
        "value": "0x0",
        "input": "0x4437152a0000000000000000000000005365b6ef09253c7abc0a9286ec578a9f4b413b7d",
        "nonce": "0xbd",
        "chainId": "0x3e7"
      },
      "additionalContracts": [],
      "isFixedGasLimit": false
    }
  ],
  "receipts": [
    {
      "status": "0x1",
      "cumulativeGasUsed": "0xb896",
      "logs": [
        {
          "address": "0x69317cecf77fb5dc68abe5c7aafb283de46956d9",
          "topics": [
            "0x025f89b99c8ce32af8da7624f4575b920a86ebf07870d85a9fb545fee349ddce"
          ],
          "data": "0x0000000000000000000000005365b6ef09253c7abc0a9286ec578a9f4b413b7d",
          "blockHash": "0x982417c5b683f004260430c58d30b43d6a4eb425e7343b1ed50dd78ff8d4315a",
          "blockNumber": "0x1d9229",
          "blockTimestamp": "0x67ed3f20",
          "transactionHash": "0x298cd6411737179b024052ddce051b88182ffa745e11c0abc2f54d30be5da9bd",
          "transactionIndex": "0x0",
          "logIndex": "0x0",
          "removed": false
        }
      ],
      "logsBloom": "0x00000000000000000000000000000000000000000000000000000000000000000000000000000000004000000000000000000000000000000100000000000000000000000000000000000000000000000000000000000000000000000000000000000000000000000000000000000000000000000000000000000000000000000000000000000000000000000000000001000000000000000000000000000000000000000000000000000020000000000000000000000000000000000000000000000000000000000000000000000000000000000800000000008000000000000000000000000000000000000000000000000000000000000000000000000000",
      "type": "0x2",
      "transactionHash": "0x298cd6411737179b024052ddce051b88182ffa745e11c0abc2f54d30be5da9bd",
      "transactionIndex": "0x0",
      "blockHash": "0x982417c5b683f004260430c58d30b43d6a4eb425e7343b1ed50dd78ff8d4315a",
      "blockNumber": "0x1d9229",
      "gasUsed": "0xb896",
      "effectiveGasPrice": "0x5f5e101",
      "from": "0x388e360edaac94372df1a2663ffe52671bbd8b58",
      "to": "0x69317cecf77fb5dc68abe5c7aafb283de46956d9",
      "contractAddress": null
    }
  ],
  "libraries": [],
  "pending": [],
  "returns": {},
  "timestamp": 1743601441,
  "chain": 999,
  "commit": "0f08994"
}