{
  "transactions": [
    {
      "hash": "0x44891a18d0bb0358ef437bd06ad271828294602ea3c9477fdba2d9e027ff9b0e",
      "transactionType": "CALL",
      "contractName": null,
      "contractAddress": "0x408046f07a009a5be4a8ed3b26a68e382513a492",
      "function": "depositFromNative(uint256,uint256,address)",
      "arguments": [
        "100000000000000000",
        "1741782246",
        "0x388E360eDaaC94372df1a2663FFe52671bbd8B58"
      ],
      "transaction": {
        "from": "0x388e360edaac94372df1a2663ffe52671bbd8b58",
        "to": "0x408046f07a009a5be4a8ed3b26a68e382513a492",
        "gas": "0x2da0d",
        "value": "0x16345785d8a0000",
        "input": "0x8b5fa09a000000000000000000000000000000000000000000000000016345785d8a00000000000000000000000000000000000000000000000000000000000067d17ce6000000000000000000000000388e360edaac94372df1a2663ffe52671bbd8b58",
        "nonce": "0xe",
        "chainId": "0x3e7"
      },
      "additionalContracts": [],
      "isFixedGasLimit": false
    }
  ],
  "receipts": [
    {
      "status": "0x1",
      "cumulativeGasUsed": "0x2108c",
      "logs": [
        {
          "address": "0x5555555555555555555555555555555555555555",
          "topics": [
            "0xe1fffcc4923d04b559f4d29a8bfc6cda04eb5b0d3c460751c2402c5c5cc9109c",
            "0x000000000000000000000000408046f07a009a5be4a8ed3b26a68e382513a492"
          ],
          "data": "0x000000000000000000000000000000000000000000000000016345785d8a0000",
          "blockHash": "0xda165448eb14edd28cb3ce9cbe742beaeecc103996df9be87888fc5695d7a0e6",
          "blockNumber": "0xf3b7a",
          "blockTimestamp": "0x67d17ca4",
          "transactionHash": "0x44891a18d0bb0358ef437bd06ad271828294602ea3c9477fdba2d9e027ff9b0e",
          "transactionIndex": "0x0",
          "logIndex": "0x0",
          "removed": false
        },
        {
          "address": "0x5555555555555555555555555555555555555555",
          "topics": [
            "0x8c5be1e5ebec7d5bd14f71427d1e84f3dd0314c0f7b2291e5b200ac8c7c3b925",
            "0x000000000000000000000000408046f07a009a5be4a8ed3b26a68e382513a492",
            "0x00000000000000000000000066416163b99265d3adc3b54348c1f80ad34a016e"
          ],
          "data": "0x000000000000000000000000000000000000000000000000016345785d8a0000",
          "blockHash": "0xda165448eb14edd28cb3ce9cbe742beaeecc103996df9be87888fc5695d7a0e6",
          "blockNumber": "0xf3b7a",
          "blockTimestamp": "0x67d17ca4",
          "transactionHash": "0x44891a18d0bb0358ef437bd06ad271828294602ea3c9477fdba2d9e027ff9b0e",
          "transactionIndex": "0x0",
          "logIndex": "0x1",
          "removed": false
        },
        {
          "address": "0x66416163b99265d3adc3b54348c1f80ad34a016e",
          "topics": [
            "0xddf252ad1be2c89b69c2b068fc378daa952ba7f163c4a11628f55a4df523b3ef",
            "0x0000000000000000000000000000000000000000000000000000000000000000",
            "0x000000000000000000000000388e360edaac94372df1a2663ffe52671bbd8b58"
          ],
          "data": "0x000000000000000000000000000000000000000000000000016345785d8a0000",
          "blockHash": "0xda165448eb14edd28cb3ce9cbe742beaeecc103996df9be87888fc5695d7a0e6",
          "blockNumber": "0xf3b7a",
          "blockTimestamp": "0x67d17ca4",
          "transactionHash": "0x44891a18d0bb0358ef437bd06ad271828294602ea3c9477fdba2d9e027ff9b0e",
          "transactionIndex": "0x0",
          "logIndex": "0x2",
          "removed": false
        },
        {
          "address": "0x5555555555555555555555555555555555555555",
          "topics": [
            "0xddf252ad1be2c89b69c2b068fc378daa952ba7f163c4a11628f55a4df523b3ef",
            "0x000000000000000000000000408046f07a009a5be4a8ed3b26a68e382513a492",
            "0x0000000000000000000000007d19ee0956c96cf40b91cdd7f058d64d48198c09"
          ],
          "data": "0x000000000000000000000000000000000000000000000000016345785d8a0000",
          "blockHash": "0xda165448eb14edd28cb3ce9cbe742beaeecc103996df9be87888fc5695d7a0e6",
          "blockNumber": "0xf3b7a",
          "blockTimestamp": "0x67d17ca4",
          "transactionHash": "0x44891a18d0bb0358ef437bd06ad271828294602ea3c9477fdba2d9e027ff9b0e",
          "transactionIndex": "0x0",
          "logIndex": "0x3",
          "removed": false
        },
        {
          "address": "0x7d19ee0956c96cf40b91cdd7f058d64d48198c09",
          "topics": [
            "0x5b479c5a76f3eddfff87849b354aee2a3fbdafd3c2c1a95561143bd2ec1f1e64"
          ],
          "data": "0x0000000000000000000000000000000000000000000000000000000000000000000000000000000000000000000000000000000000000000016345785d8a0000",
          "blockHash": "0xda165448eb14edd28cb3ce9cbe742beaeecc103996df9be87888fc5695d7a0e6",
          "blockNumber": "0xf3b7a",
          "blockTimestamp": "0x67d17ca4",
          "transactionHash": "0x44891a18d0bb0358ef437bd06ad271828294602ea3c9477fdba2d9e027ff9b0e",
          "transactionIndex": "0x0",
          "logIndex": "0x4",
          "removed": false
        },
        {
          "address": "0x66416163b99265d3adc3b54348c1f80ad34a016e",
          "topics": [
            "0xdcbc1c05240f31ff3ad067ef1ee35ce4997762752e3a095284754544f4c709d7",
            "0x000000000000000000000000408046f07a009a5be4a8ed3b26a68e382513a492",
            "0x000000000000000000000000388e360edaac94372df1a2663ffe52671bbd8b58"
          ],
          "data": "0x000000000000000000000000000000000000000000000000016345785d8a0000000000000000000000000000000000000000000000000000016345785d8a0000",
          "blockHash": "0xda165448eb14edd28cb3ce9cbe742beaeecc103996df9be87888fc5695d7a0e6",
          "blockNumber": "0xf3b7a",
          "blockTimestamp": "0x67d17ca4",
          "transactionHash": "0x44891a18d0bb0358ef437bd06ad271828294602ea3c9477fdba2d9e027ff9b0e",
          "transactionIndex": "0x0",
          "logIndex": "0x5",
          "removed": false
        }
      ],
      "logsBloom": "0x0000001000000008000000000000001000000000000000000000008000000000000000000000000000000010000000100000000000400000000000000020000000000040010000000200000800000000000000000000000000000000800000020000000002000000000000000000080000000000000400000a000010000000000000010000000000080000000200000000000001000000000000000000000000020000000000000000000000000000000000000000000000000000000000000000000002000040010000000000400000000000000008000002000000000020000010000100080000000000000000400000000000400200400000000000000000",
      "type": "0x2",
      "transactionHash": "0x44891a18d0bb0358ef437bd06ad271828294602ea3c9477fdba2d9e027ff9b0e",
      "transactionIndex": "0x0",
      "blockHash": "0xda165448eb14edd28cb3ce9cbe742beaeecc103996df9be87888fc5695d7a0e6",
      "blockNumber": "0xf3b7a",
      "gasUsed": "0x2108c",
      "effectiveGasPrice": "0x5f5e101",
      "from": "0x388e360edaac94372df1a2663ffe52671bbd8b58",
      "to": "0x408046f07a009a5be4a8ed3b26a68e382513a492",
      "contractAddress": null
    }
  ],
  "libraries": [],
  "pending": [],
  "returns": {},
  "timestamp": 1741782180,
  "chain": 999,
  "commit": "1422f8b"
}