{
  "transactions": [
    {
      "hash": "0xc9eca36a2a837ade87c6b3c7cea028d9f9fed2631b68d9e5e15d07e7e645d4f1",
      "transactionType": "CALL",
      "contractName": null,
      "contractAddress": "0xf25d259c16d986956bc5edcbffcbc6503440b545",
      "function": "depositFromNative(uint256,uint256,address)",
      "arguments": [
        "299999999999999000",
        "1742925764",
        "0x388E360eDaaC94372df1a2663FFe52671bbd8B58"
      ],
      "transaction": {
        "from": "0x388e360edaac94372df1a2663ffe52671bbd8b58",
        "to": "0xf25d259c16d986956bc5edcbffcbc6503440b545",
        "gas": "0x3d9f0",
        "value": "0x429d069189e0000",
        "input": "0x8b5fa09a0000000000000000000000000000000000000000000000000429d069189dfc180000000000000000000000000000000000000000000000000000000067e2efc4000000000000000000000000388e360edaac94372df1a2663ffe52671bbd8b58",
        "nonce": "0x50",
        "chainId": "0x3e7"
      },
      "additionalContracts": [],
      "isFixedGasLimit": false
    }
  ],
  "receipts": [
    {
      "status": "0x1",
      "cumulativeGasUsed": "0xa886a",
      "logs": [
        {
          "address": "0x5555555555555555555555555555555555555555",
          "topics": [
            "0xe1fffcc4923d04b559f4d29a8bfc6cda04eb5b0d3c460751c2402c5c5cc9109c",
            "0x000000000000000000000000f25d259c16d986956bc5edcbffcbc6503440b545"
          ],
          "data": "0x0000000000000000000000000000000000000000000000000429d069189e0000",
          "blockHash": "0xab7a9a87057367b209fcd81ba292c64e144d1ce4cd81beb5aece729834d11850",
          "blockNumber": "0x183eb0",
          "blockTimestamp": "0x67e2ef5c",
          "transactionHash": "0xc9eca36a2a837ade87c6b3c7cea028d9f9fed2631b68d9e5e15d07e7e645d4f1",
          "transactionIndex": "0x2",
          "logIndex": "0x1",
          "removed": false
        },
        {
          "address": "0x5555555555555555555555555555555555555555",
          "topics": [
            "0x8c5be1e5ebec7d5bd14f71427d1e84f3dd0314c0f7b2291e5b200ac8c7c3b925",
            "0x000000000000000000000000f25d259c16d986956bc5edcbffcbc6503440b545",
            "0x00000000000000000000000045f2b4a4ca043f44f468c126a03332d202626c7a"
          ],
          "data": "0x0000000000000000000000000000000000000000000000000429d069189e0000",
          "blockHash": "0xab7a9a87057367b209fcd81ba292c64e144d1ce4cd81beb5aece729834d11850",
          "blockNumber": "0x183eb0",
          "blockTimestamp": "0x67e2ef5c",
          "transactionHash": "0xc9eca36a2a837ade87c6b3c7cea028d9f9fed2631b68d9e5e15d07e7e645d4f1",
          "transactionIndex": "0x2",
          "logIndex": "0x2",
          "removed": false
        },
        {
          "address": "0x45f2b4a4ca043f44f468c126a03332d202626c7a",
          "topics": [
            "0xddf252ad1be2c89b69c2b068fc378daa952ba7f163c4a11628f55a4df523b3ef",
            "0x0000000000000000000000000000000000000000000000000000000000000000",
            "0x0000000000000000000000000000000000000000000000000000000000000001"
          ],
          "data": "0x00000000000000000000000000000000000000000000000000000000000003e8",
          "blockHash": "0xab7a9a87057367b209fcd81ba292c64e144d1ce4cd81beb5aece729834d11850",
          "blockNumber": "0x183eb0",
          "blockTimestamp": "0x67e2ef5c",
          "transactionHash": "0xc9eca36a2a837ade87c6b3c7cea028d9f9fed2631b68d9e5e15d07e7e645d4f1",
          "transactionIndex": "0x2",
          "logIndex": "0x3",
          "removed": false
        },
        {
          "address": "0x45f2b4a4ca043f44f468c126a03332d202626c7a",
          "topics": [
            "0xddf252ad1be2c89b69c2b068fc378daa952ba7f163c4a11628f55a4df523b3ef",
            "0x0000000000000000000000000000000000000000000000000000000000000000",
            "0x000000000000000000000000388e360edaac94372df1a2663ffe52671bbd8b58"
          ],
          "data": "0x0000000000000000000000000000000000000000000000000429d069189dfc18",
          "blockHash": "0xab7a9a87057367b209fcd81ba292c64e144d1ce4cd81beb5aece729834d11850",
          "blockNumber": "0x183eb0",
          "blockTimestamp": "0x67e2ef5c",
          "transactionHash": "0xc9eca36a2a837ade87c6b3c7cea028d9f9fed2631b68d9e5e15d07e7e645d4f1",
          "transactionIndex": "0x2",
          "logIndex": "0x4",
          "removed": false
        },
        {
          "address": "0x5555555555555555555555555555555555555555",
          "topics": [
            "0xddf252ad1be2c89b69c2b068fc378daa952ba7f163c4a11628f55a4df523b3ef",
            "0x000000000000000000000000f25d259c16d986956bc5edcbffcbc6503440b545",
            "0x0000000000000000000000000a6d20adb8f8c78fdde4d55d73bcd6981e929fa0"
          ],
          "data": "0x0000000000000000000000000000000000000000000000000429d069189e0000",
          "blockHash": "0xab7a9a87057367b209fcd81ba292c64e144d1ce4cd81beb5aece729834d11850",
          "blockNumber": "0x183eb0",
          "blockTimestamp": "0x67e2ef5c",
          "transactionHash": "0xc9eca36a2a837ade87c6b3c7cea028d9f9fed2631b68d9e5e15d07e7e645d4f1",
          "transactionIndex": "0x2",
          "logIndex": "0x5",
          "removed": false
        },
        {
          "address": "0x0a6d20adb8f8c78fdde4d55d73bcd6981e929fa0",
          "topics": [
            "0x5b479c5a76f3eddfff87849b354aee2a3fbdafd3c2c1a95561143bd2ec1f1e64"
          ],
          "data": "0x00000000000000000000000000000000000000000000000000000000000000000000000000000000000000000000000000000000000000000429d069189e0000",
          "blockHash": "0xab7a9a87057367b209fcd81ba292c64e144d1ce4cd81beb5aece729834d11850",
          "blockNumber": "0x183eb0",
          "blockTimestamp": "0x67e2ef5c",
          "transactionHash": "0xc9eca36a2a837ade87c6b3c7cea028d9f9fed2631b68d9e5e15d07e7e645d4f1",
          "transactionIndex": "0x2",
          "logIndex": "0x6",
          "removed": false
        },
        {
          "address": "0x45f2b4a4ca043f44f468c126a03332d202626c7a",
          "topics": [
            "0xdcbc1c05240f31ff3ad067ef1ee35ce4997762752e3a095284754544f4c709d7",
            "0x000000000000000000000000f25d259c16d986956bc5edcbffcbc6503440b545",
            "0x000000000000000000000000388e360edaac94372df1a2663ffe52671bbd8b58"
          ],
          "data": "0x0000000000000000000000000000000000000000000000000429d069189e00000000000000000000000000000000000000000000000000000429d069189dfc18",
          "blockHash": "0xab7a9a87057367b209fcd81ba292c64e144d1ce4cd81beb5aece729834d11850",
          "blockNumber": "0x183eb0",
          "blockTimestamp": "0x67e2ef5c",
          "transactionHash": "0xc9eca36a2a837ade87c6b3c7cea028d9f9fed2631b68d9e5e15d07e7e645d4f1",
          "transactionIndex": "0x2",
          "logIndex": "0x7",
          "removed": false
        }
      ],
      "logsBloom": "0x00000010000000000000000004000010000000000000000000000040000000000000000000020000000000100000001000000000004000000000400000240000040000400000000000000008000000000000000000040000000000008000000200000000020000000000008000000800000000000004000008000010000000000004020000040000080000000000000000000001000000000000004000000000020000000000000000000000000000000000000000000000000000000000000000000002000000000000010000001000000000000008000000000000400060000010000000080000020000000004000000000000000000400000000000000000",
      "type": "0x2",
      "transactionHash": "0xc9eca36a2a837ade87c6b3c7cea028d9f9fed2631b68d9e5e15d07e7e645d4f1",
      "transactionIndex": "0x2",
      "blockHash": "0xab7a9a87057367b209fcd81ba292c64e144d1ce4cd81beb5aece729834d11850",
      "blockNumber": "0x183eb0",
      "gasUsed": "0x2c9ce",
      "effectiveGasPrice": "0x5f5e101",
      "from": "0x388e360edaac94372df1a2663ffe52671bbd8b58",
      "to": "0xf25d259c16d986956bc5edcbffcbc6503440b545",
      "contractAddress": null
    }
  ],
  "libraries": [],
  "pending": [],
  "returns": {},
  "timestamp": 1742925660,
  "chain": 999,
  "commit": "a3d86bb"
}