{
  "transactions": [
    {
      "hash": "0x8cfbcda4d9d522638023644da95692bf92e79813ad5f06cfd3daca88a2a17542",
      "transactionType": "CALL",
      "contractName": null,
      "contractAddress": "0xe20725bea0af2b125fe21882385275cdbfa94298",
      "function": "withdraw(uint256,uint256,uint256,uint256,address,bool,bool)",
      "arguments": [
        "618568473225816367",
        "0",
        "621755361917739767",
        "1743599402",
        "0x388E360eDaaC94372df1a2663FFe52671bbd8B58",
        "true",
        "true"
      ],
      "transaction": {
        "from": "0x388e360edaac94372df1a2663ffe52671bbd8b58",
        "to": "0xe20725bea0af2b125fe21882385275cdbfa94298",
        "gas": "0x2d36b",
        "value": "0x0",
        "input": "0x58eea9dd000000000000000000000000000000000000000000000000089598bfc3e1692f000000000000000000000000000000000000000000000000000000000000000000000000000000000000000000000000000000000000000008a0eb351c4d22f70000000000000000000000000000000000000000000000000000000067ed372a000000000000000000000000388e360edaac94372df1a2663ffe52671bbd8b5800000000000000000000000000000000000000000000000000000000000000010000000000000000000000000000000000000000000000000000000000000001",
        "nonce": "0xb5",
        "chainId": "0x3e7"
      },
      "additionalContracts": [],
      "isFixedGasLimit": false
    }
  ],
  "receipts": [
    {
      "status": "0x1",
      "cumulativeGasUsed": "0x20bbf",
      "logs": [
        {
          "address": "0xe20725bea0af2b125fe21882385275cdbfa94298",
          "topics": [
            "0xddf252ad1be2c89b69c2b068fc378daa952ba7f163c4a11628f55a4df523b3ef",
            "0x000000000000000000000000388e360edaac94372df1a2663ffe52671bbd8b58",
            "0x0000000000000000000000000000000000000000000000000000000000000000"
          ],
          "data": "0x000000000000000000000000000000000000000000000000089598bfc3e1692f",
          "blockHash": "0x731e4fb93ad335470c28e1fce6ac016f47367a8a5e44b597392fbe713b05125f",
          "blockNumber": "0x1d8dec",
          "blockTimestamp": "0x67ed36ec",
          "transactionHash": "0x8cfbcda4d9d522638023644da95692bf92e79813ad5f06cfd3daca88a2a17542",
          "transactionIndex": "0x0",
          "logIndex": "0x0",
          "removed": false
        },
        {
          "address": "0x5555555555555555555555555555555555555555",
          "topics": [
            "0xddf252ad1be2c89b69c2b068fc378daa952ba7f163c4a11628f55a4df523b3ef",
            "0x000000000000000000000000ef340ba1e70510739f0e82e0c9511497182fbe86",
            "0x000000000000000000000000e20725bea0af2b125fe21882385275cdbfa94298"
          ],
          "data": "0x00000000000000000000000000000000000000000000000008a0eb351c4d22f7",
          "blockHash": "0x731e4fb93ad335470c28e1fce6ac016f47367a8a5e44b597392fbe713b05125f",
          "blockNumber": "0x1d8dec",
          "blockTimestamp": "0x67ed36ec",
          "transactionHash": "0x8cfbcda4d9d522638023644da95692bf92e79813ad5f06cfd3daca88a2a17542",
          "transactionIndex": "0x0",
          "logIndex": "0x1",
          "removed": false
        },
        {
          "address": "0xef340ba1e70510739f0e82e0c9511497182fbe86",
          "topics": [
            "0xac927268ea9ae2e55027e6ab727fc2db8e3ea48c56c658223a1074567e4298c0",
            "0x000000000000000000000000e20725bea0af2b125fe21882385275cdbfa94298"
          ],
          "data": "0x000000000000000000000000000000000000000000000000000000000000000000000000000000000000000000000000000000000000000008a0eb351c4d22f7",
          "blockHash": "0x731e4fb93ad335470c28e1fce6ac016f47367a8a5e44b597392fbe713b05125f",
          "blockNumber": "0x1d8dec",
          "blockTimestamp": "0x67ed36ec",
          "transactionHash": "0x8cfbcda4d9d522638023644da95692bf92e79813ad5f06cfd3daca88a2a17542",
          "transactionIndex": "0x0",
          "logIndex": "0x2",
          "removed": false
        },
        {
          "address": "0x5555555555555555555555555555555555555555",
          "topics": [
            "0x7fcf532c15f0a6db0bd6d0e038bea71d30d808c7d98cb3bf7268a95bf5081b65",
            "0x000000000000000000000000e20725bea0af2b125fe21882385275cdbfa94298"
          ],
          "data": "0x00000000000000000000000000000000000000000000000008a0eb351c4d22f7",
          "blockHash": "0x731e4fb93ad335470c28e1fce6ac016f47367a8a5e44b597392fbe713b05125f",
          "blockNumber": "0x1d8dec",
          "blockTimestamp": "0x67ed36ec",
          "transactionHash": "0x8cfbcda4d9d522638023644da95692bf92e79813ad5f06cfd3daca88a2a17542",
          "transactionIndex": "0x0",
          "logIndex": "0x3",
          "removed": false
        },
        {
          "address": "0xe20725bea0af2b125fe21882385275cdbfa94298",
          "topics": [
            "0xebff2602b3f468259e1e99f613fed6691f3a6526effe6ef3e768ba7ae7a36c4f",
            "0x000000000000000000000000388e360edaac94372df1a2663ffe52671bbd8b58",
            "0x000000000000000000000000388e360edaac94372df1a2663ffe52671bbd8b58"
          ],
          "data": "0x000000000000000000000000000000000000000000000000000000000000000000000000000000000000000000000000000000000000000008a0eb351c4d22f7000000000000000000000000000000000000000000000000089598bfc3e1692f",
          "blockHash": "0x731e4fb93ad335470c28e1fce6ac016f47367a8a5e44b597392fbe713b05125f",
          "blockNumber": "0x1d8dec",
          "blockTimestamp": "0x67ed36ec",
          "transactionHash": "0x8cfbcda4d9d522638023644da95692bf92e79813ad5f06cfd3daca88a2a17542",
          "transactionIndex": "0x0",
          "logIndex": "0x4",
          "removed": false
        }
      ],
      "logsBloom": "0x00000000000000000000000000000000000000000000000000001000000000000000000000000000000010500000000000000000004000000000000000000000000000000000000000000008000000000000000008400000000000000000000200000000028000010000000000000800000000000000040008000010001000000000000000000000080000000000000000020000000000000004000040004000000000000000000000000000000000000000000000000000000000000801000000000002000000000000002000000000000000000000000000000002200030000000004000880000000000000000000000000000000000000000000000000000",
      "type": "0x2",
      "transactionHash": "0x8cfbcda4d9d522638023644da95692bf92e79813ad5f06cfd3daca88a2a17542",
      "transactionIndex": "0x0",
      "blockHash": "0x731e4fb93ad335470c28e1fce6ac016f47367a8a5e44b597392fbe713b05125f",
      "blockNumber": "0x1d8dec",
      "gasUsed": "0x20bbf",
      "effectiveGasPrice": "0x6460d14",
      "from": "0x388e360edaac94372df1a2663ffe52671bbd8b58",
      "to": "0xe20725bea0af2b125fe21882385275cdbfa94298",
      "contractAddress": null
    }
  ],
  "libraries": [],
  "pending": [],
  "returns": {},
  "timestamp": 1743599341,
  "chain": 999,
  "commit": "0f08994"
}