{
  "transactions": [
    {
      "hash": "0x7b46f0becc1b1a2a45ee056db9da53c81e85869e0840750e276407acc9628aa2",
      "transactionType": "CALL",
      "contractName": null,
      "contractAddress": "0xa731b781228553be3166ce4c7a63b2f40b1df956",
      "function": "depositFromNative(uint256,uint256,address)",
      "arguments": [
        "199979999999999000",
        "1743438928",
        "0x388E360eDaaC94372df1a2663FFe52671bbd8B58"
      ],
      "transaction": {
        "from": "0x388e360edaac94372df1a2663ffe52671bbd8b58",
        "to": "0xa731b781228553be3166ce4c7a63b2f40b1df956",
        "gas": "0x451fc",
        "value": "0x2c68af0bb140000",
        "input": "0x8b5fa09a00000000000000000000000000000000000000000000000002c678c01e2ebc180000000000000000000000000000000000000000000000000000000067eac450000000000000000000000000388e360edaac94372df1a2663ffe52671bbd8b58",
        "nonce": "0x9b",
        "chainId": "0x3e7"
      },
      "additionalContracts": [],
      "isFixedGasLimit": false
    }
  ],
  "receipts": [
    {
      "status": "0x1",
      "cumulativeGasUsed": "0x2f43b",
      "logs": [
        {
          "address": "0x5555555555555555555555555555555555555555",
          "topics": [
            "0xe1fffcc4923d04b559f4d29a8bfc6cda04eb5b0d3c460751c2402c5c5cc9109c",
            "0x000000000000000000000000a731b781228553be3166ce4c7a63b2f40b1df956"
          ],
          "data": "0x00000000000000000000000000000000000000000000000002c68af0bb140000",
          "blockHash": "0x73929c5aa01f842a25dda3f8e8ccecdf15e4d1177d3a57c806f56dcbda6287ce",
          "blockNumber": "0x1c49fa",
          "blockTimestamp": "0x67eac3f0",
          "transactionHash": "0x7b46f0becc1b1a2a45ee056db9da53c81e85869e0840750e276407acc9628aa2",
          "transactionIndex": "0x0",
          "logIndex": "0x0",
          "removed": false
        },
        {
          "address": "0x5555555555555555555555555555555555555555",
          "topics": [
            "0x8c5be1e5ebec7d5bd14f71427d1e84f3dd0314c0f7b2291e5b200ac8c7c3b925",
            "0x000000000000000000000000a731b781228553be3166ce4c7a63b2f40b1df956",
            "0x000000000000000000000000e20725bea0af2b125fe21882385275cdbfa94298"
          ],
          "data": "0x00000000000000000000000000000000000000000000000002c68af0bb140000",
          "blockHash": "0x73929c5aa01f842a25dda3f8e8ccecdf15e4d1177d3a57c806f56dcbda6287ce",
          "blockNumber": "0x1c49fa",
          "blockTimestamp": "0x67eac3f0",
          "transactionHash": "0x7b46f0becc1b1a2a45ee056db9da53c81e85869e0840750e276407acc9628aa2",
          "transactionIndex": "0x0",
          "logIndex": "0x1",
          "removed": false
        },
        {
          "address": "0xe20725bea0af2b125fe21882385275cdbfa94298",
          "topics": [
            "0xddf252ad1be2c89b69c2b068fc378daa952ba7f163c4a11628f55a4df523b3ef",
            "0x0000000000000000000000000000000000000000000000000000000000000000",
            "0x0000000000000000000000000000000000000000000000000000000000000001"
          ],
          "data": "0x00000000000000000000000000000000000000000000000000000000000003e8",
          "blockHash": "0x73929c5aa01f842a25dda3f8e8ccecdf15e4d1177d3a57c806f56dcbda6287ce",
          "blockNumber": "0x1c49fa",
          "blockTimestamp": "0x67eac3f0",
          "transactionHash": "0x7b46f0becc1b1a2a45ee056db9da53c81e85869e0840750e276407acc9628aa2",
          "transactionIndex": "0x0",
          "logIndex": "0x2",
          "removed": false
        },
        {
          "address": "0xe20725bea0af2b125fe21882385275cdbfa94298",
          "topics": [
            "0xddf252ad1be2c89b69c2b068fc378daa952ba7f163c4a11628f55a4df523b3ef",
            "0x0000000000000000000000000000000000000000000000000000000000000000",
            "0x000000000000000000000000388e360edaac94372df1a2663ffe52671bbd8b58"
          ],
          "data": "0x00000000000000000000000000000000000000000000000002c68af0bb13fc18",
          "blockHash": "0x73929c5aa01f842a25dda3f8e8ccecdf15e4d1177d3a57c806f56dcbda6287ce",
          "blockNumber": "0x1c49fa",
          "blockTimestamp": "0x67eac3f0",
          "transactionHash": "0x7b46f0becc1b1a2a45ee056db9da53c81e85869e0840750e276407acc9628aa2",
          "transactionIndex": "0x0",
          "logIndex": "0x3",
          "removed": false
        },
        {
          "address": "0x5555555555555555555555555555555555555555",
          "topics": [
            "0xddf252ad1be2c89b69c2b068fc378daa952ba7f163c4a11628f55a4df523b3ef",
            "0x000000000000000000000000a731b781228553be3166ce4c7a63b2f40b1df956",
            "0x000000000000000000000000ef340ba1e70510739f0e82e0c9511497182fbe86"
          ],
          "data": "0x00000000000000000000000000000000000000000000000002c68af0bb140000",
          "blockHash": "0x73929c5aa01f842a25dda3f8e8ccecdf15e4d1177d3a57c806f56dcbda6287ce",
          "blockNumber": "0x1c49fa",
          "blockTimestamp": "0x67eac3f0",
          "transactionHash": "0x7b46f0becc1b1a2a45ee056db9da53c81e85869e0840750e276407acc9628aa2",
          "transactionIndex": "0x0",
          "logIndex": "0x4",
          "removed": false
        },
        {
          "address": "0xef340ba1e70510739f0e82e0c9511497182fbe86",
          "topics": [
            "0x5b479c5a76f3eddfff87849b354aee2a3fbdafd3c2c1a95561143bd2ec1f1e64"
          ],
          "data": "0x000000000000000000000000000000000000000000000000000000000000000000000000000000000000000000000000000000000000000002c68af0bb140000",
          "blockHash": "0x73929c5aa01f842a25dda3f8e8ccecdf15e4d1177d3a57c806f56dcbda6287ce",
          "blockNumber": "0x1c49fa",
          "blockTimestamp": "0x67eac3f0",
          "transactionHash": "0x7b46f0becc1b1a2a45ee056db9da53c81e85869e0840750e276407acc9628aa2",
          "transactionIndex": "0x0",
          "logIndex": "0x5",
          "removed": false
        },
        {
          "address": "0xe20725bea0af2b125fe21882385275cdbfa94298",
          "topics": [
            "0xdcbc1c05240f31ff3ad067ef1ee35ce4997762752e3a095284754544f4c709d7",
            "0x000000000000000000000000a731b781228553be3166ce4c7a63b2f40b1df956",
            "0x000000000000000000000000388e360edaac94372df1a2663ffe52671bbd8b58"
          ],
          "data": "0x00000000000000000000000000000000000000000000000002c68af0bb14000000000000000000000000000000000000000000000000000002c68af0bb13fc18",
          "blockHash": "0x73929c5aa01f842a25dda3f8e8ccecdf15e4d1177d3a57c806f56dcbda6287ce",
          "blockNumber": "0x1c49fa",
          "blockTimestamp": "0x67eac3f0",
          "transactionHash": "0x7b46f0becc1b1a2a45ee056db9da53c81e85869e0840750e276407acc9628aa2",
          "transactionIndex": "0x0",
          "logIndex": "0x6",
          "removed": false
        }
      ],
      "logsBloom": "0x00000010000000000000000000000010000000000000000000001000000000000000000000000000000000100000001000000000004000000000000000240000000000400000000000000018000000000000000000040000000000008000000200000000028000010000000000000800000000000004000008000010000000000000000000000000080000000000000000020001000000000004000040004000020000000000000000000000000000000008000000000000000000100801000000000002000000000000002000000000000000000008000000000000000070000010000000880000000000000000000000000000000000400000000000000000",
      "type": "0x2",
      "transactionHash": "0x7b46f0becc1b1a2a45ee056db9da53c81e85869e0840750e276407acc9628aa2",
      "transactionIndex": "0x0",
      "blockHash": "0x73929c5aa01f842a25dda3f8e8ccecdf15e4d1177d3a57c806f56dcbda6287ce",
      "blockNumber": "0x1c49fa",
      "gasUsed": "0x2f43b",
      "effectiveGasPrice": "0x5f5e101",
      "from": "0x388e360edaac94372df1a2663ffe52671bbd8b58",
      "to": "0xa731b781228553be3166ce4c7a63b2f40b1df956",
      "contractAddress": null
    }
  ],
  "libraries": [],
  "pending": [],
  "returns": {},
  "timestamp": 1743438833,
  "chain": 999,
  "commit": "d975cb6"
}