{
  "transactions": [
    {
      "hash": "0x8aabb879aad25f90cbec56ed31873b44ebc0a44f41de576a351e41e4340c2aae",
      "transactionType": "CALL",
      "contractName": null,
      "contractAddress": "0x66416163b99265d3adc3b54348c1f80ad34a016e",
      "function": "withdraw(uint256,uint256,uint256,uint256,address,bool,bool)",
      "arguments": [
        "1000000",
        "0",
        "1000000",
        "1741782682",
        "0x388E360eDaaC94372df1a2663FFe52671bbd8B58",
        "true",
        "false"
      ],
      "transaction": {
        "from": "0x388e360edaac94372df1a2663ffe52671bbd8b58",
        "to": "0x66416163b99265d3adc3b54348c1f80ad34a016e",
        "gas": "0x28fb1",
        "value": "0x0",
        "input": "0x58eea9dd00000000000000000000000000000000000000000000000000000000000f4240000000000000000000000000000000000000000000000000000000000000000000000000000000000000000000000000000000000000000000000000000f42400000000000000000000000000000000000000000000000000000000067d17e9a000000000000000000000000388e360edaac94372df1a2663ffe52671bbd8b5800000000000000000000000000000000000000000000000000000000000000010000000000000000000000000000000000000000000000000000000000000000",
        "nonce": "0xf",
        "chainId": "0x3e7"
      },
      "additionalContracts": [],
      "isFixedGasLimit": false
    }
  ],
  "receipts": [
    {
      "status": "0x1",
      "cumulativeGasUsed": "0x1dab6",
      "logs": [
        {
          "address": "0x66416163b99265d3adc3b54348c1f80ad34a016e",
          "topics": [
            "0xddf252ad1be2c89b69c2b068fc378daa952ba7f163c4a11628f55a4df523b3ef",
            "0x000000000000000000000000388e360edaac94372df1a2663ffe52671bbd8b58",
            "0x0000000000000000000000000000000000000000000000000000000000000000"
          ],
          "data": "0x00000000000000000000000000000000000000000000000000000000000f4240",
          "blockHash": "0xbdfe39b958f6f64012300389d47e7a8c5793c06c9d3941e9261a3eb46de6aa01",
          "blockNumber": "0xf3c53",
          "blockTimestamp": "0x67d17e48",
          "transactionHash": "0x8aabb879aad25f90cbec56ed31873b44ebc0a44f41de576a351e41e4340c2aae",
          "transactionIndex": "0x0",
          "logIndex": "0x0",
          "removed": false
        },
        {
          "address": "0x5555555555555555555555555555555555555555",
          "topics": [
            "0xddf252ad1be2c89b69c2b068fc378daa952ba7f163c4a11628f55a4df523b3ef",
            "0x0000000000000000000000007d19ee0956c96cf40b91cdd7f058d64d48198c09",
            "0x00000000000000000000000066416163b99265d3adc3b54348c1f80ad34a016e"
          ],
          "data": "0x00000000000000000000000000000000000000000000000000000000000f4240",
          "blockHash": "0xbdfe39b958f6f64012300389d47e7a8c5793c06c9d3941e9261a3eb46de6aa01",
          "blockNumber": "0xf3c53",
          "blockTimestamp": "0x67d17e48",
          "transactionHash": "0x8aabb879aad25f90cbec56ed31873b44ebc0a44f41de576a351e41e4340c2aae",
          "transactionIndex": "0x0",
          "logIndex": "0x1",
          "removed": false
        },
        {
          "address": "0x7d19ee0956c96cf40b91cdd7f058d64d48198c09",
          "topics": [
            "0xac927268ea9ae2e55027e6ab727fc2db8e3ea48c56c658223a1074567e4298c0",
            "0x00000000000000000000000066416163b99265d3adc3b54348c1f80ad34a016e"
          ],
          "data": "0x000000000000000000000000000000000000000000000000000000000000000000000000000000000000000000000000000000000000000000000000000f4240",
          "blockHash": "0xbdfe39b958f6f64012300389d47e7a8c5793c06c9d3941e9261a3eb46de6aa01",
          "blockNumber": "0xf3c53",
          "blockTimestamp": "0x67d17e48",
          "transactionHash": "0x8aabb879aad25f90cbec56ed31873b44ebc0a44f41de576a351e41e4340c2aae",
          "transactionIndex": "0x0",
          "logIndex": "0x2",
          "removed": false
        },
        {
          "address": "0x5555555555555555555555555555555555555555",
          "topics": [
            "0x7fcf532c15f0a6db0bd6d0e038bea71d30d808c7d98cb3bf7268a95bf5081b65",
            "0x00000000000000000000000066416163b99265d3adc3b54348c1f80ad34a016e"
          ],
          "data": "0x00000000000000000000000000000000000000000000000000000000000f4240",
          "blockHash": "0xbdfe39b958f6f64012300389d47e7a8c5793c06c9d3941e9261a3eb46de6aa01",
          "blockNumber": "0xf3c53",
          "blockTimestamp": "0x67d17e48",
          "transactionHash": "0x8aabb879aad25f90cbec56ed31873b44ebc0a44f41de576a351e41e4340c2aae",
          "transactionIndex": "0x0",
          "logIndex": "0x3",
          "removed": false
        },
        {
          "address": "0x66416163b99265d3adc3b54348c1f80ad34a016e",
          "topics": [
            "0xebff2602b3f468259e1e99f613fed6691f3a6526effe6ef3e768ba7ae7a36c4f",
            "0x000000000000000000000000388e360edaac94372df1a2663ffe52671bbd8b58",
            "0x000000000000000000000000388e360edaac94372df1a2663ffe52671bbd8b58"
          ],
          "data": "0x000000000000000000000000000000000000000000000000000000000000000000000000000000000000000000000000000000000000000000000000000f424000000000000000000000000000000000000000000000000000000000000f4240",
          "blockHash": "0xbdfe39b958f6f64012300389d47e7a8c5793c06c9d3941e9261a3eb46de6aa01",
          "blockNumber": "0xf3c53",
          "blockTimestamp": "0x67d17e48",
          "transactionHash": "0x8aabb879aad25f90cbec56ed31873b44ebc0a44f41de576a351e41e4340c2aae",
          "transactionIndex": "0x0",
          "logIndex": "0x4",
          "removed": false
        }
      ],
      "logsBloom": "0x00000000000000080000000000000000000000000000000000000080000000000000000000000000000010500000000000000000004000000000000000000000000000000100000002000008000000000000000008400000000000000000000200000000020000000000000000000800000000000000040008000010001000000000010000000000080000000000000000000000000000000000000000000000000000000000000000000000000000000000000000000000000000000000000000000002000040010000000000400000000000000000000002000002200020000000004100080000000000000000400000000000000200000000000000000000",
      "type": "0x2",
      "transactionHash": "0x8aabb879aad25f90cbec56ed31873b44ebc0a44f41de576a351e41e4340c2aae",
      "transactionIndex": "0x0",
      "blockHash": "0xbdfe39b958f6f64012300389d47e7a8c5793c06c9d3941e9261a3eb46de6aa01",
      "blockNumber": "0xf3c53",
      "gasUsed": "0x1dab6",
      "effectiveGasPrice": "0x5f5e101",
      "from": "0x388e360edaac94372df1a2663ffe52671bbd8b58",
      "to": "0x66416163b99265d3adc3b54348c1f80ad34a016e",
      "contractAddress": null
    }
  ],
  "libraries": [],
  "pending": [],
  "returns": {},
  "timestamp": 1741782601,
  "chain": 999,
  "commit": "1422f8b"
}