{
  "transactions": [
    {
      "hash": "0x80d87be9e7be200949884436c9257f7474f6e60c3e0660f142edccdf1643f7a6",
      "transactionType": "CALL",
      "contractName": null,
      "contractAddress": "0x45f2b4a4ca043f44f468c126a03332d202626c7a",
      "function": "withdraw(uint256,uint256,uint256,uint256,address,bool,bool)",
      "arguments": [
        "10000000000000000",
        "0",
        "10000000000000000",
        "1742925864",
        "0x388E360eDaaC94372df1a2663FFe52671bbd8B58",
        "true",
        "true"
      ],
      "transaction": {
        "from": "0x388e360edaac94372df1a2663ffe52671bbd8b58",
        "to": "0x45f2b4a4ca043f44f468c126a03332d202626c7a",
        "gas": "0x2cc5b",
        "value": "0x0",
        "input": "0x58eea9dd000000000000000000000000000000000000000000000000002386f26fc100000000000000000000000000000000000000000000000000000000000000000000000000000000000000000000000000000000000000000000002386f26fc100000000000000000000000000000000000000000000000000000000000067e2f028000000000000000000000000388e360edaac94372df1a2663ffe52671bbd8b5800000000000000000000000000000000000000000000000000000000000000010000000000000000000000000000000000000000000000000000000000000001",
        "nonce": "0x51",
        "chainId": "0x3e7"
      },
      "additionalContracts": [],
      "isFixedGasLimit": false
    }
  ],
  "receipts": [
    {
      "status": "0x1",
      "cumulativeGasUsed": "0x82d1d",
      "logs": [
        {
          "address": "0x45f2b4a4ca043f44f468c126a03332d202626c7a",
          "topics": [
            "0xddf252ad1be2c89b69c2b068fc378daa952ba7f163c4a11628f55a4df523b3ef",
            "0x000000000000000000000000388e360edaac94372df1a2663ffe52671bbd8b58",
            "0x0000000000000000000000000000000000000000000000000000000000000000"
          ],
          "data": "0x000000000000000000000000000000000000000000000000002386f26fc10000",
          "blockHash": "0x3e6b89aa82c218942e3d7269e3540abcc5a94e6e49f656ff919d4b070bb642b3",
          "blockNumber": "0x183eee",
          "blockTimestamp": "0x67e2efd4",
          "transactionHash": "0x80d87be9e7be200949884436c9257f7474f6e60c3e0660f142edccdf1643f7a6",
          "transactionIndex": "0x3",
          "logIndex": "0x6",
          "removed": false
        },
        {
          "address": "0x5555555555555555555555555555555555555555",
          "topics": [
            "0xddf252ad1be2c89b69c2b068fc378daa952ba7f163c4a11628f55a4df523b3ef",
            "0x0000000000000000000000000a6d20adb8f8c78fdde4d55d73bcd6981e929fa0",
            "0x00000000000000000000000045f2b4a4ca043f44f468c126a03332d202626c7a"
          ],
          "data": "0x000000000000000000000000000000000000000000000000002386f26fc10000",
          "blockHash": "0x3e6b89aa82c218942e3d7269e3540abcc5a94e6e49f656ff919d4b070bb642b3",
          "blockNumber": "0x183eee",
          "blockTimestamp": "0x67e2efd4",
          "transactionHash": "0x80d87be9e7be200949884436c9257f7474f6e60c3e0660f142edccdf1643f7a6",
          "transactionIndex": "0x3",
          "logIndex": "0x7",
          "removed": false
        },
        {
          "address": "0x0a6d20adb8f8c78fdde4d55d73bcd6981e929fa0",
          "topics": [
            "0xac927268ea9ae2e55027e6ab727fc2db8e3ea48c56c658223a1074567e4298c0",
            "0x00000000000000000000000045f2b4a4ca043f44f468c126a03332d202626c7a"
          ],
          "data": "0x0000000000000000000000000000000000000000000000000000000000000000000000000000000000000000000000000000000000000000002386f26fc10000",
          "blockHash": "0x3e6b89aa82c218942e3d7269e3540abcc5a94e6e49f656ff919d4b070bb642b3",
          "blockNumber": "0x183eee",
          "blockTimestamp": "0x67e2efd4",
          "transactionHash": "0x80d87be9e7be200949884436c9257f7474f6e60c3e0660f142edccdf1643f7a6",
          "transactionIndex": "0x3",
          "logIndex": "0x8",
          "removed": false
        },
        {
          "address": "0x5555555555555555555555555555555555555555",
          "topics": [
            "0x7fcf532c15f0a6db0bd6d0e038bea71d30d808c7d98cb3bf7268a95bf5081b65",
            "0x00000000000000000000000045f2b4a4ca043f44f468c126a03332d202626c7a"
          ],
          "data": "0x000000000000000000000000000000000000000000000000002386f26fc10000",
          "blockHash": "0x3e6b89aa82c218942e3d7269e3540abcc5a94e6e49f656ff919d4b070bb642b3",
          "blockNumber": "0x183eee",
          "blockTimestamp": "0x67e2efd4",
          "transactionHash": "0x80d87be9e7be200949884436c9257f7474f6e60c3e0660f142edccdf1643f7a6",
          "transactionIndex": "0x3",
          "logIndex": "0x9",
          "removed": false
        },
        {
          "address": "0x45f2b4a4ca043f44f468c126a03332d202626c7a",
          "topics": [
            "0xebff2602b3f468259e1e99f613fed6691f3a6526effe6ef3e768ba7ae7a36c4f",
            "0x000000000000000000000000388e360edaac94372df1a2663ffe52671bbd8b58",
            "0x000000000000000000000000388e360edaac94372df1a2663ffe52671bbd8b58"
          ],
          "data": "0x0000000000000000000000000000000000000000000000000000000000000000000000000000000000000000000000000000000000000000002386f26fc10000000000000000000000000000000000000000000000000000002386f26fc10000",
          "blockHash": "0x3e6b89aa82c218942e3d7269e3540abcc5a94e6e49f656ff919d4b070bb642b3",
          "blockNumber": "0x183eee",
          "blockTimestamp": "0x67e2efd4",
          "transactionHash": "0x80d87be9e7be200949884436c9257f7474f6e60c3e0660f142edccdf1643f7a6",
          "transactionIndex": "0x3",
          "logIndex": "0xa",
          "removed": false
        }
      ],
      "logsBloom": "0x00000000000000000000000000000000000000000000000000000040000000000000000000020000000010500000000000000000004000000000400000000000040000000000000000000008000000000000000008400000000000000000000200000000020000000000008000000800000000000000040008000010001000000004000000040000080000000000000000000000000000000000004000000000000000000000000000000000000000000000000000000000000000000000000000000002000000000000010000001000000000000000000000000002200020000000004000080000020000000004000000000000000000000000000000000000",
      "type": "0x2",
      "transactionHash": "0x80d87be9e7be200949884436c9257f7474f6e60c3e0660f142edccdf1643f7a6",
      "transactionIndex": "0x3",
      "blockHash": "0x3e6b89aa82c218942e3d7269e3540abcc5a94e6e49f656ff919d4b070bb642b3",
      "blockNumber": "0x183eee",
      "gasUsed": "0x1e9d1",
      "effectiveGasPrice": "0x5f5e101",
      "from": "0x388e360edaac94372df1a2663ffe52671bbd8b58",
      "to": "0x45f2b4a4ca043f44f468c126a03332d202626c7a",
      "contractAddress": null
    }
  ],
  "libraries": [],
  "pending": [],
  "returns": {},
  "timestamp": 1742925780,
  "chain": 999,
  "commit": "a3d86bb"
}