{
  "transactions": [
    {
      "hash": "0xf1f74dfc4cf73b7c7d03c332ed529af72754d516f213f940947668c859378d37",
      "transactionType": "CALL",
      "contractName": null,
      "contractAddress": "0xf25d259c16d986956bc5edcbffcbc6503440b545",
      "function": "depositFromNative(uint256,uint256,address)",
      "arguments": [
        "199945493020855388",
        "1742927582",
        "0x388E360eDaaC94372df1a2663FFe52671bbd8B58"
      ],
      "transaction": {
        "from": "0x388e360edaac94372df1a2663ffe52671bbd8b58",
        "to": "0xf25d259c16d986956bc5edcbffcbc6503440b545",
        "gas": "0x2f172",
        "value": "0x2c68af0bb140000",
        "input": "0x8b5fa09a00000000000000000000000000000000000000000000000002c6595dd5f2cc5c0000000000000000000000000000000000000000000000000000000067e2f6de000000000000000000000000388e360edaac94372df1a2663ffe52671bbd8b58",
        "nonce": "0x56",
        "chainId": "0x3e7"
      },
      "additionalContracts": [],
      "isFixedGasLimit": false
    }
  ],
  "receipts": [
    {
      "status": "0x1",
      "cumulativeGasUsed": "0x85d8c",
      "logs": [
        {
          "address": "0x5555555555555555555555555555555555555555",
          "topics": [
            "0xe1fffcc4923d04b559f4d29a8bfc6cda04eb5b0d3c460751c2402c5c5cc9109c",
            "0x000000000000000000000000f25d259c16d986956bc5edcbffcbc6503440b545"
          ],
          "data": "0x00000000000000000000000000000000000000000000000002c68af0bb140000",
          "blockHash": "0x5fad874914b7d51deea3e6eb1f527466862e30352b306fb986d0f7b5e244a9d3",
          "blockNumber": "0x184258",
          "blockTimestamp": "0x67e2f670",
          "transactionHash": "0xf1f74dfc4cf73b7c7d03c332ed529af72754d516f213f940947668c859378d37",
          "transactionIndex": "0x2",
          "logIndex": "0x9",
          "removed": false
        },
        {
          "address": "0x5555555555555555555555555555555555555555",
          "topics": [
            "0x8c5be1e5ebec7d5bd14f71427d1e84f3dd0314c0f7b2291e5b200ac8c7c3b925",
            "0x000000000000000000000000f25d259c16d986956bc5edcbffcbc6503440b545",
            "0x00000000000000000000000045f2b4a4ca043f44f468c126a03332d202626c7a"
          ],
          "data": "0x00000000000000000000000000000000000000000000000002c68af0bb140000",
          "blockHash": "0x5fad874914b7d51deea3e6eb1f527466862e30352b306fb986d0f7b5e244a9d3",
          "blockNumber": "0x184258",
          "blockTimestamp": "0x67e2f670",
          "transactionHash": "0xf1f74dfc4cf73b7c7d03c332ed529af72754d516f213f940947668c859378d37",
          "transactionIndex": "0x2",
          "logIndex": "0xa",
          "removed": false
        },
        {
          "address": "0x45f2b4a4ca043f44f468c126a03332d202626c7a",
          "topics": [
            "0xddf252ad1be2c89b69c2b068fc378daa952ba7f163c4a11628f55a4df523b3ef",
            "0x0000000000000000000000000000000000000000000000000000000000000000",
            "0x000000000000000000000000388e360edaac94372df1a2663ffe52671bbd8b58"
          ],
          "data": "0x00000000000000000000000000000000000000000000000002c66b8d93fd893f",
          "blockHash": "0x5fad874914b7d51deea3e6eb1f527466862e30352b306fb986d0f7b5e244a9d3",
          "blockNumber": "0x184258",
          "blockTimestamp": "0x67e2f670",
          "transactionHash": "0xf1f74dfc4cf73b7c7d03c332ed529af72754d516f213f940947668c859378d37",
          "transactionIndex": "0x2",
          "logIndex": "0xb",
          "removed": false
        },
        {
          "address": "0x5555555555555555555555555555555555555555",
          "topics": [
            "0xddf252ad1be2c89b69c2b068fc378daa952ba7f163c4a11628f55a4df523b3ef",
            "0x000000000000000000000000f25d259c16d986956bc5edcbffcbc6503440b545",
            "0x0000000000000000000000000a6d20adb8f8c78fdde4d55d73bcd6981e929fa0"
          ],
          "data": "0x00000000000000000000000000000000000000000000000002c68af0bb140000",
          "blockHash": "0x5fad874914b7d51deea3e6eb1f527466862e30352b306fb986d0f7b5e244a9d3",
          "blockNumber": "0x184258",
          "blockTimestamp": "0x67e2f670",
          "transactionHash": "0xf1f74dfc4cf73b7c7d03c332ed529af72754d516f213f940947668c859378d37",
          "transactionIndex": "0x2",
          "logIndex": "0xc",
          "removed": false
        },
        {
          "address": "0x0a6d20adb8f8c78fdde4d55d73bcd6981e929fa0",
          "topics": [
            "0x5b479c5a76f3eddfff87849b354aee2a3fbdafd3c2c1a95561143bd2ec1f1e64"
          ],
          "data": "0x000000000000000000000000000000000000000000000000000000000000000000000000000000000000000000000000000000000000000002c68af0bb140000",
          "blockHash": "0x5fad874914b7d51deea3e6eb1f527466862e30352b306fb986d0f7b5e244a9d3",
          "blockNumber": "0x184258",
          "blockTimestamp": "0x67e2f670",
          "transactionHash": "0xf1f74dfc4cf73b7c7d03c332ed529af72754d516f213f940947668c859378d37",
          "transactionIndex": "0x2",
          "logIndex": "0xd",
          "removed": false
        },
        {
          "address": "0x45f2b4a4ca043f44f468c126a03332d202626c7a",
          "topics": [
            "0xdcbc1c05240f31ff3ad067ef1ee35ce4997762752e3a095284754544f4c709d7",
            "0x000000000000000000000000f25d259c16d986956bc5edcbffcbc6503440b545",
            "0x000000000000000000000000388e360edaac94372df1a2663ffe52671bbd8b58"
          ],
          "data": "0x00000000000000000000000000000000000000000000000002c68af0bb14000000000000000000000000000000000000000000000000000002c66b8d93fd893f",
          "blockHash": "0x5fad874914b7d51deea3e6eb1f527466862e30352b306fb986d0f7b5e244a9d3",
          "blockNumber": "0x184258",
          "blockTimestamp": "0x67e2f670",
          "transactionHash": "0xf1f74dfc4cf73b7c7d03c332ed529af72754d516f213f940947668c859378d37",
          "transactionIndex": "0x2",
          "logIndex": "0xe",
          "removed": false
        }
      ],
      "logsBloom": "0x00000010000000000000000004000010000000000000000000000040000000000000000000020000000000100000001000000000004000000000400000200000040000400000000000000008000000000000000000000000000000008000000200000000020000000000008000000800000000000004000008000010000000000004020000040000080000000000000000000001000000000000004000000000020000000000000000000000000000000000000000000000000000000000000000000002000000000000010000001000000000000008000000000000400020000010000000080000020000000004000000000000000000400000000000000000",
      "type": "0x2",
      "transactionHash": "0xf1f74dfc4cf73b7c7d03c332ed529af72754d516f213f940947668c859378d37",
      "transactionIndex": "0x2",
      "blockHash": "0x5fad874914b7d51deea3e6eb1f527466862e30352b306fb986d0f7b5e244a9d3",
      "blockNumber": "0x184258",
      "gasUsed": "0x2217c",
      "effectiveGasPrice": "0x720e0f2",
      "from": "0x388e360edaac94372df1a2663ffe52671bbd8b58",
      "to": "0xf25d259c16d986956bc5edcbffcbc6503440b545",
      "contractAddress": null
    }
  ],
  "libraries": [],
  "pending": [],
  "returns": {},
  "timestamp": 1742927473,
  "chain": 999,
  "commit": "a3d86bb"
}