{
  "transactions": [
    {
      "hash": "0x42bb69a0d34ed046c5bdd82376f28bf460ece23c171afd0418db03e7aac74e69",
      "transactionType": "CALL",
      "contractName": null,
      "contractAddress": "0xa731b781228553be3166ce4c7a63b2f40b1df956",
      "function": "depositFromNative(uint256,uint256,address)",
      "arguments": [
        "199312135111589895",
        "1743445218",
        "0x388E360eDaaC94372df1a2663FFe52671bbd8B58"
      ],
      "transaction": {
        "from": "0x388e360edaac94372df1a2663ffe52671bbd8b58",
        "to": "0xa731b781228553be3166ce4c7a63b2f40b1df956",
        "gas": "0x33199",
        "value": "0x2c68af0bb140000",
        "input": "0x8b5fa09a00000000000000000000000000000000000000000000000002c41954b4c040070000000000000000000000000000000000000000000000000000000067eadce2000000000000000000000000388e360edaac94372df1a2663ffe52671bbd8b58",
        "nonce": "0xa7",
        "chainId": "0x3e7"
      },
      "additionalContracts": [],
      "isFixedGasLimit": false
    }
  ],
  "receipts": [
    {
      "status": "0x1",
      "cumulativeGasUsed": "0x44f3a",
      "logs": [
        {
          "address": "0x5555555555555555555555555555555555555555",
          "topics": [
            "0xe1fffcc4923d04b559f4d29a8bfc6cda04eb5b0d3c460751c2402c5c5cc9109c",
            "0x000000000000000000000000a731b781228553be3166ce4c7a63b2f40b1df956"
          ],
          "data": "0x00000000000000000000000000000000000000000000000002c68af0bb140000",
          "blockHash": "0xd6087108ea10c5967ac6781243f492998687bdb71af199aeef3c8b9742b1482e",
          "blockNumber": "0x1c56b6",
          "blockTimestamp": "0x67eadc94",
          "transactionHash": "0x42bb69a0d34ed046c5bdd82376f28bf460ece23c171afd0418db03e7aac74e69",
          "transactionIndex": "0x2",
          "logIndex": "0x3",
          "removed": false
        },
        {
          "address": "0x5555555555555555555555555555555555555555",
          "topics": [
            "0x8c5be1e5ebec7d5bd14f71427d1e84f3dd0314c0f7b2291e5b200ac8c7c3b925",
            "0x000000000000000000000000a731b781228553be3166ce4c7a63b2f40b1df956",
            "0x000000000000000000000000e20725bea0af2b125fe21882385275cdbfa94298"
          ],
          "data": "0x00000000000000000000000000000000000000000000000002c68af0bb140000",
          "blockHash": "0xd6087108ea10c5967ac6781243f492998687bdb71af199aeef3c8b9742b1482e",
          "blockNumber": "0x1c56b6",
          "blockTimestamp": "0x67eadc94",
          "transactionHash": "0x42bb69a0d34ed046c5bdd82376f28bf460ece23c171afd0418db03e7aac74e69",
          "transactionIndex": "0x2",
          "logIndex": "0x4",
          "removed": false
        },
        {
          "address": "0xe20725bea0af2b125fe21882385275cdbfa94298",
          "topics": [
            "0xddf252ad1be2c89b69c2b068fc378daa952ba7f163c4a11628f55a4df523b3ef",
            "0x0000000000000000000000000000000000000000000000000000000000000000",
            "0x000000000000000000000000388e360edaac94372df1a2663ffe52671bbd8b58"
          ],
          "data": "0x00000000000000000000000000000000000000000000000002c42b75196e1154",
          "blockHash": "0xd6087108ea10c5967ac6781243f492998687bdb71af199aeef3c8b9742b1482e",
          "blockNumber": "0x1c56b6",
          "blockTimestamp": "0x67eadc94",
          "transactionHash": "0x42bb69a0d34ed046c5bdd82376f28bf460ece23c171afd0418db03e7aac74e69",
          "transactionIndex": "0x2",
          "logIndex": "0x5",
          "removed": false
        },
        {
          "address": "0x5555555555555555555555555555555555555555",
          "topics": [
            "0xddf252ad1be2c89b69c2b068fc378daa952ba7f163c4a11628f55a4df523b3ef",
            "0x000000000000000000000000a731b781228553be3166ce4c7a63b2f40b1df956",
            "0x000000000000000000000000ef340ba1e70510739f0e82e0c9511497182fbe86"
          ],
          "data": "0x00000000000000000000000000000000000000000000000002c68af0bb140000",
          "blockHash": "0xd6087108ea10c5967ac6781243f492998687bdb71af199aeef3c8b9742b1482e",
          "blockNumber": "0x1c56b6",
          "blockTimestamp": "0x67eadc94",
          "transactionHash": "0x42bb69a0d34ed046c5bdd82376f28bf460ece23c171afd0418db03e7aac74e69",
          "transactionIndex": "0x2",
          "logIndex": "0x6",
          "removed": false
        },
        {
          "address": "0xef340ba1e70510739f0e82e0c9511497182fbe86",
          "topics": [
            "0x5b479c5a76f3eddfff87849b354aee2a3fbdafd3c2c1a95561143bd2ec1f1e64"
          ],
          "data": "0x000000000000000000000000000000000000000000000000000000000000000000000000000000000000000000000000000000000000000002c68af0bb140000",
          "blockHash": "0xd6087108ea10c5967ac6781243f492998687bdb71af199aeef3c8b9742b1482e",
          "blockNumber": "0x1c56b6",
          "blockTimestamp": "0x67eadc94",
          "transactionHash": "0x42bb69a0d34ed046c5bdd82376f28bf460ece23c171afd0418db03e7aac74e69",
          "transactionIndex": "0x2",
          "logIndex": "0x7",
          "removed": false
        },
        {
          "address": "0xe20725bea0af2b125fe21882385275cdbfa94298",
          "topics": [
            "0xdcbc1c05240f31ff3ad067ef1ee35ce4997762752e3a095284754544f4c709d7",
            "0x000000000000000000000000a731b781228553be3166ce4c7a63b2f40b1df956",
            "0x000000000000000000000000388e360edaac94372df1a2663ffe52671bbd8b58"
          ],
          "data": "0x00000000000000000000000000000000000000000000000002c68af0bb14000000000000000000000000000000000000000000000000000002c42b75196e1154",
          "blockHash": "0xd6087108ea10c5967ac6781243f492998687bdb71af199aeef3c8b9742b1482e",
          "blockNumber": "0x1c56b6",
          "blockTimestamp": "0x67eadc94",
          "transactionHash": "0x42bb69a0d34ed046c5bdd82376f28bf460ece23c171afd0418db03e7aac74e69",
          "transactionIndex": "0x2",
          "logIndex": "0x8",
          "removed": false
        }
      ],
      "logsBloom": "0x00000010000000000000000000000010000000000000000000001000000000000000000000000000000000100000001000000000004000000000000000200000000000400000000000000018000000000000000000000000000000008000000200000000028000010000000000000800000000000004000008000010000000000000000000000000080000000000000000020001000000000004000040004000020000000000000000000000000000000008000000000000000000100801000000000002000000000000002000000000000000000008000000000000000030000010000000880000000000000000000000000000000000400000000000000000",
      "type": "0x2",
      "transactionHash": "0x42bb69a0d34ed046c5bdd82376f28bf460ece23c171afd0418db03e7aac74e69",
      "transactionIndex": "0x2",
      "blockHash": "0xd6087108ea10c5967ac6781243f492998687bdb71af199aeef3c8b9742b1482e",
      "blockNumber": "0x1c56b6",
      "gasUsed": "0x22f0b",
      "effectiveGasPrice": "0x5f5e101",
      "from": "0x388e360edaac94372df1a2663ffe52671bbd8b58",
      "to": "0xa731b781228553be3166ce4c7a63b2f40b1df956",
      "contractAddress": null
    }
  ],
  "libraries": [],
  "pending": [],
  "returns": {},
  "timestamp": 1743445141,
  "chain": 999,
  "commit": "d975cb6"
}