{
  "transactions": [
    {
      "hash": "0x2cad5e3e904f71bc21a0ae6a03dbb283e86eee223f8b0cc9fc80b6bccfc4fbe9",
      "transactionType": "CALL",
      "contractName": null,
      "contractAddress": "0xffaa4a3d97fe9107cef8a3f48c069f577ff76cc1",
      "function": "approve(address,uint256)",
      "arguments": [
        "0x0A6d20adb8f8c78fdDe4D55D73bcD6981e929fa0",
        "500000000000000000"
      ],
      "transaction": {
        "from": "0x388e360edaac94372df1a2663ffe52671bbd8b58",
        "to": "0xffaa4a3d97fe9107cef8a3f48c069f577ff76cc1",
        "gas": "0x11408",
        "value": "0x0",
        "input": "0x095ea7b30000000000000000000000000a6d20adb8f8c78fdde4d55d73bcd6981e929fa000000000000000000000000000000000000000000000000006f05b59d3b20000",
        "nonce": "0x60",
        "chainId": "0x3e7"
      },
      "additionalContracts": [],
      "isFixedGasLimit": false
    },
    {
      "hash": "0xdec5abf92f07f88ff8f86fb3914124645800ee809dac05a3bbc48a43639b83b3",
      "transactionType": "CALL",
      "contractName": null,
      "contractAddress": "0x0a6d20adb8f8c78fdde4d55d73bcd6981e929fa0",
      "function": "swap((bool,bool,uint256,uint256,uint256,address,address,(bytes,bytes,bytes,bytes)))",
      "arguments": [
        "(false, true, 500000000000000000, 0, 1743096356, 0x388E360eDaaC94372df1a2663FFe52671bbd8B58, 0x5555555555555555555555555555555555555555, (0x, 0x, 0x, 0x))"
      ],
      "transaction": {
        "from": "0x388e360edaac94372df1a2663ffe52671bbd8b58",
        "to": "0x0a6d20adb8f8c78fdde4d55d73bcd6981e929fa0",
        "gas": "0x439cd",
        "value": "0x0",
        "input": "0x3732900900000000000000000000000000000000000000000000000000000000000000200000000000000000000000000000000000000000000000000000000000000000000000000000000000000000000000000000000000000000000000000000000100000000000000000000000000000000000000000000000006f05b59d3b2000000000000000000000000000000000000000000000000000000000000000000000000000000000000000000000000000000000000000000000000000067e58a24000000000000000000000000388e360edaac94372df1a2663ffe52671bbd8b5800000000000000000000000055555555555555555555555555555555555555550000000000000000000000000000000000000000000000000000000000000100000000000000000000000000000000000000000000000000000000000000008000000000000000000000000000000000000000000000000000000000000000a000000000000000000000000000000000000000000000000000000000000000c000000000000000000000000000000000000000000000000000000000000000e00000000000000000000000000000000000000000000000000000000000000000000000000000000000000000000000000000000000000000000000000000000000000000000000000000000000000000000000000000000000000000000000000000000000000000000000000000000000000000000000000000000000000000",
        "nonce": "0x61",
        "chainId": "0x3e7"
      },
      "additionalContracts": [],
      "isFixedGasLimit": false
    }
  ],
  "receipts": [
    {
      "status": "0x1",
      "cumulativeGasUsed": "0xc7d8",
      "logs": [
        {
          "address": "0xffaa4a3d97fe9107cef8a3f48c069f577ff76cc1",
          "topics": [
            "0x8c5be1e5ebec7d5bd14f71427d1e84f3dd0314c0f7b2291e5b200ac8c7c3b925",
            "0x000000000000000000000000388e360edaac94372df1a2663ffe52671bbd8b58",
            "0x0000000000000000000000000a6d20adb8f8c78fdde4d55d73bcd6981e929fa0"
          ],
          "data": "0x00000000000000000000000000000000000000000000000006f05b59d3b20000",
          "blockHash": "0xdbcc2f2853430e9e2045b5740c64705c6e79c56bca96ba9e5f13d990f2e7f1de",
          "blockNumber": "0x1996c6",
          "blockTimestamp": "0x67e589b8",
          "transactionHash": "0x2cad5e3e904f71bc21a0ae6a03dbb283e86eee223f8b0cc9fc80b6bccfc4fbe9",
          "transactionIndex": "0x0",
          "logIndex": "0x0",
          "removed": false
        }
      ],
      "logsBloom": "0x00000000000000000000000000000000000000000000000000000040000000000000000000000000000000100040000000000000004000000000400000200000000000000000000000000000000000000000000000000000000000000000000200000000000000000000000000000000000000000000000000000000001000000000000000000000000000000000000000000000000000000000000000000040020000000000000000000000000000000000000000000000000000000000000000000000000000000000000000001000000000000000000000000000000000000010000000000000000000000000000000000000000000000000000000000000",
      "type": "0x2",
      "transactionHash": "0x2cad5e3e904f71bc21a0ae6a03dbb283e86eee223f8b0cc9fc80b6bccfc4fbe9",
      "transactionIndex": "0x0",
      "blockHash": "0xdbcc2f2853430e9e2045b5740c64705c6e79c56bca96ba9e5f13d990f2e7f1de",
      "blockNumber": "0x1996c6",
      "gasUsed": "0xc7d8",
      "effectiveGasPrice": "0x5f5e101",
      "from": "0x388e360edaac94372df1a2663ffe52671bbd8b58",
      "to": "0xffaa4a3d97fe9107cef8a3f48c069f577ff76cc1",
      "contractAddress": null
    },
    {
      "status": "0x1",
      "cumulativeGasUsed": "0x3d70d",
      "logs": [
        {
          "address": "0xffaa4a3d97fe9107cef8a3f48c069f577ff76cc1",
          "topics": [
            "0xddf252ad1be2c89b69c2b068fc378daa952ba7f163c4a11628f55a4df523b3ef",
            "0x000000000000000000000000388e360edaac94372df1a2663ffe52671bbd8b58",
            "0x0000000000000000000000000a6d20adb8f8c78fdde4d55d73bcd6981e929fa0"
          ],
          "data": "0x00000000000000000000000000000000000000000000000006f05b59d3b20000",
          "blockHash": "0xdbcc2f2853430e9e2045b5740c64705c6e79c56bca96ba9e5f13d990f2e7f1de",
          "blockNumber": "0x1996c6",
          "blockTimestamp": "0x67e589b8",
          "transactionHash": "0xdec5abf92f07f88ff8f86fb3914124645800ee809dac05a3bbc48a43639b83b3",
          "transactionIndex": "0x1",
          "logIndex": "0x1",
          "removed": false
        },
        {
          "address": "0x5555555555555555555555555555555555555555",
          "topics": [
            "0xddf252ad1be2c89b69c2b068fc378daa952ba7f163c4a11628f55a4df523b3ef",
            "0x0000000000000000000000000a6d20adb8f8c78fdde4d55d73bcd6981e929fa0",
            "0x000000000000000000000000388e360edaac94372df1a2663ffe52671bbd8b58"
          ],
          "data": "0x00000000000000000000000000000000000000000000000006f02de175733111",
          "blockHash": "0xdbcc2f2853430e9e2045b5740c64705c6e79c56bca96ba9e5f13d990f2e7f1de",
          "blockNumber": "0x1996c6",
          "blockTimestamp": "0x67e589b8",
          "transactionHash": "0xdec5abf92f07f88ff8f86fb3914124645800ee809dac05a3bbc48a43639b83b3",
          "transactionIndex": "0x1",
          "logIndex": "0x2",
          "removed": false
        },
        {
          "address": "0x0a6d20adb8f8c78fdde4d55d73bcd6981e929fa0",
          "topics": [
            "0x176648f1f11cda284c124490086be42a926ddf0ae887ebe7b1d6b337d8942756",
            "0x000000000000000000000000388e360edaac94372df1a2663ffe52671bbd8b58"
          ],
          "data": "0x000000000000000000000000000000000000000000000000000000000000000100000000000000000000000000000000000000000000000006f05b59d3b2000000000000000000000000000000000000000000000000000000002d785e3eceef00000000000000000000000000000000000000000000000006f02de175733111",
          "blockHash": "0xdbcc2f2853430e9e2045b5740c64705c6e79c56bca96ba9e5f13d990f2e7f1de",
          "blockNumber": "0x1996c6",
          "blockTimestamp": "0x67e589b8",
          "transactionHash": "0xdec5abf92f07f88ff8f86fb3914124645800ee809dac05a3bbc48a43639b83b3",
          "transactionIndex": "0x1",
          "logIndex": "0x3",
          "removed": false
        }
      ],
      "logsBloom": "0x00000000000000000000000000000000000001000000000000000040000000000000000000000000000000100040000000000000004000000000400000000000000000000000000000000008000000000000000000000000000000000000000200000000000000000000008000000000000000000000000008000010001000000000000000000000080000000000000000000000000000000000024000000040000000000000000000000000000000000000000000000000100000000000000000000002000000000000000000001000000000000000000000000000000000000000000000080000000000000004000000000000000000000000000000000000",
      "type": "0x2",
      "transactionHash": "0xdec5abf92f07f88ff8f86fb3914124645800ee809dac05a3bbc48a43639b83b3",
      "transactionIndex": "0x1",
      "blockHash": "0xdbcc2f2853430e9e2045b5740c64705c6e79c56bca96ba9e5f13d990f2e7f1de",
      "blockNumber": "0x1996c6",
      "gasUsed": "0x30f35",
      "effectiveGasPrice": "0x5f5e101",
      "from": "0x388e360edaac94372df1a2663ffe52671bbd8b58",
      "to": "0x0a6d20adb8f8c78fdde4d55d73bcd6981e929fa0",
      "contractAddress": null
    }
  ],
  "libraries": [],
  "pending": [],
  "returns": {},
  "timestamp": 1743096249,
  "chain": 999,
  "commit": "5f93138"
}