{
  "transactions": [
    {
      "hash": "0xf973af912487512ccbaab098d89323562d0c968130fdc93095a631ce55fd9f41",
      "transactionType": "CALL",
      "contractName": null,
      "contractAddress": "0xffaa4a3d97fe9107cef8a3f48c069f577ff76cc1",
      "function": "approve(address,uint256)",
      "arguments": [
        "0x7d19Ee0956C96cF40B91Cdd7f058D64D48198C09",
        "100000000000000000"
      ],
      "transaction": {
        "from": "0x388e360edaac94372df1a2663ffe52671bbd8b58",
        "to": "0xffaa4a3d97fe9107cef8a3f48c069f577ff76cc1",
        "gas": "0x11408",
        "value": "0x0",
        "input": "0x095ea7b30000000000000000000000007d19ee0956c96cf40b91cdd7f058d64d48198c09000000000000000000000000000000000000000000000000016345785d8a0000",
        "nonce": "0x13",
        "chainId": "0x3e7"
      },
      "additionalContracts": [],
      "isFixedGasLimit": false
    },
    {
      "hash": "0x4bcad627669402dc0f457b5d95bbc17d69c28378f338c184c54882ce73962dbf",
      "transactionType": "CALL",
      "contractName": null,
      "contractAddress": "0x7d19ee0956c96cf40b91cdd7f058d64d48198c09",
      "function": "swap((bool,bool,uint256,uint256,uint256,address,address,(bytes,bytes,bytes,bytes)))",
      "arguments": [
        "(false, true, 100000000000000000, 0, 1741793618, 0x388E360eDaaC94372df1a2663FFe52671bbd8B58, 0x5555555555555555555555555555555555555555, (0x, 0x, 0x, 0x))"
      ],
      "transaction": {
        "from": "0x388e360edaac94372df1a2663ffe52671bbd8b58",
        "to": "0x7d19ee0956c96cf40b91cdd7f058d64d48198c09",
        "gas": "0x4cd66",
        "value": "0x0",
        "input": "0x37329009000000000000000000000000000000000000000000000000000000000000002000000000000000000000000000000000000000000000000000000000000000000000000000000000000000000000000000000000000000000000000000000001000000000000000000000000000000000000000000000000016345785d8a000000000000000000000000000000000000000000000000000000000000000000000000000000000000000000000000000000000000000000000000000067d1a952000000000000000000000000388e360edaac94372df1a2663ffe52671bbd8b5800000000000000000000000055555555555555555555555555555555555555550000000000000000000000000000000000000000000000000000000000000100000000000000000000000000000000000000000000000000000000000000008000000000000000000000000000000000000000000000000000000000000000a000000000000000000000000000000000000000000000000000000000000000c000000000000000000000000000000000000000000000000000000000000000e00000000000000000000000000000000000000000000000000000000000000000000000000000000000000000000000000000000000000000000000000000000000000000000000000000000000000000000000000000000000000000000000000000000000000000000000000000000000000000000000000000000000000000",
        "nonce": "0x14",
        "chainId": "0x3e7"
      },
      "additionalContracts": [],
      "isFixedGasLimit": false
    }
  ],
  "receipts": [
    {
      "status": "0x1",
      "cumulativeGasUsed": "0x1c7ef",
      "logs": [
        {
          "address": "0xffaa4a3d97fe9107cef8a3f48c069f577ff76cc1",
          "topics": [
            "0x8c5be1e5ebec7d5bd14f71427d1e84f3dd0314c0f7b2291e5b200ac8c7c3b925",
            "0x000000000000000000000000388e360edaac94372df1a2663ffe52671bbd8b58",
            "0x0000000000000000000000007d19ee0956c96cf40b91cdd7f058d64d48198c09"
          ],
          "data": "0x000000000000000000000000000000000000000000000000016345785d8a0000",
          "blockHash": "0x7380e400d8c5274d675ad1ec774a21d1dc7dfaf995547f602591a43a35de2292",
          "blockNumber": "0xf5258",
          "blockTimestamp": "0x67d1a8e8",
          "transactionHash": "0xf973af912487512ccbaab098d89323562d0c968130fdc93095a631ce55fd9f41",
          "transactionIndex": "0x1",
          "logIndex": "0x1",
          "removed": false
        }
      ],
      "logsBloom": "0x00000000000000080000000000000000000000000000000000000080000000000000000000000000000000100040000000000000004000000000000000200000000000000000000000000000000000000000000000000000000000000000000200000000000000000000000000000000000000000000000000000000001000000000000000000000000000000000000000000000000000000000000000000040020000000000000000000000000000000000000000000000000000000000000000000000000040000000000000000000000000000000000000000000000000000010000000000000000000000000000000000000000000000000000000000000",
      "type": "0x2",
      "transactionHash": "0xf973af912487512ccbaab098d89323562d0c968130fdc93095a631ce55fd9f41",
      "transactionIndex": "0x1",
      "blockHash": "0x7380e400d8c5274d675ad1ec774a21d1dc7dfaf995547f602591a43a35de2292",
      "blockNumber": "0xf5258",
      "gasUsed": "0xc7d8",
      "effectiveGasPrice": "0x5f5e101",
      "from": "0x388e360edaac94372df1a2663ffe52671bbd8b58",
      "to": "0xffaa4a3d97fe9107cef8a3f48c069f577ff76cc1",
      "contractAddress": null
    },
    {
      "status": "0x1",
      "cumulativeGasUsed": "0x541ff",
      "logs": [
        {
          "address": "0xffaa4a3d97fe9107cef8a3f48c069f577ff76cc1",
          "topics": [
            "0xddf252ad1be2c89b69c2b068fc378daa952ba7f163c4a11628f55a4df523b3ef",
            "0x000000000000000000000000388e360edaac94372df1a2663ffe52671bbd8b58",
            "0x0000000000000000000000007d19ee0956c96cf40b91cdd7f058d64d48198c09"
          ],
          "data": "0x000000000000000000000000000000000000000000000000016345785d8a0000",
          "blockHash": "0x7380e400d8c5274d675ad1ec774a21d1dc7dfaf995547f602591a43a35de2292",
          "blockNumber": "0xf5258",
          "blockTimestamp": "0x67d1a8e8",
          "transactionHash": "0x4bcad627669402dc0f457b5d95bbc17d69c28378f338c184c54882ce73962dbf",
          "transactionIndex": "0x2",
          "logIndex": "0x2",
          "removed": false
        },
        {
          "address": "0x5555555555555555555555555555555555555555",
          "topics": [
            "0xddf252ad1be2c89b69c2b068fc378daa952ba7f163c4a11628f55a4df523b3ef",
            "0x0000000000000000000000007d19ee0956c96cf40b91cdd7f058d64d48198c09",
            "0x000000000000000000000000388e360edaac94372df1a2663ffe52671bbd8b58"
          ],
          "data": "0x00000000000000000000000000000000000000000000000001633c604ab0a369",
          "blockHash": "0x7380e400d8c5274d675ad1ec774a21d1dc7dfaf995547f602591a43a35de2292",
          "blockNumber": "0xf5258",
          "blockTimestamp": "0x67d1a8e8",
          "transactionHash": "0x4bcad627669402dc0f457b5d95bbc17d69c28378f338c184c54882ce73962dbf",
          "transactionIndex": "0x2",
          "logIndex": "0x3",
          "removed": false
        },
        {
          "address": "0x7d19ee0956c96cf40b91cdd7f058d64d48198c09",
          "topics": [
            "0x176648f1f11cda284c124490086be42a926ddf0ae887ebe7b1d6b337d8942756",
            "0x000000000000000000000000388e360edaac94372df1a2663ffe52671bbd8b58"
          ],
          "data": "0x0000000000000000000000000000000000000000000000000000000000000001000000000000000000000000000000000000000000000000016345785d8a00000000000000000000000000000000000000000000000000000000091812d95c9700000000000000000000000000000000000000000000000001633c604ab0a369",
          "blockHash": "0x7380e400d8c5274d675ad1ec774a21d1dc7dfaf995547f602591a43a35de2292",
          "blockNumber": "0xf5258",
          "blockTimestamp": "0x67d1a8e8",
          "transactionHash": "0x4bcad627669402dc0f457b5d95bbc17d69c28378f338c184c54882ce73962dbf",
          "transactionIndex": "0x2",
          "logIndex": "0x4",
          "removed": false
        }
      ],
      "logsBloom": "0x00000000000000080000000000000000000001000000000000000080000000000000000000000000000000100040000000000000004000000000000000000000000000000000000002000008000000000000000000000000000000000000000200000000000000000000000000000000000000000000000008000010001000000000000000000000080000000000000000000000000000000000020000000040000000000000000000000000000000000000000000000000100000000000000000000002000040000000000000000000000000000000000000000000000000000000000000080000000000000000400000000000000200000000000000000000",
      "type": "0x2",
      "transactionHash": "0x4bcad627669402dc0f457b5d95bbc17d69c28378f338c184c54882ce73962dbf",
      "transactionIndex": "0x2",
      "blockHash": "0x7380e400d8c5274d675ad1ec774a21d1dc7dfaf995547f602591a43a35de2292",
      "blockNumber": "0xf5258",
      "gasUsed": "0x37a10",
      "effectiveGasPrice": "0x5f5e101",
      "from": "0x388e360edaac94372df1a2663ffe52671bbd8b58",
      "to": "0x7d19ee0956c96cf40b91cdd7f058d64d48198c09",
      "contractAddress": null
    }
  ],
  "libraries": [],
  "pending": [],
  "returns": {},
  "timestamp": 1741793513,
  "chain": 999,
  "commit": "4a7117b"
}