{
  "transactions": [
    {
      "hash": "0xe0dcfa8f9fcce9279d3724818998c4e94de7f7323bd4c8b7edae5d69269f010c",
      "transactionType": "CALL",
      "contractName": null,
      "contractAddress": "0xffaa4a3d97fe9107cef8a3f48c069f577ff76cc1",
      "function": "approve(address,uint256)",
      "arguments": [
        "0xEF340bA1e70510739f0E82E0c9511497182FBe86",
        "5000000000000000000"
      ],
      "transaction": {
        "from": "0x388e360edaac94372df1a2663ffe52671bbd8b58",
        "to": "0xffaa4a3d97fe9107cef8a3f48c069f577ff76cc1",
        "gas": "0x11408",
        "value": "0x0",
        "input": "0x095ea7b3000000000000000000000000ef340ba1e70510739f0e82e0c9511497182fbe860000000000000000000000000000000000000000000000004563918244f40000",
        "nonce": "0xb3",
        "chainId": "0x3e7"
      },
      "additionalContracts": [],
      "isFixedGasLimit": false
    },
    {
      "hash": "0x9af461304d4a63b8172862c8270d58d40c908fd6910f5d01b15ec89dc391e05b",
      "transactionType": "CALL",
      "contractName": null,
      "contractAddress": "0xef340ba1e70510739f0e82e0c9511497182fbe86",
      "function": "swap((bool,bool,uint256,uint256,uint256,address,address,(bytes,bytes,bytes,bytes)))",
      "arguments": [
        "(false, true, 5000000000000000000, 0, 1743533382, 0x388E360eDaaC94372df1a2663FFe52671bbd8B58, 0x5555555555555555555555555555555555555555, (0x, 0x, 0x, 0x))"
      ],
      "transaction": {
        "from": "0x388e360edaac94372df1a2663ffe52671bbd8b58",
        "to": "0xef340ba1e70510739f0e82e0c9511497182fbe86",
        "gas": "0x5bff8",
        "value": "0x0",
        "input": "0x373290090000000000000000000000000000000000000000000000000000000000000020000000000000000000000000000000000000000000000000000000000000000000000000000000000000000000000000000000000000000000000000000000010000000000000000000000000000000000000000000000004563918244f4000000000000000000000000000000000000000000000000000000000000000000000000000000000000000000000000000000000000000000000000000067ec3546000000000000000000000000388e360edaac94372df1a2663ffe52671bbd8b5800000000000000000000000055555555555555555555555555555555555555550000000000000000000000000000000000000000000000000000000000000100000000000000000000000000000000000000000000000000000000000000008000000000000000000000000000000000000000000000000000000000000000a000000000000000000000000000000000000000000000000000000000000000c000000000000000000000000000000000000000000000000000000000000000e00000000000000000000000000000000000000000000000000000000000000000000000000000000000000000000000000000000000000000000000000000000000000000000000000000000000000000000000000000000000000000000000000000000000000000000000000000000000000000000000000000000000000000",
        "nonce": "0xb4",
        "chainId": "0x3e7"
      },
      "additionalContracts": [],
      "isFixedGasLimit": false
    }
  ],
  "receipts": [
    {
      "status": "0x1",
      "cumulativeGasUsed": "0x5fdd8",
      "logs": [
        {
          "address": "0xffaa4a3d97fe9107cef8a3f48c069f577ff76cc1",
          "topics": [
            "0x8c5be1e5ebec7d5bd14f71427d1e84f3dd0314c0f7b2291e5b200ac8c7c3b925",
            "0x000000000000000000000000388e360edaac94372df1a2663ffe52671bbd8b58",
            "0x000000000000000000000000ef340ba1e70510739f0e82e0c9511497182fbe86"
          ],
          "data": "0x0000000000000000000000000000000000000000000000004563918244f40000",
          "blockHash": "0x0fa6e7c0f7dc3c5f70b9017ed33e02f6a8979743671ae665135f4b26a57a7e1a",
          "blockNumber": "0x1d08b8",
          "blockTimestamp": "0x67ec351c",
          "transactionHash": "0xe0dcfa8f9fcce9279d3724818998c4e94de7f7323bd4c8b7edae5d69269f010c",
          "transactionIndex": "0x1",
          "logIndex": "0x11",
          "removed": false
        }
      ],
      "logsBloom": "0x00000000000000000000000000000000000000000000000000001000000000000000000000000000000000100040000000000000004000000000000000200000000000000000000000000000000000000000000000000000000000000000000200000000000000000000000000000000000000000000000000000000001000000000000000000000000000000000000000000000000000000000000000000040020000000000000000000000000000000000000000000000000000000000000000000000000000000000000000000000000000000000000000000000000010000010000000800000000000000000000000000000000000000000000000000000",
      "type": "0x2",
      "transactionHash": "0xe0dcfa8f9fcce9279d3724818998c4e94de7f7323bd4c8b7edae5d69269f010c",
      "transactionIndex": "0x1",
      "blockHash": "0x0fa6e7c0f7dc3c5f70b9017ed33e02f6a8979743671ae665135f4b26a57a7e1a",
      "blockNumber": "0x1d08b8",
      "gasUsed": "0xc7d8",
      "effectiveGasPrice": "0x5f5e101",
      "from": "0x388e360edaac94372df1a2663ffe52671bbd8b58",
      "to": "0xffaa4a3d97fe9107cef8a3f48c069f577ff76cc1",
      "contractAddress": null
    },
    {
      "status": "0x1",
      "cumulativeGasUsed": "0x9ec52",
      "logs": [
        {
          "address": "0xffaa4a3d97fe9107cef8a3f48c069f577ff76cc1",
          "topics": [
            "0xddf252ad1be2c89b69c2b068fc378daa952ba7f163c4a11628f55a4df523b3ef",
            "0x000000000000000000000000388e360edaac94372df1a2663ffe52671bbd8b58",
            "0x000000000000000000000000ef340ba1e70510739f0e82e0c9511497182fbe86"
          ],
          "data": "0x0000000000000000000000000000000000000000000000004563918244f40000",
          "blockHash": "0x0fa6e7c0f7dc3c5f70b9017ed33e02f6a8979743671ae665135f4b26a57a7e1a",
          "blockNumber": "0x1d08b8",
          "blockTimestamp": "0x67ec351c",
          "transactionHash": "0x9af461304d4a63b8172862c8270d58d40c908fd6910f5d01b15ec89dc391e05b",
          "transactionIndex": "0x2",
          "logIndex": "0x12",
          "removed": false
        },
        {
          "address": "0xffaa4a3d97fe9107cef8a3f48c069f577ff76cc1",
          "topics": [
            "0xddf252ad1be2c89b69c2b068fc378daa952ba7f163c4a11628f55a4df523b3ef",
            "0x000000000000000000000000ef340ba1e70510739f0e82e0c9511497182fbe86",
            "0x000000000000000000000000e20725bea0af2b125fe21882385275cdbfa94298"
          ],
          "data": "0x0000000000000000000000000000000000000000000000000001c68524ac613b",
          "blockHash": "0x0fa6e7c0f7dc3c5f70b9017ed33e02f6a8979743671ae665135f4b26a57a7e1a",
          "blockNumber": "0x1d08b8",
          "blockTimestamp": "0x67ec351c",
          "transactionHash": "0x9af461304d4a63b8172862c8270d58d40c908fd6910f5d01b15ec89dc391e05b",
          "transactionIndex": "0x2",
          "logIndex": "0x13",
          "removed": false
        },
        {
          "address": "0x5555555555555555555555555555555555555555",
          "topics": [
            "0xddf252ad1be2c89b69c2b068fc378daa952ba7f163c4a11628f55a4df523b3ef",
            "0x000000000000000000000000ef340ba1e70510739f0e82e0c9511497182fbe86",
            "0x000000000000000000000000388e360edaac94372df1a2663ffe52671bbd8b58"
          ],
          "data": "0x000000000000000000000000000000000000000000000000455ab0e88d9619d7",
          "blockHash": "0x0fa6e7c0f7dc3c5f70b9017ed33e02f6a8979743671ae665135f4b26a57a7e1a",
          "blockNumber": "0x1d08b8",
          "blockTimestamp": "0x67ec351c",
          "transactionHash": "0x9af461304d4a63b8172862c8270d58d40c908fd6910f5d01b15ec89dc391e05b",
          "transactionIndex": "0x2",
          "logIndex": "0x14",
          "removed": false
        },
        {
          "address": "0xef340ba1e70510739f0e82e0c9511497182fbe86",
          "topics": [
            "0x176648f1f11cda284c124490086be42a926ddf0ae887ebe7b1d6b337d8942756",
            "0x000000000000000000000000388e360edaac94372df1a2663ffe52671bbd8b58"
          ],
          "data": "0x00000000000000000000000000000000000000000000000000000000000000010000000000000000000000000000000000000000000000004563918244f400000000000000000000000000000000000000000000000000000008e099b75de629000000000000000000000000000000000000000000000000455ab0e88d9619d7",
          "blockHash": "0x0fa6e7c0f7dc3c5f70b9017ed33e02f6a8979743671ae665135f4b26a57a7e1a",
          "blockNumber": "0x1d08b8",
          "blockTimestamp": "0x67ec351c",
          "transactionHash": "0x9af461304d4a63b8172862c8270d58d40c908fd6910f5d01b15ec89dc391e05b",
          "transactionIndex": "0x2",
          "logIndex": "0x15",
          "removed": false
        }
      ],
      "logsBloom": "0x00000000000000000000000000000000000001000000000000001000000000000000000000000000000000100040000000000000004000000000000000000000000000000000000000000008000000000000000000000000000000000000000200000000008000010000000000000000000000000000000008000010001000000000000000000000080000000000000000000000000000000000020040004040000000000000000000000000000000000000000000000000100000000801000000000002000000000000000000000000000000000000000000000000000010000000000000880000000000000000000000000000000000000000000000000000",
      "type": "0x2",
      "transactionHash": "0x9af461304d4a63b8172862c8270d58d40c908fd6910f5d01b15ec89dc391e05b",
      "transactionIndex": "0x2",
      "blockHash": "0x0fa6e7c0f7dc3c5f70b9017ed33e02f6a8979743671ae665135f4b26a57a7e1a",
      "blockNumber": "0x1d08b8",
      "gasUsed": "0x3ee7a",
      "effectiveGasPrice": "0x5f5e101",
      "from": "0x388e360edaac94372df1a2663ffe52671bbd8b58",
      "to": "0xef340ba1e70510739f0e82e0c9511497182fbe86",
      "contractAddress": null
    }
  ],
  "libraries": [],
  "pending": [],
  "returns": {},
  "timestamp": 1743533340,
  "chain": 999,
  "commit": "8159c27"
}