{
  "transactions": [
    {
      "hash": "0xb042b3a7ab5baf8e199d38fa4276d43cedfa94977aee7698f151f86296add6cd",
      "transactionType": "CALL",
      "contractName": null,
      "contractAddress": "0xffaa4a3d97fe9107cef8a3f48c069f577ff76cc1",
      "function": "approve(address,uint256)",
      "arguments": [
        "0x0A6d20adb8f8c78fdDe4D55D73bcD6981e929fa0",
        "100000000000000000"
      ],
      "transaction": {
        "from": "0x388e360edaac94372df1a2663ffe52671bbd8b58",
        "to": "0xffaa4a3d97fe9107cef8a3f48c069f577ff76cc1",
        "gas": "0x11408",
        "value": "0x0",
        "input": "0x095ea7b30000000000000000000000000a6d20adb8f8c78fdde4d55d73bcd6981e929fa0000000000000000000000000000000000000000000000000016345785d8a0000",
        "nonce": "0x52",
        "chainId": "0x3e7"
      },
      "additionalContracts": [],
      "isFixedGasLimit": false
    },
    {
      "hash": "0x73168b13145eb6d4fac81309d231d841dd2bdfd57838df38f1e2cdb8dd48d07b",
      "transactionType": "CALL",
      "contractName": null,
      "contractAddress": "0x0a6d20adb8f8c78fdde4d55d73bcd6981e929fa0",
      "function": "swap((bool,bool,uint256,uint256,uint256,address,address,(bytes,bytes,bytes,bytes)))",
      "arguments": [
        "(false, true, 100000000000000000, 0, 1742925994, 0x388E360eDaaC94372df1a2663FFe52671bbd8B58, 0x5555555555555555555555555555555555555555, (0x, 0x, 0x, 0x))"
      ],
      "transaction": {
        "from": "0x388e360edaac94372df1a2663ffe52671bbd8b58",
        "to": "0x0a6d20adb8f8c78fdde4d55d73bcd6981e929fa0",
        "gas": "0x48654",
        "value": "0x0",
        "input": "0x37329009000000000000000000000000000000000000000000000000000000000000002000000000000000000000000000000000000000000000000000000000000000000000000000000000000000000000000000000000000000000000000000000001000000000000000000000000000000000000000000000000016345785d8a000000000000000000000000000000000000000000000000000000000000000000000000000000000000000000000000000000000000000000000000000067e2f0aa000000000000000000000000388e360edaac94372df1a2663ffe52671bbd8b5800000000000000000000000055555555555555555555555555555555555555550000000000000000000000000000000000000000000000000000000000000100000000000000000000000000000000000000000000000000000000000000008000000000000000000000000000000000000000000000000000000000000000a000000000000000000000000000000000000000000000000000000000000000c000000000000000000000000000000000000000000000000000000000000000e00000000000000000000000000000000000000000000000000000000000000000000000000000000000000000000000000000000000000000000000000000000000000000000000000000000000000000000000000000000000000000000000000000000000000000000000000000000000000000000000000000000000000000",
        "nonce": "0x53",
        "chainId": "0x3e7"
      },
      "additionalContracts": [],
      "isFixedGasLimit": false
    }
  ],
  "receipts": [
    {
      "status": "0x1",
      "cumulativeGasUsed": "0x68e20",
      "logs": [
        {
          "address": "0xffaa4a3d97fe9107cef8a3f48c069f577ff76cc1",
          "topics": [
            "0x8c5be1e5ebec7d5bd14f71427d1e84f3dd0314c0f7b2291e5b200ac8c7c3b925",
            "0x000000000000000000000000388e360edaac94372df1a2663ffe52671bbd8b58",
            "0x0000000000000000000000000a6d20adb8f8c78fdde4d55d73bcd6981e929fa0"
          ],
          "data": "0x000000000000000000000000000000000000000000000000016345785d8a0000",
          "blockHash": "0x019a18fe22b5e2b28518c8337921ae9e1f44c3f0a72dd07a54eb85daff23d0fe",
          "blockNumber": "0x183f2c",
          "blockTimestamp": "0x67e2f04c",
          "transactionHash": "0xb042b3a7ab5baf8e199d38fa4276d43cedfa94977aee7698f151f86296add6cd",
          "transactionIndex": "0x3",
          "logIndex": "0x2",
          "removed": false
        }
      ],
      "logsBloom": "0x00000000000000000000000000000000000000000000000000000040000000000000000000000000000000100040000000000000004000000000400000200000000000000000000000000000000000000000000000000000000000000000000200000000000000000000000000000000000000000000000000000000001000000000000000000000000000000000000000000000000000000000000000000040020000000000000000000000000000000000000000000000000000000000000000000000000000000000000000001000000000000000000000000000000000000010000000000000000000000000000000000000000000000000000000000000",
      "type": "0x2",
      "transactionHash": "0xb042b3a7ab5baf8e199d38fa4276d43cedfa94977aee7698f151f86296add6cd",
      "transactionIndex": "0x3",
      "blockHash": "0x019a18fe22b5e2b28518c8337921ae9e1f44c3f0a72dd07a54eb85daff23d0fe",
      "blockNumber": "0x183f2c",
      "gasUsed": "0xc7d8",
      "effectiveGasPrice": "0x5f5e101",
      "from": "0x388e360edaac94372df1a2663ffe52671bbd8b58",
      "to": "0xffaa4a3d97fe9107cef8a3f48c069f577ff76cc1",
      "contractAddress": null
    },
    {
      "status": "0x1",
      "cumulativeGasUsed": "0x9d4bd",
      "logs": [
        {
          "address": "0xffaa4a3d97fe9107cef8a3f48c069f577ff76cc1",
          "topics": [
            "0xddf252ad1be2c89b69c2b068fc378daa952ba7f163c4a11628f55a4df523b3ef",
            "0x000000000000000000000000388e360edaac94372df1a2663ffe52671bbd8b58",
            "0x0000000000000000000000000a6d20adb8f8c78fdde4d55d73bcd6981e929fa0"
          ],
          "data": "0x000000000000000000000000000000000000000000000000016345785d8a0000",
          "blockHash": "0x019a18fe22b5e2b28518c8337921ae9e1f44c3f0a72dd07a54eb85daff23d0fe",
          "blockNumber": "0x183f2c",
          "blockTimestamp": "0x67e2f04c",
          "transactionHash": "0x73168b13145eb6d4fac81309d231d841dd2bdfd57838df38f1e2cdb8dd48d07b",
          "transactionIndex": "0x4",
          "logIndex": "0x3",
          "removed": false
        },
        {
          "address": "0x5555555555555555555555555555555555555555",
          "topics": [
            "0xddf252ad1be2c89b69c2b068fc378daa952ba7f163c4a11628f55a4df523b3ef",
            "0x0000000000000000000000000a6d20adb8f8c78fdde4d55d73bcd6981e929fa0",
            "0x000000000000000000000000388e360edaac94372df1a2663ffe52671bbd8b58"
          ],
          "data": "0x00000000000000000000000000000000000000000000000001631804a6abf646",
          "blockHash": "0x019a18fe22b5e2b28518c8337921ae9e1f44c3f0a72dd07a54eb85daff23d0fe",
          "blockNumber": "0x183f2c",
          "blockTimestamp": "0x67e2f04c",
          "transactionHash": "0x73168b13145eb6d4fac81309d231d841dd2bdfd57838df38f1e2cdb8dd48d07b",
          "transactionIndex": "0x4",
          "logIndex": "0x4",
          "removed": false
        },
        {
          "address": "0x0a6d20adb8f8c78fdde4d55d73bcd6981e929fa0",
          "topics": [
            "0x176648f1f11cda284c124490086be42a926ddf0ae887ebe7b1d6b337d8942756",
            "0x000000000000000000000000388e360edaac94372df1a2663ffe52671bbd8b58"
          ],
          "data": "0x0000000000000000000000000000000000000000000000000000000000000001000000000000000000000000000000000000000000000000016345785d8a000000000000000000000000000000000000000000000000000000002d73b6de09ba00000000000000000000000000000000000000000000000001631804a6abf646",
          "blockHash": "0x019a18fe22b5e2b28518c8337921ae9e1f44c3f0a72dd07a54eb85daff23d0fe",
          "blockNumber": "0x183f2c",
          "blockTimestamp": "0x67e2f04c",
          "transactionHash": "0x73168b13145eb6d4fac81309d231d841dd2bdfd57838df38f1e2cdb8dd48d07b",
          "transactionIndex": "0x4",
          "logIndex": "0x5",
          "removed": false
        }
      ],
      "logsBloom": "0x00000000000000000000000000000000000001000000000000000040000000000000000000000000000000100040000000000000004000000000400000000000000000000000000000000008000000000000000000000000000000000000000200000000000000000000008000000000000000000000000008000010001000000000000000000000080000000000000000000000000000000000024000000040000000000000000000000000000000000000000000000000100000000000000000000002000000000000000000001000000000000000000000000000000000000000000000080000000000000004000000000000000000000000000000000000",
      "type": "0x2",
      "transactionHash": "0x73168b13145eb6d4fac81309d231d841dd2bdfd57838df38f1e2cdb8dd48d07b",
      "transactionIndex": "0x4",
      "blockHash": "0x019a18fe22b5e2b28518c8337921ae9e1f44c3f0a72dd07a54eb85daff23d0fe",
      "blockNumber": "0x183f2c",
      "gasUsed": "0x3469d",
      "effectiveGasPrice": "0x5f5e101",
      "from": "0x388e360edaac94372df1a2663ffe52671bbd8b58",
      "to": "0x0a6d20adb8f8c78fdde4d55d73bcd6981e929fa0",
      "contractAddress": null
    }
  ],
  "libraries": [],
  "pending": [],
  "returns": {},
  "timestamp": 1742925901,
  "chain": 999,
  "commit": "a3d86bb"
}