{
  "transactions": [
    {
      "hash": "0xc5a92d401343c448825ff5ab822cb4a0d1a05856affb610f647bf5c8b888573b",
      "transactionType": "CALL",
      "contractName": null,
      "contractAddress": "0xffaa4a3d97fe9107cef8a3f48c069f577ff76cc1",
      "function": "approve(address,uint256)",
      "arguments": [
        "0x0A6d20adb8f8c78fdDe4D55D73bcD6981e929fa0",
        "100000000000000000"
      ],
      "transaction": {
        "from": "0x388e360edaac94372df1a2663ffe52671bbd8b58",
        "to": "0xffaa4a3d97fe9107cef8a3f48c069f577ff76cc1",
        "gas": "0x11408",
        "value": "0x0",
        "input": "0x095ea7b30000000000000000000000000a6d20adb8f8c78fdde4d55d73bcd6981e929fa0000000000000000000000000000000000000000000000000016345785d8a0000",
        "nonce": "0x68",
        "chainId": "0x3e7"
      },
      "additionalContracts": [],
      "isFixedGasLimit": false
    },
    {
      "hash": "0xefcdea207e187a8634a507c7bbb17954fe18046d7442124e8a108ff19b813f66",
      "transactionType": "CALL",
      "contractName": null,
      "contractAddress": "0x0a6d20adb8f8c78fdde4d55d73bcd6981e929fa0",
      "function": "swap((bool,bool,uint256,uint256,uint256,address,address,(bytes,bytes,bytes,bytes)))",
      "arguments": [
        "(false, true, 100000000000000000, 0, 1743096458, 0x388E360eDaaC94372df1a2663FFe52671bbd8B58, 0x5555555555555555555555555555555555555555, (0x, 0x, 0x, 0x))"
      ],
      "transaction": {
        "from": "0x388e360edaac94372df1a2663ffe52671bbd8b58",
        "to": "0x0a6d20adb8f8c78fdde4d55d73bcd6981e929fa0",
        "gas": "0x439cd",
        "value": "0x0",
        "input": "0x37329009000000000000000000000000000000000000000000000000000000000000002000000000000000000000000000000000000000000000000000000000000000000000000000000000000000000000000000000000000000000000000000000001000000000000000000000000000000000000000000000000016345785d8a000000000000000000000000000000000000000000000000000000000000000000000000000000000000000000000000000000000000000000000000000067e58a8a000000000000000000000000388e360edaac94372df1a2663ffe52671bbd8b5800000000000000000000000055555555555555555555555555555555555555550000000000000000000000000000000000000000000000000000000000000100000000000000000000000000000000000000000000000000000000000000008000000000000000000000000000000000000000000000000000000000000000a000000000000000000000000000000000000000000000000000000000000000c000000000000000000000000000000000000000000000000000000000000000e00000000000000000000000000000000000000000000000000000000000000000000000000000000000000000000000000000000000000000000000000000000000000000000000000000000000000000000000000000000000000000000000000000000000000000000000000000000000000000000000000000000000000000",
        "nonce": "0x69",
        "chainId": "0x3e7"
      },
      "additionalContracts": [],
      "isFixedGasLimit": false
    }
  ],
  "receipts": [
    {
      "status": "0x1",
      "cumulativeGasUsed": "0xad283",
      "logs": [
        {
          "address": "0xffaa4a3d97fe9107cef8a3f48c069f577ff76cc1",
          "topics": [
            "0x8c5be1e5ebec7d5bd14f71427d1e84f3dd0314c0f7b2291e5b200ac8c7c3b925",
            "0x000000000000000000000000388e360edaac94372df1a2663ffe52671bbd8b58",
            "0x0000000000000000000000000a6d20adb8f8c78fdde4d55d73bcd6981e929fa0"
          ],
          "data": "0x000000000000000000000000000000000000000000000000016345785d8a0000",
          "blockHash": "0xed543c076399aeea90d510dd7f718da87b4f4743f58e2f47a413d397c5063c34",
          "blockNumber": "0x1996f9",
          "blockTimestamp": "0x67e58a1c",
          "transactionHash": "0xc5a92d401343c448825ff5ab822cb4a0d1a05856affb610f647bf5c8b888573b",
          "transactionIndex": "0x4",
          "logIndex": "0x11",
          "removed": false
        }
      ],
      "logsBloom": "0x00000000000000000000000000000000000000000000000000000040000000000000000000000000000000100040000000000000004000000000400000200000000000000000000000000000000000000000000000000000000000000000000200000000000000000000000000000000000000000000000000000000001000000000000000000000000000000000000000000000000000000000000000000040020000000000000000000000000000000000000000000000000000000000000000000000000000000000000000001000000000000000000000000000000000000010000000000000000000000000000000000000000000000000000000000000",
      "type": "0x2",
      "transactionHash": "0xc5a92d401343c448825ff5ab822cb4a0d1a05856affb610f647bf5c8b888573b",
      "transactionIndex": "0x4",
      "blockHash": "0xed543c076399aeea90d510dd7f718da87b4f4743f58e2f47a413d397c5063c34",
      "blockNumber": "0x1996f9",
      "gasUsed": "0xc7d8",
      "effectiveGasPrice": "0x5f5e101",
      "from": "0x388e360edaac94372df1a2663ffe52671bbd8b58",
      "to": "0xffaa4a3d97fe9107cef8a3f48c069f577ff76cc1",
      "contractAddress": null
    },
    {
      "status": "0x1",
      "cumulativeGasUsed": "0xde1b8",
      "logs": [
        {
          "address": "0xffaa4a3d97fe9107cef8a3f48c069f577ff76cc1",
          "topics": [
            "0xddf252ad1be2c89b69c2b068fc378daa952ba7f163c4a11628f55a4df523b3ef",
            "0x000000000000000000000000388e360edaac94372df1a2663ffe52671bbd8b58",
            "0x0000000000000000000000000a6d20adb8f8c78fdde4d55d73bcd6981e929fa0"
          ],
          "data": "0x000000000000000000000000000000000000000000000000016345785d8a0000",
          "blockHash": "0xed543c076399aeea90d510dd7f718da87b4f4743f58e2f47a413d397c5063c34",
          "blockNumber": "0x1996f9",
          "blockTimestamp": "0x67e58a1c",
          "transactionHash": "0xefcdea207e187a8634a507c7bbb17954fe18046d7442124e8a108ff19b813f66",
          "transactionIndex": "0x5",
          "logIndex": "0x12",
          "removed": false
        },
        {
          "address": "0x5555555555555555555555555555555555555555",
          "topics": [
            "0xddf252ad1be2c89b69c2b068fc378daa952ba7f163c4a11628f55a4df523b3ef",
            "0x0000000000000000000000000a6d20adb8f8c78fdde4d55d73bcd6981e929fa0",
            "0x000000000000000000000000388e360edaac94372df1a2663ffe52671bbd8b58"
          ],
          "data": "0x00000000000000000000000000000000000000000000000001633c604ab0a369",
          "blockHash": "0xed543c076399aeea90d510dd7f718da87b4f4743f58e2f47a413d397c5063c34",
          "blockNumber": "0x1996f9",
          "blockTimestamp": "0x67e58a1c",
          "transactionHash": "0xefcdea207e187a8634a507c7bbb17954fe18046d7442124e8a108ff19b813f66",
          "transactionIndex": "0x5",
          "logIndex": "0x13",
          "removed": false
        },
        {
          "address": "0x0a6d20adb8f8c78fdde4d55d73bcd6981e929fa0",
          "topics": [
            "0x176648f1f11cda284c124490086be42a926ddf0ae887ebe7b1d6b337d8942756",
            "0x000000000000000000000000388e360edaac94372df1a2663ffe52671bbd8b58"
          ],
          "data": "0x0000000000000000000000000000000000000000000000000000000000000001000000000000000000000000000000000000000000000000016345785d8a00000000000000000000000000000000000000000000000000000000091812d95c9700000000000000000000000000000000000000000000000001633c604ab0a369",
          "blockHash": "0xed543c076399aeea90d510dd7f718da87b4f4743f58e2f47a413d397c5063c34",
          "blockNumber": "0x1996f9",
          "blockTimestamp": "0x67e58a1c",
          "transactionHash": "0xefcdea207e187a8634a507c7bbb17954fe18046d7442124e8a108ff19b813f66",
          "transactionIndex": "0x5",
          "logIndex": "0x14",
          "removed": false
        }
      ],
      "logsBloom": "0x00000000000000000000000000000000000001000000000000000040000000000000000000000000000000100040000000000000004000000000400000000000000000000000000000000008000000000000000000000000000000000000000200000000000000000000008000000000000000000000000008000010001000000000000000000000080000000000000000000000000000000000024000000040000000000000000000000000000000000000000000000000100000000000000000000002000000000000000000001000000000000000000000000000000000000000000000080000000000000004000000000000000000000000000000000000",
      "type": "0x2",
      "transactionHash": "0xefcdea207e187a8634a507c7bbb17954fe18046d7442124e8a108ff19b813f66",
      "transactionIndex": "0x5",
      "blockHash": "0xed543c076399aeea90d510dd7f718da87b4f4743f58e2f47a413d397c5063c34",
      "blockNumber": "0x1996f9",
      "gasUsed": "0x30f35",
      "effectiveGasPrice": "0x5f5e101",
      "from": "0x388e360edaac94372df1a2663ffe52671bbd8b58",
      "to": "0x0a6d20adb8f8c78fdde4d55d73bcd6981e929fa0",
      "contractAddress": null
    }
  ],
  "libraries": [],
  "pending": [],
  "returns": {},
  "timestamp": 1743096349,
  "chain": 999,
  "commit": "5f93138"
}