{
  "transactions": [
    {
      "hash": "0xa07a68ce1afe11190356221167c59a6aa5c00fa65e9fae5666bb8e2e04ff9ffc",
      "transactionType": "CALL",
      "contractName": null,
      "contractAddress": "0xffaa4a3d97fe9107cef8a3f48c069f577ff76cc1",
      "function": "approve(address,uint256)",
      "arguments": [
        "0x5365b6EF09253C7aBc0A9286eC578A9f4B413B7D",
        "10000000000000000"
      ],
      "transaction": {
        "from": "0x388e360edaac94372df1a2663ffe52671bbd8b58",
        "to": "0xffaa4a3d97fe9107cef8a3f48c069f577ff76cc1",
        "gas": "0x113f7",
        "value": "0x0",
        "input": "0x095ea7b30000000000000000000000005365b6ef09253c7abc0a9286ec578a9f4b413b7d000000000000000000000000000000000000000000000000002386f26fc10000",
        "nonce": "0xfb",
        "chainId": "0x3e7"
      },
      "additionalContracts": [],
      "isFixedGasLimit": false
    },
    {
      "hash": "0xc156252d769109f65ec3bb12566019986cb12ca8936686e4ee3e913ccc106fd5",
      "transactionType": "CALL",
      "contractName": null,
      "contractAddress": "0x5365b6ef09253c7abc0a9286ec578a9f4b413b7d",
      "function": "swap((bool,bool,uint256,uint256,uint256,address,address,(bytes,bytes,bytes,bytes)))",
      "arguments": [
        "(false, true, 10000000000000000, 0, 1744917758, 0x388E360eDaaC94372df1a2663FFe52671bbd8B58, 0x5555555555555555555555555555555555555555, (0x, 0x, 0x, 0x))"
      ],
      "transaction": {
        "from": "0x388e360edaac94372df1a2663ffe52671bbd8b58",
        "to": "0x5365b6ef09253c7abc0a9286ec578a9f4b413b7d",
        "gas": "0x51226",
        "value": "0x0",
        "input": "0x37329009000000000000000000000000000000000000000000000000000000000000002000000000000000000000000000000000000000000000000000000000000000000000000000000000000000000000000000000000000000000000000000000001000000000000000000000000000000000000000000000000002386f26fc10000000000000000000000000000000000000000000000000000000000000000000000000000000000000000000000000000000000000000000000000000680154fe000000000000000000000000388e360edaac94372df1a2663ffe52671bbd8b5800000000000000000000000055555555555555555555555555555555555555550000000000000000000000000000000000000000000000000000000000000100000000000000000000000000000000000000000000000000000000000000008000000000000000000000000000000000000000000000000000000000000000a000000000000000000000000000000000000000000000000000000000000000c000000000000000000000000000000000000000000000000000000000000000e00000000000000000000000000000000000000000000000000000000000000000000000000000000000000000000000000000000000000000000000000000000000000000000000000000000000000000000000000000000000000000000000000000000000000000000000000000000000000000000000000000000000000000",
        "nonce": "0xfc",
        "chainId": "0x3e7"
      },
      "additionalContracts": [],
      "isFixedGasLimit": false
    }
  ],
  "receipts": [
    {
      "status": "0x1",
      "cumulativeGasUsed": "0x1e2dc",
      "logs": [
        {
          "address": "0xffaa4a3d97fe9107cef8a3f48c069f577ff76cc1",
          "topics": [
            "0x8c5be1e5ebec7d5bd14f71427d1e84f3dd0314c0f7b2291e5b200ac8c7c3b925",
            "0x000000000000000000000000388e360edaac94372df1a2663ffe52671bbd8b58",
            "0x0000000000000000000000005365b6ef09253c7abc0a9286ec578a9f4b413b7d"
          ],
          "data": "0x000000000000000000000000000000000000000000000000002386f26fc10000",
          "blockHash": "0x61903146426dc1ba703a9d4f38c543030d8293b2c3fc24e518c31713287de459",
          "blockNumber": "0x27f22b",
          "blockTimestamp": "0x6801549e",
          "transactionHash": "0xa07a68ce1afe11190356221167c59a6aa5c00fa65e9fae5666bb8e2e04ff9ffc",
          "transactionIndex": "0x2",
          "logIndex": "0x2",
          "removed": false
        }
      ],
      "logsBloom": "0x00000000000000000000000000000000000000000000000000000000000000000000000000000000000000100040000000000000004000000000000000200000000000000000000000000000000000000000000000000000000100000000000200000000000000000000000050000000000000000000000000000000001000000000000000000000000000000000000000000000000000000000000000000040020000000000000000000000000000000000000000000000000000000000000000000000000000000000000000000000000000000000000000000000000000000010000000000000000000000000000000000000000000000000000000000000",
      "type": "0x2",
      "transactionHash": "0xa07a68ce1afe11190356221167c59a6aa5c00fa65e9fae5666bb8e2e04ff9ffc",
      "transactionIndex": "0x2",
      "blockHash": "0x61903146426dc1ba703a9d4f38c543030d8293b2c3fc24e518c31713287de459",
      "blockNumber": "0x27f22b",
      "gasUsed": "0xc7cc",
      "effectiveGasPrice": "0x966ec72",
      "from": "0x388e360edaac94372df1a2663ffe52671bbd8b58",
      "to": "0xffaa4a3d97fe9107cef8a3f48c069f577ff76cc1",
      "contractAddress": null
    },
    {
      "status": "0x1",
      "cumulativeGasUsed": "0xf010e",
      "logs": [
        {
          "address": "0xffaa4a3d97fe9107cef8a3f48c069f577ff76cc1",
          "topics": [
            "0xddf252ad1be2c89b69c2b068fc378daa952ba7f163c4a11628f55a4df523b3ef",
            "0x000000000000000000000000388e360edaac94372df1a2663ffe52671bbd8b58",
            "0x0000000000000000000000005365b6ef09253c7abc0a9286ec578a9f4b413b7d"
          ],
          "data": "0x000000000000000000000000000000000000000000000000002386f26fc10000",
          "blockHash": "0xb6645d5e6f19651348badd26a0507b28cdd90aab60f0e35eada2a7fb3968c07e",
          "blockNumber": "0x27f22c",
          "blockTimestamp": "0x680154a0",
          "transactionHash": "0xc156252d769109f65ec3bb12566019986cb12ca8936686e4ee3e913ccc106fd5",
          "transactionIndex": "0x5",
          "logIndex": "0x14",
          "removed": false
        },
        {
          "address": "0xffaa4a3d97fe9107cef8a3f48c069f577ff76cc1",
          "topics": [
            "0xddf252ad1be2c89b69c2b068fc378daa952ba7f163c4a11628f55a4df523b3ef",
            "0x0000000000000000000000005365b6ef09253c7abc0a9286ec578a9f4b413b7d",
            "0x00000000000000000000000039694eff3b02248929120c73f90347013aec834d"
          ],
          "data": "0x0000000000000000000000000000000000000000000000000000002e8fbcaad0",
          "blockHash": "0xb6645d5e6f19651348badd26a0507b28cdd90aab60f0e35eada2a7fb3968c07e",
          "blockNumber": "0x27f22c",
          "blockTimestamp": "0x680154a0",
          "transactionHash": "0xc156252d769109f65ec3bb12566019986cb12ca8936686e4ee3e913ccc106fd5",
          "transactionIndex": "0x5",
          "logIndex": "0x15",
          "removed": false
        },
        {
          "address": "0x5555555555555555555555555555555555555555",
          "topics": [
            "0xddf252ad1be2c89b69c2b068fc378daa952ba7f163c4a11628f55a4df523b3ef",
            "0x0000000000000000000000005365b6ef09253c7abc0a9286ec578a9f4b413b7d",
            "0x000000000000000000000000388e360edaac94372df1a2663ffe52671bbd8b58"
          ],
          "data": "0x00000000000000000000000000000000000000000000000000238609a111a9f0",
          "blockHash": "0xb6645d5e6f19651348badd26a0507b28cdd90aab60f0e35eada2a7fb3968c07e",
          "blockNumber": "0x27f22c",
          "blockTimestamp": "0x680154a0",
          "transactionHash": "0xc156252d769109f65ec3bb12566019986cb12ca8936686e4ee3e913ccc106fd5",
          "transactionIndex": "0x5",
          "logIndex": "0x16",
          "removed": false
        },
        {
          "address": "0x5365b6ef09253c7abc0a9286ec578a9f4b413b7d",
          "topics": [
            "0x176648f1f11cda284c124490086be42a926ddf0ae887ebe7b1d6b337d8942756",
            "0x000000000000000000000000388e360edaac94372df1a2663ffe52671bbd8b58"
          ],
          "data": "0x0000000000000000000000000000000000000000000000000000000000000001000000000000000000000000000000000000000000000000002386f26fc10000000000000000000000000000000000000000000000000000000000e8ceaf561000000000000000000000000000000000000000000000000000238609a111a9f0",
          "blockHash": "0xb6645d5e6f19651348badd26a0507b28cdd90aab60f0e35eada2a7fb3968c07e",
          "blockNumber": "0x27f22c",
          "blockTimestamp": "0x680154a0",
          "transactionHash": "0xc156252d769109f65ec3bb12566019986cb12ca8936686e4ee3e913ccc106fd5",
          "transactionIndex": "0x5",
          "logIndex": "0x17",
          "removed": false
        }
      ],
      "logsBloom": "0x00000000000000000000000001000000000001000000000000000000000000000000000000000000000000100040000000000000004000000000000000000000000000000000000000000008000000000000000000000000000100000000000200000000000000000000000050000000000000000000000008000010001000000000000000000000080000000000000000000000000000000000020000000040000000000000000000000010000000000000000020000000100000000000004000000022000000000000000000000000000000000000000000000000000000000000000000080000000000000000000000000020000000000000000000000000",
      "type": "0x2",
      "transactionHash": "0xc156252d769109f65ec3bb12566019986cb12ca8936686e4ee3e913ccc106fd5",
      "transactionIndex": "0x5",
      "blockHash": "0xb6645d5e6f19651348badd26a0507b28cdd90aab60f0e35eada2a7fb3968c07e",
      "blockNumber": "0x27f22c",
      "gasUsed": "0x3abd7",
      "effectiveGasPrice": "0x882328f",
      "from": "0x388e360edaac94372df1a2663ffe52671bbd8b58",
      "to": "0x5365b6ef09253c7abc0a9286ec578a9f4b413b7d",
      "contractAddress": null
    }
  ],
  "libraries": [],
  "pending": [],
  "returns": {},
  "timestamp": 1744917665,
  "chain": 999,
  "commit": "bf56312"
}