{
  "transactions": [
    {
      "hash": "0x9a59c26308411a08a4dfc8f93fb85c2b5eca92e05fa8adf754c36a9fa602fdb5",
      "transactionType": "CALL",
      "contractName": null,
      "contractAddress": "0x5555555555555555555555555555555555555555",
      "function": "approve(address,uint256)",
      "arguments": [
        "0x7d19Ee0956C96cF40B91Cdd7f058D64D48198C09",
        "100000000000000000"
      ],
      "transaction": {
        "from": "0x388e360edaac94372df1a2663ffe52671bbd8b58",
        "to": "0x5555555555555555555555555555555555555555",
        "gas": "0xf85b",
        "value": "0x0",
        "input": "0x095ea7b30000000000000000000000007d19ee0956c96cf40b91cdd7f058d64d48198c09000000000000000000000000000000000000000000000000016345785d8a0000",
        "nonce": "0x17",
        "chainId": "0x3e7"
      },
      "additionalContracts": [],
      "isFixedGasLimit": false
    },
    {
      "hash": "0x4e0d07618478a621c55f29b2894c183ef33187c5dd9280a2e74987c9c4654a21",
      "transactionType": "CALL",
      "contractName": null,
      "contractAddress": "0x7d19ee0956c96cf40b91cdd7f058d64d48198c09",
      "function": "swap((bool,bool,uint256,uint256,uint256,address,address,(bytes,bytes,bytes,bytes)))",
      "arguments": [
        "(false, false, 100000000000000000, 0, 1741794336, 0x388E360eDaaC94372df1a2663FFe52671bbd8B58, 0xfFaa4a3D97fE9107Cef8a3F48c069F577Ff76cC1, (0x, 0x, 0x, 0x))"
      ],
      "transaction": {
        "from": "0x388e360edaac94372df1a2663ffe52671bbd8b58",
        "to": "0x7d19ee0956c96cf40b91cdd7f058d64d48198c09",
        "gas": "0x3a83f",
        "value": "0x0",
        "input": "0x37329009000000000000000000000000000000000000000000000000000000000000002000000000000000000000000000000000000000000000000000000000000000000000000000000000000000000000000000000000000000000000000000000000000000000000000000000000000000000000000000000000016345785d8a000000000000000000000000000000000000000000000000000000000000000000000000000000000000000000000000000000000000000000000000000067d1ac20000000000000000000000000388e360edaac94372df1a2663ffe52671bbd8b58000000000000000000000000ffaa4a3d97fe9107cef8a3f48c069f577ff76cc10000000000000000000000000000000000000000000000000000000000000100000000000000000000000000000000000000000000000000000000000000008000000000000000000000000000000000000000000000000000000000000000a000000000000000000000000000000000000000000000000000000000000000c000000000000000000000000000000000000000000000000000000000000000e00000000000000000000000000000000000000000000000000000000000000000000000000000000000000000000000000000000000000000000000000000000000000000000000000000000000000000000000000000000000000000000000000000000000000000000000000000000000000000000000000000000000000000",
        "nonce": "0x18",
        "chainId": "0x3e7"
      },
      "additionalContracts": [],
      "isFixedGasLimit": false
    }
  ],
  "receipts": [
    {
      "status": "0x1",
      "cumulativeGasUsed": "0xb3cf",
      "logs": [
        {
          "address": "0x5555555555555555555555555555555555555555",
          "topics": [
            "0x8c5be1e5ebec7d5bd14f71427d1e84f3dd0314c0f7b2291e5b200ac8c7c3b925",
            "0x000000000000000000000000388e360edaac94372df1a2663ffe52671bbd8b58",
            "0x0000000000000000000000007d19ee0956c96cf40b91cdd7f058d64d48198c09"
          ],
          "data": "0x000000000000000000000000000000000000000000000000016345785d8a0000",
          "blockHash": "0x65ed43109337d9b66c1d5988c8cf0a3bea975bf9b415412e8ba4ebefc9e963d8",
          "blockNumber": "0xf53cc",
          "blockTimestamp": "0x67d1abb8",
          "transactionHash": "0x9a59c26308411a08a4dfc8f93fb85c2b5eca92e05fa8adf754c36a9fa602fdb5",
          "transactionIndex": "0x0",
          "logIndex": "0x0",
          "removed": false
        }
      ],
      "logsBloom": "0x00000000000000080000000000000000000000000000000000000080000000000000000000000000000000100000000000000000004000000000000000200000000000000000000000000000000000000000000000000000000000000000000200000000000000000000000000000000000000000000000008000000000000000000000000000000080000000000000000000000000000000000000000000000020000000000000000000000000000000000000000000000000000000000000000000000000040000000000000000000000000000000000000000000000000000010000000080000000000000000000000000000000000000000000000000000",
      "type": "0x2",
      "transactionHash": "0x9a59c26308411a08a4dfc8f93fb85c2b5eca92e05fa8adf754c36a9fa602fdb5",
      "transactionIndex": "0x0",
      "blockHash": "0x65ed43109337d9b66c1d5988c8cf0a3bea975bf9b415412e8ba4ebefc9e963d8",
      "blockNumber": "0xf53cc",
      "gasUsed": "0xb3cf",
      "effectiveGasPrice": "0x5f5e101",
      "from": "0x388e360edaac94372df1a2663ffe52671bbd8b58",
      "to": "0x5555555555555555555555555555555555555555",
      "contractAddress": null
    },
    {
      "status": "0x1",
      "cumulativeGasUsed": "0x359a3",
      "logs": [
        {
          "address": "0x5555555555555555555555555555555555555555",
          "topics": [
            "0xddf252ad1be2c89b69c2b068fc378daa952ba7f163c4a11628f55a4df523b3ef",
            "0x000000000000000000000000388e360edaac94372df1a2663ffe52671bbd8b58",
            "0x0000000000000000000000007d19ee0956c96cf40b91cdd7f058d64d48198c09"
          ],
          "data": "0x000000000000000000000000000000000000000000000000016345785d8a0000",
          "blockHash": "0x65ed43109337d9b66c1d5988c8cf0a3bea975bf9b415412e8ba4ebefc9e963d8",
          "blockNumber": "0xf53cc",
          "blockTimestamp": "0x67d1abb8",
          "transactionHash": "0x4e0d07618478a621c55f29b2894c183ef33187c5dd9280a2e74987c9c4654a21",
          "transactionIndex": "0x1",
          "logIndex": "0x1",
          "removed": false
        },
        {
          "address": "0xffaa4a3d97fe9107cef8a3f48c069f577ff76cc1",
          "topics": [
            "0xddf252ad1be2c89b69c2b068fc378daa952ba7f163c4a11628f55a4df523b3ef",
            "0x0000000000000000000000007d19ee0956c96cf40b91cdd7f058d64d48198c09",
            "0x000000000000000000000000388e360edaac94372df1a2663ffe52671bbd8b58"
          ],
          "data": "0x000000000000000000000000000000000000000000000000016345785d8a0000",
          "blockHash": "0x65ed43109337d9b66c1d5988c8cf0a3bea975bf9b415412e8ba4ebefc9e963d8",
          "blockNumber": "0xf53cc",
          "blockTimestamp": "0x67d1abb8",
          "transactionHash": "0x4e0d07618478a621c55f29b2894c183ef33187c5dd9280a2e74987c9c4654a21",
          "transactionIndex": "0x1",
          "logIndex": "0x2",
          "removed": false
        },
        {
          "address": "0x7d19ee0956c96cf40b91cdd7f058d64d48198c09",
          "topics": [
            "0x176648f1f11cda284c124490086be42a926ddf0ae887ebe7b1d6b337d8942756",
            "0x000000000000000000000000388e360edaac94372df1a2663ffe52671bbd8b58"
          ],
          "data": "0x0000000000000000000000000000000000000000000000000000000000000000000000000000000000000000000000000000000000000000016345785d8a00000000000000000000000000000000000000000000000000000000000000000000000000000000000000000000000000000000000000000000016345785d8a0000",
          "blockHash": "0x65ed43109337d9b66c1d5988c8cf0a3bea975bf9b415412e8ba4ebefc9e963d8",
          "blockNumber": "0xf53cc",
          "blockTimestamp": "0x67d1abb8",
          "transactionHash": "0x4e0d07618478a621c55f29b2894c183ef33187c5dd9280a2e74987c9c4654a21",
          "transactionIndex": "0x1",
          "logIndex": "0x3",
          "removed": false
        }
      ],
      "logsBloom": "0x00000000000000080000000000000000000001000000000000000080000000000000000000000000000000100040000000000000004000000000000000000000000000000000000002000008000000000000000000000000000000000000000200000000000000000000000000000000000000000000000008000010001000000000000000000000080000000000000000000000000000000000020000000040000000000000000000000000000000000000000000000000100000000000000000000002000040000000000000000000000000000000000000000000000000000000000000080000000000000000400000000000000200000000000000000000",
      "type": "0x2",
      "transactionHash": "0x4e0d07618478a621c55f29b2894c183ef33187c5dd9280a2e74987c9c4654a21",
      "transactionIndex": "0x1",
      "blockHash": "0x65ed43109337d9b66c1d5988c8cf0a3bea975bf9b415412e8ba4ebefc9e963d8",
      "blockNumber": "0xf53cc",
      "gasUsed": "0x2a5d4",
      "effectiveGasPrice": "0x5f5e101",
      "from": "0x388e360edaac94372df1a2663ffe52671bbd8b58",
      "to": "0x7d19ee0956c96cf40b91cdd7f058d64d48198c09",
      "contractAddress": null
    }
  ],
  "libraries": [],
  "pending": [],
  "returns": {},
  "timestamp": 1741794234,
  "chain": 999,
  "commit": "d189365"
}