{
  "transactions": [
    {
      "hash": "0xebd1a7c677902a6cf34a7594d3079f2ee686796e37a32be383e282b3aa43c084",
      "transactionType": "CALL",
      "contractName": null,
      "contractAddress": "0xffaa4a3d97fe9107cef8a3f48c069f577ff76cc1",
      "function": "approve(address,uint256)",
      "arguments": [
        "0x7d19Ee0956C96cF40B91Cdd7f058D64D48198C09",
        "2000000000000000000"
      ],
      "transaction": {
        "from": "0x388e360edaac94372df1a2663ffe52671bbd8b58",
        "to": "0xffaa4a3d97fe9107cef8a3f48c069f577ff76cc1",
        "gas": "0x11408",
        "value": "0x0",
        "input": "0x095ea7b30000000000000000000000007d19ee0956c96cf40b91cdd7f058d64d48198c090000000000000000000000000000000000000000000000001bc16d674ec80000",
        "nonce": "0x1a",
        "chainId": "0x3e7"
      },
      "additionalContracts": [],
      "isFixedGasLimit": false
    },
    {
      "hash": "0xbdc2d300738b3bfdbb546714062832aba320bbffc288f8af0d28f3e15e3b23b6",
      "transactionType": "CALL",
      "contractName": null,
      "contractAddress": "0x7d19ee0956c96cf40b91cdd7f058d64d48198c09",
      "function": "swap((bool,bool,uint256,uint256,uint256,address,address,(bytes,bytes,bytes,bytes)))",
      "arguments": [
        "(false, true, 2000000000000000000, 0, 1741808104, 0x388E360eDaaC94372df1a2663FFe52671bbd8B58, 0x5555555555555555555555555555555555555555, (0x, 0x, 0x, 0x))"
      ],
      "transaction": {
        "from": "0x388e360edaac94372df1a2663ffe52671bbd8b58",
        "to": "0x7d19ee0956c96cf40b91cdd7f058d64d48198c09",
        "gas": "0x42799",
        "value": "0x0",
        "input": "0x373290090000000000000000000000000000000000000000000000000000000000000020000000000000000000000000000000000000000000000000000000000000000000000000000000000000000000000000000000000000000000000000000000010000000000000000000000000000000000000000000000001bc16d674ec8000000000000000000000000000000000000000000000000000000000000000000000000000000000000000000000000000000000000000000000000000067d1e1e8000000000000000000000000388e360edaac94372df1a2663ffe52671bbd8b5800000000000000000000000055555555555555555555555555555555555555550000000000000000000000000000000000000000000000000000000000000100000000000000000000000000000000000000000000000000000000000000008000000000000000000000000000000000000000000000000000000000000000a000000000000000000000000000000000000000000000000000000000000000c000000000000000000000000000000000000000000000000000000000000000e00000000000000000000000000000000000000000000000000000000000000000000000000000000000000000000000000000000000000000000000000000000000000000000000000000000000000000000000000000000000000000000000000000000000000000000000000000000000000000000000000000000000000000",
        "nonce": "0x1b",
        "chainId": "0x3e7"
      },
      "additionalContracts": [],
      "isFixedGasLimit": false
    }
  ],
  "receipts": [
    {
      "status": "0x1",
      "cumulativeGasUsed": "0x20895",
      "logs": [
        {
          "address": "0xffaa4a3d97fe9107cef8a3f48c069f577ff76cc1",
          "topics": [
            "0x8c5be1e5ebec7d5bd14f71427d1e84f3dd0314c0f7b2291e5b200ac8c7c3b925",
            "0x000000000000000000000000388e360edaac94372df1a2663ffe52671bbd8b58",
            "0x0000000000000000000000007d19ee0956c96cf40b91cdd7f058d64d48198c09"
          ],
          "data": "0x0000000000000000000000000000000000000000000000001bc16d674ec80000",
          "blockHash": "0x280fecb0840e3ac1c64decba4467a8b64c6467715dcaea5c33a7fad7a62bd136",
          "blockNumber": "0xf6f9a",
          "blockTimestamp": "0x67d1e188",
          "transactionHash": "0xebd1a7c677902a6cf34a7594d3079f2ee686796e37a32be383e282b3aa43c084",
          "transactionIndex": "0x1",
          "logIndex": "0x2",
          "removed": false
        }
      ],
      "logsBloom": "0x00000000000000080000000000000000000000000000000000000080000000000000000000000000000000100040000000000000004000000000000000200000000000000000000000000000000000000000000000000000000000000000000200000000000000000000000000000000000000000000000000000000001000000000000000000000000000000000000000000000000000000000000000000040020000000000000000000000000000000000000000000000000000000000000000000000000040000000000000000000000000000000000000000000000000000010000000000000000000000000000000000000000000000000000000000000",
      "type": "0x2",
      "transactionHash": "0xebd1a7c677902a6cf34a7594d3079f2ee686796e37a32be383e282b3aa43c084",
      "transactionIndex": "0x1",
      "blockHash": "0x280fecb0840e3ac1c64decba4467a8b64c6467715dcaea5c33a7fad7a62bd136",
      "blockNumber": "0xf6f9a",
      "gasUsed": "0xc7d8",
      "effectiveGasPrice": "0x5f5e101",
      "from": "0x388e360edaac94372df1a2663ffe52671bbd8b58",
      "to": "0xffaa4a3d97fe9107cef8a3f48c069f577ff76cc1",
      "contractAddress": null
    },
    {
      "status": "0x1",
      "cumulativeGasUsed": "0x50a9c",
      "logs": [
        {
          "address": "0xffaa4a3d97fe9107cef8a3f48c069f577ff76cc1",
          "topics": [
            "0xddf252ad1be2c89b69c2b068fc378daa952ba7f163c4a11628f55a4df523b3ef",
            "0x000000000000000000000000388e360edaac94372df1a2663ffe52671bbd8b58",
            "0x0000000000000000000000007d19ee0956c96cf40b91cdd7f058d64d48198c09"
          ],
          "data": "0x0000000000000000000000000000000000000000000000001bc16d674ec80000",
          "blockHash": "0x280fecb0840e3ac1c64decba4467a8b64c6467715dcaea5c33a7fad7a62bd136",
          "blockNumber": "0xf6f9a",
          "blockTimestamp": "0x67d1e188",
          "transactionHash": "0xbdc2d300738b3bfdbb546714062832aba320bbffc288f8af0d28f3e15e3b23b6",
          "transactionIndex": "0x2",
          "logIndex": "0x3",
          "removed": false
        },
        {
          "address": "0x5555555555555555555555555555555555555555",
          "topics": [
            "0xddf252ad1be2c89b69c2b068fc378daa952ba7f163c4a11628f55a4df523b3ef",
            "0x0000000000000000000000007d19ee0956c96cf40b91cdd7f058d64d48198c09",
            "0x000000000000000000000000388e360edaac94372df1a2663ffe52671bbd8b58"
          ],
          "data": "0x0000000000000000000000000000000000000000000000001ba51e6f0e365fdf",
          "blockHash": "0x280fecb0840e3ac1c64decba4467a8b64c6467715dcaea5c33a7fad7a62bd136",
          "blockNumber": "0xf6f9a",
          "blockTimestamp": "0x67d1e188",
          "transactionHash": "0xbdc2d300738b3bfdbb546714062832aba320bbffc288f8af0d28f3e15e3b23b6",
          "transactionIndex": "0x2",
          "logIndex": "0x4",
          "removed": false
        },
        {
          "address": "0x7d19ee0956c96cf40b91cdd7f058d64d48198c09",
          "topics": [
            "0x176648f1f11cda284c124490086be42a926ddf0ae887ebe7b1d6b337d8942756",
            "0x000000000000000000000000388e360edaac94372df1a2663ffe52671bbd8b58"
          ],
          "data": "0x00000000000000000000000000000000000000000000000000000000000000010000000000000000000000000000000000000000000000001bc16d674ec80000000000000000000000000000000000000000000000000000001c4ef84091a0210000000000000000000000000000000000000000000000001ba51e6f0e365fdf",
          "blockHash": "0x280fecb0840e3ac1c64decba4467a8b64c6467715dcaea5c33a7fad7a62bd136",
          "blockNumber": "0xf6f9a",
          "blockTimestamp": "0x67d1e188",
          "transactionHash": "0xbdc2d300738b3bfdbb546714062832aba320bbffc288f8af0d28f3e15e3b23b6",
          "transactionIndex": "0x2",
          "logIndex": "0x5",
          "removed": false
        }
      ],
      "logsBloom": "0x00000000000000080000000000000000000001000000000000000080000000000000000000000000000000100040000000000000004000000000000000000000000000000000000002000008000000000000000000000000000000000000000200000000000000000000000000000000000000000000000008000010001000000000000000000000080000000000000000000000000000000000020000000040000000000000000000000000000000000000000000000000100000000000000000000002000040000000000000000000000000000000000000000000000000000000000000080000000000000000400000000000000200000000000000000000",
      "type": "0x2",
      "transactionHash": "0xbdc2d300738b3bfdbb546714062832aba320bbffc288f8af0d28f3e15e3b23b6",
      "transactionIndex": "0x2",
      "blockHash": "0x280fecb0840e3ac1c64decba4467a8b64c6467715dcaea5c33a7fad7a62bd136",
      "blockNumber": "0xf6f9a",
      "gasUsed": "0x30207",
      "effectiveGasPrice": "0x5f5e101",
      "from": "0x388e360edaac94372df1a2663ffe52671bbd8b58",
      "to": "0x7d19ee0956c96cf40b91cdd7f058d64d48198c09",
      "contractAddress": null
    }
  ],
  "libraries": [],
  "pending": [],
  "returns": {},
  "timestamp": 1741808008,
  "chain": 999,
  "commit": "d189365"
}