{
  "transactions": [
    {
      "hash": "0x02a6d58ceaa514472849d55bec92e52ae7229e674d557d31b36775bcd5c68337",
      "transactionType": "CALL",
      "contractName": null,
      "contractAddress": "0xffaa4a3d97fe9107cef8a3f48c069f577ff76cc1",
      "function": "approve(address,uint256)",
      "arguments": [
        "0x7d19Ee0956C96cF40B91Cdd7f058D64D48198C09",
        "10000000000000000"
      ],
      "transaction": {
        "from": "0x388e360edaac94372df1a2663ffe52671bbd8b58",
        "to": "0xffaa4a3d97fe9107cef8a3f48c069f577ff76cc1",
        "gas": "0x113f7",
        "value": "0x0",
        "input": "0x095ea7b30000000000000000000000007d19ee0956c96cf40b91cdd7f058d64d48198c09000000000000000000000000000000000000000000000000002386f26fc10000",
        "nonce": "0x28",
        "chainId": "0x3e7"
      },
      "additionalContracts": [],
      "isFixedGasLimit": false
    },
    {
      "hash": "0x17d0baafca9903b31763d98e7dfd8b74496b1fdda37a2caca85d8182736420e3",
      "transactionType": "CALL",
      "contractName": null,
      "contractAddress": "0x7d19ee0956c96cf40b91cdd7f058d64d48198c09",
      "function": "swap((bool,bool,uint256,uint256,uint256,address,address,(bytes,bytes,bytes,bytes)))",
      "arguments": [
        "(false, true, 10000000000000000, 0, 1742478760, 0x388E360eDaaC94372df1a2663FFe52671bbd8B58, 0x5555555555555555555555555555555555555555, (0x, 0x, 0x, 0x))"
      ],
      "transaction": {
        "from": "0x388e360edaac94372df1a2663ffe52671bbd8b58",
        "to": "0x7d19ee0956c96cf40b91cdd7f058d64d48198c09",
        "gas": "0x46567",
        "value": "0x0",
        "input": "0x37329009000000000000000000000000000000000000000000000000000000000000002000000000000000000000000000000000000000000000000000000000000000000000000000000000000000000000000000000000000000000000000000000001000000000000000000000000000000000000000000000000002386f26fc1000000000000000000000000000000000000000000000000000000000000000000000000000000000000000000000000000000000000000000000000000067dc1da8000000000000000000000000388e360edaac94372df1a2663ffe52671bbd8b5800000000000000000000000055555555555555555555555555555555555555550000000000000000000000000000000000000000000000000000000000000100000000000000000000000000000000000000000000000000000000000000008000000000000000000000000000000000000000000000000000000000000000a000000000000000000000000000000000000000000000000000000000000000c000000000000000000000000000000000000000000000000000000000000000e00000000000000000000000000000000000000000000000000000000000000000000000000000000000000000000000000000000000000000000000000000000000000000000000000000000000000000000000000000000000000000000000000000000000000000000000000000000000000000000000000000000000000000",
        "nonce": "0x29",
        "chainId": "0x3e7"
      },
      "additionalContracts": [],
      "isFixedGasLimit": false
    }
  ],
  "receipts": [
    {
      "status": "0x1",
      "cumulativeGasUsed": "0xc7cc",
      "logs": [
        {
          "address": "0xffaa4a3d97fe9107cef8a3f48c069f577ff76cc1",
          "topics": [
            "0x8c5be1e5ebec7d5bd14f71427d1e84f3dd0314c0f7b2291e5b200ac8c7c3b925",
            "0x000000000000000000000000388e360edaac94372df1a2663ffe52671bbd8b58",
            "0x0000000000000000000000007d19ee0956c96cf40b91cdd7f058d64d48198c09"
          ],
          "data": "0x000000000000000000000000000000000000000000000000002386f26fc10000",
          "blockHash": "0x934e90a0b8d3a25a99e45c50a06013c182d6c108f21deeb37fb1dd040c4d9959",
          "blockNumber": "0x14b8eb",
          "blockTimestamp": "0x67dc1d3a",
          "transactionHash": "0x02a6d58ceaa514472849d55bec92e52ae7229e674d557d31b36775bcd5c68337",
          "transactionIndex": "0x0",
          "logIndex": "0x0",
          "removed": false
        }
      ],
      "logsBloom": "0x00000000000000080000000000000000000000000000000000000080000000000000000000000000000000100040000000000000004000000000000000200000000000000000000000000000000000000000000000000000000000000000000200000000000000000000000000000000000000000000000000000000001000000000000000000000000000000000000000000000000000000000000000000040020000000000000000000000000000000000000000000000000000000000000000000000000040000000000000000000000000000000000000000000000000000010000000000000000000000000000000000000000000000000000000000000",
      "type": "0x2",
      "transactionHash": "0x02a6d58ceaa514472849d55bec92e52ae7229e674d557d31b36775bcd5c68337",
      "transactionIndex": "0x0",
      "blockHash": "0x934e90a0b8d3a25a99e45c50a06013c182d6c108f21deeb37fb1dd040c4d9959",
      "blockNumber": "0x14b8eb",
      "gasUsed": "0xc7cc",
      "effectiveGasPrice": "0x5f5e101",
      "from": "0x388e360edaac94372df1a2663ffe52671bbd8b58",
      "to": "0xffaa4a3d97fe9107cef8a3f48c069f577ff76cc1",
      "contractAddress": null
    },
    {
      "status": "0x1",
      "cumulativeGasUsed": "0x3c94e",
      "logs": [
        {
          "address": "0xffaa4a3d97fe9107cef8a3f48c069f577ff76cc1",
          "topics": [
            "0xddf252ad1be2c89b69c2b068fc378daa952ba7f163c4a11628f55a4df523b3ef",
            "0x000000000000000000000000388e360edaac94372df1a2663ffe52671bbd8b58",
            "0x0000000000000000000000007d19ee0956c96cf40b91cdd7f058d64d48198c09"
          ],
          "data": "0x000000000000000000000000000000000000000000000000002386f26fc10000",
          "blockHash": "0x934e90a0b8d3a25a99e45c50a06013c182d6c108f21deeb37fb1dd040c4d9959",
          "blockNumber": "0x14b8eb",
          "blockTimestamp": "0x67dc1d3a",
          "transactionHash": "0x17d0baafca9903b31763d98e7dfd8b74496b1fdda37a2caca85d8182736420e3",
          "transactionIndex": "0x1",
          "logIndex": "0x1",
          "removed": false
        },
        {
          "address": "0x5555555555555555555555555555555555555555",
          "topics": [
            "0xddf252ad1be2c89b69c2b068fc378daa952ba7f163c4a11628f55a4df523b3ef",
            "0x0000000000000000000000007d19ee0956c96cf40b91cdd7f058d64d48198c09",
            "0x000000000000000000000000388e360edaac94372df1a2663ffe52671bbd8b58"
          ],
          "data": "0x00000000000000000000000000000000000000000000000000238609a111a9f0",
          "blockHash": "0x934e90a0b8d3a25a99e45c50a06013c182d6c108f21deeb37fb1dd040c4d9959",
          "blockNumber": "0x14b8eb",
          "blockTimestamp": "0x67dc1d3a",
          "transactionHash": "0x17d0baafca9903b31763d98e7dfd8b74496b1fdda37a2caca85d8182736420e3",
          "transactionIndex": "0x1",
          "logIndex": "0x2",
          "removed": false
        },
        {
          "address": "0x7d19ee0956c96cf40b91cdd7f058d64d48198c09",
          "topics": [
            "0x176648f1f11cda284c124490086be42a926ddf0ae887ebe7b1d6b337d8942756",
            "0x000000000000000000000000388e360edaac94372df1a2663ffe52671bbd8b58"
          ],
          "data": "0x0000000000000000000000000000000000000000000000000000000000000001000000000000000000000000000000000000000000000000002386f26fc10000000000000000000000000000000000000000000000000000000000e8ceaf561000000000000000000000000000000000000000000000000000238609a111a9f0",
          "blockHash": "0x934e90a0b8d3a25a99e45c50a06013c182d6c108f21deeb37fb1dd040c4d9959",
          "blockNumber": "0x14b8eb",
          "blockTimestamp": "0x67dc1d3a",
          "transactionHash": "0x17d0baafca9903b31763d98e7dfd8b74496b1fdda37a2caca85d8182736420e3",
          "transactionIndex": "0x1",
          "logIndex": "0x3",
          "removed": false
        }
      ],
      "logsBloom": "0x00000000000000080000000000000000000001000000000000000080000000000000000000000000000000100040000000000000004000000000000000000000000000000000000002000008000000000000000000000000000000000000000200000000000000000000000000000000000000000000000008000010001000000000000000000000080000000000000000000000000000000000020000000040000000000000000000000000000000000000000000000000100000000000000000000002000040000000000000000000000000000000000000000000000000000000000000080000000000000000400000000000000200000000000000000000",
      "type": "0x2",
      "transactionHash": "0x17d0baafca9903b31763d98e7dfd8b74496b1fdda37a2caca85d8182736420e3",
      "transactionIndex": "0x1",
      "blockHash": "0x934e90a0b8d3a25a99e45c50a06013c182d6c108f21deeb37fb1dd040c4d9959",
      "blockNumber": "0x14b8eb",
      "gasUsed": "0x30182",
      "effectiveGasPrice": "0x5f5e101",
      "from": "0x388e360edaac94372df1a2663ffe52671bbd8b58",
      "to": "0x7d19ee0956c96cf40b91cdd7f058d64d48198c09",
      "contractAddress": null
    }
  ],
  "libraries": [],
  "pending": [],
  "returns": {},
  "timestamp": 1742478651,
  "chain": 999,
  "commit": "69aa644"
}