{
  "transactions": [
    {
      "hash": "0xd832ccfa69c6f8efb3ed33f80fb8b00e1c005a0683bac5ce5a290f8f57e8d036",
      "transactionType": "CALL",
      "contractName": null,
      "contractAddress": "0x5555555555555555555555555555555555555555",
      "function": "approve(address,uint256)",
      "arguments": [
        "0x0A6d20adb8f8c78fdDe4D55D73bcD6981e929fa0",
        "100000000000000000"
      ],
      "transaction": {
        "from": "0x388e360edaac94372df1a2663ffe52671bbd8b58",
        "to": "0x5555555555555555555555555555555555555555",
        "gas": "0xf85b",
        "value": "0x0",
        "input": "0x095ea7b30000000000000000000000000a6d20adb8f8c78fdde4d55d73bcd6981e929fa0000000000000000000000000000000000000000000000000016345785d8a0000",
        "nonce": "0x6e",
        "chainId": "0x3e7"
      },
      "additionalContracts": [],
      "isFixedGasLimit": false
    },
    {
      "hash": "0x7c168d9471746d4bbc0d35f96593a0bc0f28be4abbb8b0a495a6cd5a1ce8b24e",
      "transactionType": "CALL",
      "contractName": null,
      "contractAddress": "0x0a6d20adb8f8c78fdde4d55d73bcd6981e929fa0",
      "function": "swap((bool,bool,uint256,uint256,uint256,address,address,(bytes,bytes,bytes,bytes)))",
      "arguments": [
        "(false, false, 100000000000000000, 0, 1743096608, 0x388E360eDaaC94372df1a2663FFe52671bbd8B58, 0xfFaa4a3D97fE9107Cef8a3F48c069F577Ff76cC1, (0x, 0x, 0x, 0x))"
      ],
      "transaction": {
        "from": "0x388e360edaac94372df1a2663ffe52671bbd8b58",
        "to": "0x0a6d20adb8f8c78fdde4d55d73bcd6981e929fa0",
        "gas": "0x3b89b",
        "value": "0x0",
        "input": "0x37329009000000000000000000000000000000000000000000000000000000000000002000000000000000000000000000000000000000000000000000000000000000000000000000000000000000000000000000000000000000000000000000000000000000000000000000000000000000000000000000000000016345785d8a000000000000000000000000000000000000000000000000000000000000000000000000000000000000000000000000000000000000000000000000000067e58b20000000000000000000000000388e360edaac94372df1a2663ffe52671bbd8b58000000000000000000000000ffaa4a3d97fe9107cef8a3f48c069f577ff76cc10000000000000000000000000000000000000000000000000000000000000100000000000000000000000000000000000000000000000000000000000000008000000000000000000000000000000000000000000000000000000000000000a000000000000000000000000000000000000000000000000000000000000000c000000000000000000000000000000000000000000000000000000000000000e00000000000000000000000000000000000000000000000000000000000000000000000000000000000000000000000000000000000000000000000000000000000000000000000000000000000000000000000000000000000000000000000000000000000000000000000000000000000000000000000000000000000000000",
        "nonce": "0x6f",
        "chainId": "0x3e7"
      },
      "additionalContracts": [],
      "isFixedGasLimit": false
    }
  ],
  "receipts": [
    {
      "status": "0x1",
      "cumulativeGasUsed": "0xb3cf",
      "logs": [
        {
          "address": "0x5555555555555555555555555555555555555555",
          "topics": [
            "0x8c5be1e5ebec7d5bd14f71427d1e84f3dd0314c0f7b2291e5b200ac8c7c3b925",
            "0x000000000000000000000000388e360edaac94372df1a2663ffe52671bbd8b58",
            "0x0000000000000000000000000a6d20adb8f8c78fdde4d55d73bcd6981e929fa0"
          ],
          "data": "0x000000000000000000000000000000000000000000000000016345785d8a0000",
          "blockHash": "0x242e926f1155dbe136362014028726c053fc363f1b94c46f20724d8a8c9bc5a2",
          "blockNumber": "0x199748",
          "blockTimestamp": "0x67e58ab4",
          "transactionHash": "0xd832ccfa69c6f8efb3ed33f80fb8b00e1c005a0683bac5ce5a290f8f57e8d036",
          "transactionIndex": "0x0",
          "logIndex": "0x0",
          "removed": false
        }
      ],
      "logsBloom": "0x00000000000000000000000000000000000000000000000000000040000000000000000000000000000000100000000000000000004000000000400000200000000000000000000000000000000000000000000000000000000000000000000200000000000000000000000000000000000000000000000008000000000000000000000000000000080000000000000000000000000000000000000000000000020000000000000000000000000000000000000000000000000000000000000000000000000000000000000000001000000000000000000000000000000000000010000000080000000000000000000000000000000000000000000000000000",
      "type": "0x2",
      "transactionHash": "0xd832ccfa69c6f8efb3ed33f80fb8b00e1c005a0683bac5ce5a290f8f57e8d036",
      "transactionIndex": "0x0",
      "blockHash": "0x242e926f1155dbe136362014028726c053fc363f1b94c46f20724d8a8c9bc5a2",
      "blockNumber": "0x199748",
      "gasUsed": "0xb3cf",
      "effectiveGasPrice": "0x5f5e101",
      "from": "0x388e360edaac94372df1a2663ffe52671bbd8b58",
      "to": "0x5555555555555555555555555555555555555555",
      "contractAddress": null
    },
    {
      "status": "0x1",
      "cumulativeGasUsed": "0x3657b",
      "logs": [
        {
          "address": "0x5555555555555555555555555555555555555555",
          "topics": [
            "0xddf252ad1be2c89b69c2b068fc378daa952ba7f163c4a11628f55a4df523b3ef",
            "0x000000000000000000000000388e360edaac94372df1a2663ffe52671bbd8b58",
            "0x0000000000000000000000000a6d20adb8f8c78fdde4d55d73bcd6981e929fa0"
          ],
          "data": "0x000000000000000000000000000000000000000000000000016345785d8a0000",
          "blockHash": "0x242e926f1155dbe136362014028726c053fc363f1b94c46f20724d8a8c9bc5a2",
          "blockNumber": "0x199748",
          "blockTimestamp": "0x67e58ab4",
          "transactionHash": "0x7c168d9471746d4bbc0d35f96593a0bc0f28be4abbb8b0a495a6cd5a1ce8b24e",
          "transactionIndex": "0x1",
          "logIndex": "0x1",
          "removed": false
        },
        {
          "address": "0xffaa4a3d97fe9107cef8a3f48c069f577ff76cc1",
          "topics": [
            "0xddf252ad1be2c89b69c2b068fc378daa952ba7f163c4a11628f55a4df523b3ef",
            "0x0000000000000000000000000a6d20adb8f8c78fdde4d55d73bcd6981e929fa0",
            "0x000000000000000000000000388e360edaac94372df1a2663ffe52671bbd8b58"
          ],
          "data": "0x000000000000000000000000000000000000000000000000016345785d8a0000",
          "blockHash": "0x242e926f1155dbe136362014028726c053fc363f1b94c46f20724d8a8c9bc5a2",
          "blockNumber": "0x199748",
          "blockTimestamp": "0x67e58ab4",
          "transactionHash": "0x7c168d9471746d4bbc0d35f96593a0bc0f28be4abbb8b0a495a6cd5a1ce8b24e",
          "transactionIndex": "0x1",
          "logIndex": "0x2",
          "removed": false
        },
        {
          "address": "0x0a6d20adb8f8c78fdde4d55d73bcd6981e929fa0",
          "topics": [
            "0x176648f1f11cda284c124490086be42a926ddf0ae887ebe7b1d6b337d8942756",
            "0x000000000000000000000000388e360edaac94372df1a2663ffe52671bbd8b58"
          ],
          "data": "0x0000000000000000000000000000000000000000000000000000000000000000000000000000000000000000000000000000000000000000016345785d8a00000000000000000000000000000000000000000000000000000000000000000000000000000000000000000000000000000000000000000000016345785d8a0000",
          "blockHash": "0x242e926f1155dbe136362014028726c053fc363f1b94c46f20724d8a8c9bc5a2",
          "blockNumber": "0x199748",
          "blockTimestamp": "0x67e58ab4",
          "transactionHash": "0x7c168d9471746d4bbc0d35f96593a0bc0f28be4abbb8b0a495a6cd5a1ce8b24e",
          "transactionIndex": "0x1",
          "logIndex": "0x3",
          "removed": false
        }
      ],
      "logsBloom": "0x00000000000000000000000000000000000001000000000000000040000000000000000000000000000000100040000000000000004000000000400000000000000000000000000000000008000000000000000000000000000000000000000200000000000000000000008000000000000000000000000008000010001000000000000000000000080000000000000000000000000000000000024000000040000000000000000000000000000000000000000000000000100000000000000000000002000000000000000000001000000000000000000000000000000000000000000000080000000000000004000000000000000000000000000000000000",
      "type": "0x2",
      "transactionHash": "0x7c168d9471746d4bbc0d35f96593a0bc0f28be4abbb8b0a495a6cd5a1ce8b24e",
      "transactionIndex": "0x1",
      "blockHash": "0x242e926f1155dbe136362014028726c053fc363f1b94c46f20724d8a8c9bc5a2",
      "blockNumber": "0x199748",
      "gasUsed": "0x2b1ac",
      "effectiveGasPrice": "0x5f5e101",
      "from": "0x388e360edaac94372df1a2663ffe52671bbd8b58",
      "to": "0x0a6d20adb8f8c78fdde4d55d73bcd6981e929fa0",
      "contractAddress": null
    }
  ],
  "libraries": [],
  "pending": [],
  "returns": {},
  "timestamp": 1743096500,
  "chain": 999,
  "commit": "5f93138"
}