{
  "transactions": [
    {
      "hash": "0x01e3e7d33ef6093a1eb810362d72893d622652f7b150e2b7a66afcd7a52dcb8d",
      "transactionType": "CALL",
      "contractName": null,
      "contractAddress": "0xffaa4a3d97fe9107cef8a3f48c069f577ff76cc1",
      "function": "approve(address,uint256)",
      "arguments": [
        "0x5365b6EF09253C7aBc0A9286eC578A9f4B413B7D",
        "1000000000000000000"
      ],
      "transaction": {
        "from": "0x388e360edaac94372df1a2663ffe52671bbd8b58",
        "to": "0xffaa4a3d97fe9107cef8a3f48c069f577ff76cc1",
        "gas": "0x11408",
        "value": "0x0",
        "input": "0x095ea7b30000000000000000000000005365b6ef09253c7abc0a9286ec578a9f4b413b7d0000000000000000000000000000000000000000000000000de0b6b3a7640000",
        "nonce": "0xc7",
        "chainId": "0x3e7"
      },
      "additionalContracts": [],
      "isFixedGasLimit": false
    },
    {
      "hash": "0x86e0aed687287141161d5eb9da5d38590b71bec0b91a1bb1bc0f372d74de7280",
      "transactionType": "CALL",
      "contractName": null,
      "contractAddress": "0x5365b6ef09253c7abc0a9286ec578a9f4b413b7d",
      "function": "swap((bool,bool,uint256,uint256,uint256,address,address,(bytes,bytes,bytes,bytes)))",
      "arguments": [
        "(false, true, 1000000000000000000, 0, 1743603346, 0x388E360eDaaC94372df1a2663FFe52671bbd8B58, 0x5555555555555555555555555555555555555555, (0x, 0x, 0x, 0x))"
      ],
      "transaction": {
        "from": "0x388e360edaac94372df1a2663ffe52671bbd8b58",
        "to": "0x5365b6ef09253c7abc0a9286ec578a9f4b413b7d",
        "gas": "0x6053f",
        "value": "0x0",
        "input": "0x373290090000000000000000000000000000000000000000000000000000000000000020000000000000000000000000000000000000000000000000000000000000000000000000000000000000000000000000000000000000000000000000000000010000000000000000000000000000000000000000000000000de0b6b3a764000000000000000000000000000000000000000000000000000000000000000000000000000000000000000000000000000000000000000000000000000067ed4692000000000000000000000000388e360edaac94372df1a2663ffe52671bbd8b5800000000000000000000000055555555555555555555555555555555555555550000000000000000000000000000000000000000000000000000000000000100000000000000000000000000000000000000000000000000000000000000008000000000000000000000000000000000000000000000000000000000000000a000000000000000000000000000000000000000000000000000000000000000c000000000000000000000000000000000000000000000000000000000000000e00000000000000000000000000000000000000000000000000000000000000000000000000000000000000000000000000000000000000000000000000000000000000000000000000000000000000000000000000000000000000000000000000000000000000000000000000000000000000000000000000000000000000000",
        "nonce": "0xc8",
        "chainId": "0x3e7"
      },
      "additionalContracts": [],
      "isFixedGasLimit": false
    }
  ],
  "receipts": [
    {
      "status": "0x1",
      "cumulativeGasUsed": "0x706e1",
      "logs": [
        {
          "address": "0xffaa4a3d97fe9107cef8a3f48c069f577ff76cc1",
          "topics": [
            "0x8c5be1e5ebec7d5bd14f71427d1e84f3dd0314c0f7b2291e5b200ac8c7c3b925",
            "0x000000000000000000000000388e360edaac94372df1a2663ffe52671bbd8b58",
            "0x0000000000000000000000005365b6ef09253c7abc0a9286ec578a9f4b413b7d"
          ],
          "data": "0x0000000000000000000000000000000000000000000000000de0b6b3a7640000",
          "blockHash": "0xdc2fa85769f43fc048f87b6f96aeae0ea41557ba65dc1020ba163de3a7c34955",
          "blockNumber": "0x1d95d5",
          "blockTimestamp": "0x67ed463c",
          "transactionHash": "0x01e3e7d33ef6093a1eb810362d72893d622652f7b150e2b7a66afcd7a52dcb8d",
          "transactionIndex": "0x6",
          "logIndex": "0x5",
          "removed": false
        }
      ],
      "logsBloom": "0x00000000000000000000000000000000000000000000000000000000000000000000000000000000000000100040000000000000004000000000000000200000000000000000000000000000000000000000000000000000000100000000000200000000000000000000000050000000000000000000000000000000001000000000000000000000000000000000000000000000000000000000000000000040020000000000000000000000000000000000000000000000000000000000000000000000000000000000000000000000000000000000000000000000000000000010000000000000000000000000000000000000000000000000000000000000",
      "type": "0x2",
      "transactionHash": "0x01e3e7d33ef6093a1eb810362d72893d622652f7b150e2b7a66afcd7a52dcb8d",
      "transactionIndex": "0x6",
      "blockHash": "0xdc2fa85769f43fc048f87b6f96aeae0ea41557ba65dc1020ba163de3a7c34955",
      "blockNumber": "0x1d95d5",
      "gasUsed": "0xc7d8",
      "effectiveGasPrice": "0x5f5e101",
      "from": "0x388e360edaac94372df1a2663ffe52671bbd8b58",
      "to": "0xffaa4a3d97fe9107cef8a3f48c069f577ff76cc1",
      "contractAddress": null
    },
    {
      "status": "0x1",
      "cumulativeGasUsed": "0xb62b7",
      "logs": [
        {
          "address": "0xffaa4a3d97fe9107cef8a3f48c069f577ff76cc1",
          "topics": [
            "0xddf252ad1be2c89b69c2b068fc378daa952ba7f163c4a11628f55a4df523b3ef",
            "0x000000000000000000000000388e360edaac94372df1a2663ffe52671bbd8b58",
            "0x0000000000000000000000005365b6ef09253c7abc0a9286ec578a9f4b413b7d"
          ],
          "data": "0x0000000000000000000000000000000000000000000000000de0b6b3a7640000",
          "blockHash": "0xdc2fa85769f43fc048f87b6f96aeae0ea41557ba65dc1020ba163de3a7c34955",
          "blockNumber": "0x1d95d5",
          "blockTimestamp": "0x67ed463c",
          "transactionHash": "0x86e0aed687287141161d5eb9da5d38590b71bec0b91a1bb1bc0f372d74de7280",
          "transactionIndex": "0x7",
          "logIndex": "0x6",
          "removed": false
        },
        {
          "address": "0xffaa4a3d97fe9107cef8a3f48c069f577ff76cc1",
          "topics": [
            "0xddf252ad1be2c89b69c2b068fc378daa952ba7f163c4a11628f55a4df523b3ef",
            "0x0000000000000000000000005365b6ef09253c7abc0a9286ec578a9f4b413b7d",
            "0x00000000000000000000000039694eff3b02248929120c73f90347013aec834d"
          ],
          "data": "0x0000000000000000000000000000000000000000000000000002d4b26cdb5cd0",
          "blockHash": "0xdc2fa85769f43fc048f87b6f96aeae0ea41557ba65dc1020ba163de3a7c34955",
          "blockNumber": "0x1d95d5",
          "blockTimestamp": "0x67ed463c",
          "transactionHash": "0x86e0aed687287141161d5eb9da5d38590b71bec0b91a1bb1bc0f372d74de7280",
          "transactionIndex": "0x7",
          "logIndex": "0x7",
          "removed": false
        },
        {
          "address": "0x5555555555555555555555555555555555555555",
          "topics": [
            "0xddf252ad1be2c89b69c2b068fc378daa952ba7f163c4a11628f55a4df523b3ef",
            "0x0000000000000000000000005365b6ef09253c7abc0a9286ec578a9f4b413b7d",
            "0x000000000000000000000000388e360edaac94372df1a2663ffe52671bbd8b58"
          ],
          "data": "0x0000000000000000000000000000000000000000000000000dd28f37871b2fef",
          "blockHash": "0xdc2fa85769f43fc048f87b6f96aeae0ea41557ba65dc1020ba163de3a7c34955",
          "blockNumber": "0x1d95d5",
          "blockTimestamp": "0x67ed463c",
          "transactionHash": "0x86e0aed687287141161d5eb9da5d38590b71bec0b91a1bb1bc0f372d74de7280",
          "transactionIndex": "0x7",
          "logIndex": "0x8",
          "removed": false
        },
        {
          "address": "0x5365b6ef09253c7abc0a9286ec578a9f4b413b7d",
          "topics": [
            "0x176648f1f11cda284c124490086be42a926ddf0ae887ebe7b1d6b337d8942756",
            "0x000000000000000000000000388e360edaac94372df1a2663ffe52671bbd8b58"
          ],
          "data": "0x00000000000000000000000000000000000000000000000000000000000000010000000000000000000000000000000000000000000000000de0b6b3a7640000000000000000000000000000000000000000000000000000000e277c2048d0110000000000000000000000000000000000000000000000000dd28f37871b2fef",
          "blockHash": "0xdc2fa85769f43fc048f87b6f96aeae0ea41557ba65dc1020ba163de3a7c34955",
          "blockNumber": "0x1d95d5",
          "blockTimestamp": "0x67ed463c",
          "transactionHash": "0x86e0aed687287141161d5eb9da5d38590b71bec0b91a1bb1bc0f372d74de7280",
          "transactionIndex": "0x7",
          "logIndex": "0x9",
          "removed": false
        }
      ],
      "logsBloom": "0x00000000000000000000000001000000000001000000000000000000000000000000000000000000000000100040000000000000004000000000000000000000000000000000000000000008000000000000000000000000000100000000000200000000000000000000000050000000000000000000000008000010001000000000000000000000080000000000000000000000000000000000020000000040000000000000000000000010000000000000000020000000100000000000004000000022000000000000000000000000000000000000000000000000000000000000000000080000000000000000000000000020000000000000000000000000",
      "type": "0x2",
      "transactionHash": "0x86e0aed687287141161d5eb9da5d38590b71bec0b91a1bb1bc0f372d74de7280",
      "transactionIndex": "0x7",
      "blockHash": "0xdc2fa85769f43fc048f87b6f96aeae0ea41557ba65dc1020ba163de3a7c34955",
      "blockNumber": "0x1d95d5",
      "gasUsed": "0x45bd6",
      "effectiveGasPrice": "0x5f5e101",
      "from": "0x388e360edaac94372df1a2663ffe52671bbd8b58",
      "to": "0x5365b6ef09253c7abc0a9286ec578a9f4b413b7d",
      "contractAddress": null
    }
  ],
  "libraries": [],
  "pending": [],
  "returns": {},
  "timestamp": 1743603261,
  "chain": 999,
  "commit": "0f08994"
}