{
  "transactions": [
    {
      "hash": "0x294144a2dc6e9f1c2709f896f23638925bd5f0cbb29dd7857c1e6c405b92574a",
      "transactionType": "CALL",
      "contractName": null,
      "contractAddress": "0xffaa4a3d97fe9107cef8a3f48c069f577ff76cc1",
      "function": "approve(address,uint256)",
      "arguments": [
        "0x7d19Ee0956C96cF40B91Cdd7f058D64D48198C09",
        "1000000000000000000"
      ],
      "transaction": {
        "from": "0x388e360edaac94372df1a2663ffe52671bbd8b58",
        "to": "0xffaa4a3d97fe9107cef8a3f48c069f577ff76cc1",
        "gas": "0x11408",
        "value": "0x0",
        "input": "0x095ea7b30000000000000000000000007d19ee0956c96cf40b91cdd7f058d64d48198c090000000000000000000000000000000000000000000000000de0b6b3a7640000",
        "nonce": "0x15",
        "chainId": "0x3e7"
      },
      "additionalContracts": [],
      "isFixedGasLimit": false
    },
    {
      "hash": "0x41b0379f3522c57a3061eed078597b4666461f8f1d53bd939b03b53292859f6f",
      "transactionType": "CALL",
      "contractName": null,
      "contractAddress": "0x7d19ee0956c96cf40b91cdd7f058d64d48198c09",
      "function": "swap((bool,bool,uint256,uint256,uint256,address,address,(bytes,bytes,bytes,bytes)))",
      "arguments": [
        "(false, true, 1000000000000000000, 0, 1741793668, 0x388E360eDaaC94372df1a2663FFe52671bbd8B58, 0x5555555555555555555555555555555555555555, (0x, 0x, 0x, 0x))"
      ],
      "transaction": {
        "from": "0x388e360edaac94372df1a2663ffe52671bbd8b58",
        "to": "0x7d19ee0956c96cf40b91cdd7f058d64d48198c09",
        "gas": "0x42a10",
        "value": "0x0",
        "input": "0x373290090000000000000000000000000000000000000000000000000000000000000020000000000000000000000000000000000000000000000000000000000000000000000000000000000000000000000000000000000000000000000000000000010000000000000000000000000000000000000000000000000de0b6b3a764000000000000000000000000000000000000000000000000000000000000000000000000000000000000000000000000000000000000000000000000000067d1a984000000000000000000000000388e360edaac94372df1a2663ffe52671bbd8b5800000000000000000000000055555555555555555555555555555555555555550000000000000000000000000000000000000000000000000000000000000100000000000000000000000000000000000000000000000000000000000000008000000000000000000000000000000000000000000000000000000000000000a000000000000000000000000000000000000000000000000000000000000000c000000000000000000000000000000000000000000000000000000000000000e00000000000000000000000000000000000000000000000000000000000000000000000000000000000000000000000000000000000000000000000000000000000000000000000000000000000000000000000000000000000000000000000000000000000000000000000000000000000000000000000000000000000000000",
        "nonce": "0x16",
        "chainId": "0x3e7"
      },
      "additionalContracts": [],
      "isFixedGasLimit": false
    }
  ],
  "receipts": [
    {
      "status": "0x1",
      "cumulativeGasUsed": "0x57dbc",
      "logs": [
        {
          "address": "0xffaa4a3d97fe9107cef8a3f48c069f577ff76cc1",
          "topics": [
            "0x8c5be1e5ebec7d5bd14f71427d1e84f3dd0314c0f7b2291e5b200ac8c7c3b925",
            "0x000000000000000000000000388e360edaac94372df1a2663ffe52671bbd8b58",
            "0x0000000000000000000000007d19ee0956c96cf40b91cdd7f058d64d48198c09"
          ],
          "data": "0x0000000000000000000000000000000000000000000000000de0b6b3a7640000",
          "blockHash": "0x389d13a128f632104c59b75001d1591c5240f2062a42ad4657c2b528b9071b90",
          "blockNumber": "0xf5272",
          "blockTimestamp": "0x67d1a91a",
          "transactionHash": "0x294144a2dc6e9f1c2709f896f23638925bd5f0cbb29dd7857c1e6c405b92574a",
          "transactionIndex": "0x1",
          "logIndex": "0x7",
          "removed": false
        }
      ],
      "logsBloom": "0x00000000000000080000000000000000000000000000000000000080000000000000000000000000000000100040000000000000004000000000000000200000000000000000000000000000000000000000000000000000000000000000000200000000000000000000000000000000000000000000000000000000001000000000000000000000000000000000000000000000000000000000000000000040020000000000000000000000000000000000000000000000000000000000000000000000000040000000000000000000000000000000000000000000000000000010000000000000000000000000000000000000000000000000000000000000",
      "type": "0x2",
      "transactionHash": "0x294144a2dc6e9f1c2709f896f23638925bd5f0cbb29dd7857c1e6c405b92574a",
      "transactionIndex": "0x1",
      "blockHash": "0x389d13a128f632104c59b75001d1591c5240f2062a42ad4657c2b528b9071b90",
      "blockNumber": "0xf5272",
      "gasUsed": "0xc7d8",
      "effectiveGasPrice": "0x5f5e101",
      "from": "0x388e360edaac94372df1a2663ffe52671bbd8b58",
      "to": "0xffaa4a3d97fe9107cef8a3f48c069f577ff76cc1",
      "contractAddress": null
    },
    {
      "status": "0x1",
      "cumulativeGasUsed": "0x8818c",
      "logs": [
        {
          "address": "0xffaa4a3d97fe9107cef8a3f48c069f577ff76cc1",
          "topics": [
            "0xddf252ad1be2c89b69c2b068fc378daa952ba7f163c4a11628f55a4df523b3ef",
            "0x000000000000000000000000388e360edaac94372df1a2663ffe52671bbd8b58",
            "0x0000000000000000000000007d19ee0956c96cf40b91cdd7f058d64d48198c09"
          ],
          "data": "0x0000000000000000000000000000000000000000000000000de0b6b3a7640000",
          "blockHash": "0x389d13a128f632104c59b75001d1591c5240f2062a42ad4657c2b528b9071b90",
          "blockNumber": "0xf5272",
          "blockTimestamp": "0x67d1a91a",
          "transactionHash": "0x41b0379f3522c57a3061eed078597b4666461f8f1d53bd939b03b53292859f6f",
          "transactionIndex": "0x2",
          "logIndex": "0x8",
          "removed": false
        },
        {
          "address": "0x5555555555555555555555555555555555555555",
          "topics": [
            "0xddf252ad1be2c89b69c2b068fc378daa952ba7f163c4a11628f55a4df523b3ef",
            "0x0000000000000000000000007d19ee0956c96cf40b91cdd7f058d64d48198c09",
            "0x000000000000000000000000388e360edaac94372df1a2663ffe52671bbd8b58"
          ],
          "data": "0x0000000000000000000000000000000000000000000000000de000d6d625043f",
          "blockHash": "0x389d13a128f632104c59b75001d1591c5240f2062a42ad4657c2b528b9071b90",
          "blockNumber": "0xf5272",
          "blockTimestamp": "0x67d1a91a",
          "transactionHash": "0x41b0379f3522c57a3061eed078597b4666461f8f1d53bd939b03b53292859f6f",
          "transactionIndex": "0x2",
          "logIndex": "0x9",
          "removed": false
        },
        {
          "address": "0x7d19ee0956c96cf40b91cdd7f058d64d48198c09",
          "topics": [
            "0x176648f1f11cda284c124490086be42a926ddf0ae887ebe7b1d6b337d8942756",
            "0x000000000000000000000000388e360edaac94372df1a2663ffe52671bbd8b58"
          ],
          "data": "0x00000000000000000000000000000000000000000000000000000000000000010000000000000000000000000000000000000000000000000de0b6b3a76400000000000000000000000000000000000000000000000000000000b5dcd13efbc10000000000000000000000000000000000000000000000000de000d6d625043f",
          "blockHash": "0x389d13a128f632104c59b75001d1591c5240f2062a42ad4657c2b528b9071b90",
          "blockNumber": "0xf5272",
          "blockTimestamp": "0x67d1a91a",
          "transactionHash": "0x41b0379f3522c57a3061eed078597b4666461f8f1d53bd939b03b53292859f6f",
          "transactionIndex": "0x2",
          "logIndex": "0xa",
          "removed": false
        }
      ],
      "logsBloom": "0x00000000000000080000000000000000000001000000000000000080000000000000000000000000000000100040000000000000004000000000000000000000000000000000000002000008000000000000000000000000000000000000000200000000000000000000000000000000000000000000000008000010001000000000000000000000080000000000000000000000000000000000020000000040000000000000000000000000000000000000000000000000100000000000000000000002000040000000000000000000000000000000000000000000000000000000000000080000000000000000400000000000000200000000000000000000",
      "type": "0x2",
      "transactionHash": "0x41b0379f3522c57a3061eed078597b4666461f8f1d53bd939b03b53292859f6f",
      "transactionIndex": "0x2",
      "blockHash": "0x389d13a128f632104c59b75001d1591c5240f2062a42ad4657c2b528b9071b90",
      "blockNumber": "0xf5272",
      "gasUsed": "0x303d0",
      "effectiveGasPrice": "0x5f5e101",
      "from": "0x388e360edaac94372df1a2663ffe52671bbd8b58",
      "to": "0x7d19ee0956c96cf40b91cdd7f058d64d48198c09",
      "contractAddress": null
    }
  ],
  "libraries": [],
  "pending": [],
  "returns": {},
  "timestamp": 1741793563,
  "chain": 999,
  "commit": "4a7117b"
}