{
  "transactions": [
    {
      "hash": "0xd93e47a445c8feecc0f024600a920cadf4bbe87522597537e467ef08ef5c0074",
      "transactionType": "CALL",
      "contractName": null,
      "contractAddress": "0xffaa4a3d97fe9107cef8a3f48c069f577ff76cc1",
      "function": "approve(address,uint256)",
      "arguments": [
        "0xEF340bA1e70510739f0E82E0c9511497182FBe86",
        "200000000000000000"
      ],
      "transaction": {
        "from": "0x388e360edaac94372df1a2663ffe52671bbd8b58",
        "to": "0xffaa4a3d97fe9107cef8a3f48c069f577ff76cc1",
        "gas": "0x11408",
        "value": "0x0",
        "input": "0x095ea7b3000000000000000000000000ef340ba1e70510739f0e82e0c9511497182fbe8600000000000000000000000000000000000000000000000002c68af0bb140000",
        "nonce": "0xa8",
        "chainId": "0x3e7"
      },
      "additionalContracts": [],
      "isFixedGasLimit": false
    },
    {
      "hash": "0xa650dc01cdf4e57fd9d01cd2c54d36570e8fa34b173696de3ec3457c2364bb49",
      "transactionType": "CALL",
      "contractName": null,
      "contractAddress": "0xef340ba1e70510739f0e82e0c9511497182fbe86",
      "function": "swap((bool,bool,uint256,uint256,uint256,address,address,(bytes,bytes,bytes,bytes)))",
      "arguments": [
        "(false, true, 200000000000000000, 0, 1743445316, 0x388E360eDaaC94372df1a2663FFe52671bbd8B58, 0x5555555555555555555555555555555555555555, (0x, 0x, 0x, 0x))"
      ],
      "transaction": {
        "from": "0x388e360edaac94372df1a2663ffe52671bbd8b58",
        "to": "0xef340ba1e70510739f0e82e0c9511497182fbe86",
        "gas": "0x55dab",
        "value": "0x0",
        "input": "0x3732900900000000000000000000000000000000000000000000000000000000000000200000000000000000000000000000000000000000000000000000000000000000000000000000000000000000000000000000000000000000000000000000000100000000000000000000000000000000000000000000000002c68af0bb14000000000000000000000000000000000000000000000000000000000000000000000000000000000000000000000000000000000000000000000000000067eadd44000000000000000000000000388e360edaac94372df1a2663ffe52671bbd8b5800000000000000000000000055555555555555555555555555555555555555550000000000000000000000000000000000000000000000000000000000000100000000000000000000000000000000000000000000000000000000000000008000000000000000000000000000000000000000000000000000000000000000a000000000000000000000000000000000000000000000000000000000000000c000000000000000000000000000000000000000000000000000000000000000e00000000000000000000000000000000000000000000000000000000000000000000000000000000000000000000000000000000000000000000000000000000000000000000000000000000000000000000000000000000000000000000000000000000000000000000000000000000000000000000000000000000000000000",
        "nonce": "0xa9",
        "chainId": "0x3e7"
      },
      "additionalContracts": [],
      "isFixedGasLimit": false
    }
  ],
  "receipts": [
    {
      "status": "0x1",
      "cumulativeGasUsed": "0x3db18",
      "logs": [
        {
          "address": "0xffaa4a3d97fe9107cef8a3f48c069f577ff76cc1",
          "topics": [
            "0x8c5be1e5ebec7d5bd14f71427d1e84f3dd0314c0f7b2291e5b200ac8c7c3b925",
            "0x000000000000000000000000388e360edaac94372df1a2663ffe52671bbd8b58",
            "0x000000000000000000000000ef340ba1e70510739f0e82e0c9511497182fbe86"
          ],
          "data": "0x00000000000000000000000000000000000000000000000002c68af0bb140000",
          "blockHash": "0x67876a544cc4787e6ecded3da6c823fff53f6985ffc0b13537be17235f3031a7",
          "blockNumber": "0x1c56f4",
          "blockTimestamp": "0x67eadd0c",
          "transactionHash": "0xd93e47a445c8feecc0f024600a920cadf4bbe87522597537e467ef08ef5c0074",
          "transactionIndex": "0x1",
          "logIndex": "0xd",
          "removed": false
        }
      ],
      "logsBloom": "0x00000000000000000000000000000000000000000000000000001000000000000000000000000000000000100040000000000000004000000000000000200000000000000000000000000000000000000000000000000000000000000000000200000000000000000000000000000000000000000000000000000000001000000000000000000000000000000000000000000000000000000000000000000040020000000000000000000000000000000000000000000000000000000000000000000000000000000000000000000000000000000000000000000000000010000010000000800000000000000000000000000000000000000000000000000000",
      "type": "0x2",
      "transactionHash": "0xd93e47a445c8feecc0f024600a920cadf4bbe87522597537e467ef08ef5c0074",
      "transactionIndex": "0x1",
      "blockHash": "0x67876a544cc4787e6ecded3da6c823fff53f6985ffc0b13537be17235f3031a7",
      "blockNumber": "0x1c56f4",
      "gasUsed": "0xc7d8",
      "effectiveGasPrice": "0x7735940",
      "from": "0x388e360edaac94372df1a2663ffe52671bbd8b58",
      "to": "0xffaa4a3d97fe9107cef8a3f48c069f577ff76cc1",
      "contractAddress": null
    },
    {
      "status": "0x1",
      "cumulativeGasUsed": "0x7865b",
      "logs": [
        {
          "address": "0xffaa4a3d97fe9107cef8a3f48c069f577ff76cc1",
          "topics": [
            "0xddf252ad1be2c89b69c2b068fc378daa952ba7f163c4a11628f55a4df523b3ef",
            "0x000000000000000000000000388e360edaac94372df1a2663ffe52671bbd8b58",
            "0x000000000000000000000000ef340ba1e70510739f0e82e0c9511497182fbe86"
          ],
          "data": "0x00000000000000000000000000000000000000000000000002c68af0bb140000",
          "blockHash": "0x67876a544cc4787e6ecded3da6c823fff53f6985ffc0b13537be17235f3031a7",
          "blockNumber": "0x1c56f4",
          "blockTimestamp": "0x67eadd0c",
          "transactionHash": "0xa650dc01cdf4e57fd9d01cd2c54d36570e8fa34b173696de3ec3457c2364bb49",
          "transactionIndex": "0x2",
          "logIndex": "0xe",
          "removed": false
        },
        {
          "address": "0xffaa4a3d97fe9107cef8a3f48c069f577ff76cc1",
          "topics": [
            "0xddf252ad1be2c89b69c2b068fc378daa952ba7f163c4a11628f55a4df523b3ef",
            "0x000000000000000000000000ef340ba1e70510739f0e82e0c9511497182fbe86",
            "0x000000000000000000000000e20725bea0af2b125fe21882385275cdbfa94298"
          ],
          "data": "0x000000000000000000000000000000000000000000000000000090f07c2bdf5d",
          "blockHash": "0x67876a544cc4787e6ecded3da6c823fff53f6985ffc0b13537be17235f3031a7",
          "blockNumber": "0x1c56f4",
          "blockTimestamp": "0x67eadd0c",
          "transactionHash": "0xa650dc01cdf4e57fd9d01cd2c54d36570e8fa34b173696de3ec3457c2364bb49",
          "transactionIndex": "0x2",
          "logIndex": "0xf",
          "removed": false
        },
        {
          "address": "0x5555555555555555555555555555555555555555",
          "topics": [
            "0xddf252ad1be2c89b69c2b068fc378daa952ba7f163c4a11628f55a4df523b3ef",
            "0x000000000000000000000000ef340ba1e70510739f0e82e0c9511497182fbe86",
            "0x000000000000000000000000388e360edaac94372df1a2663ffe52671bbd8b58"
          ],
          "data": "0x00000000000000000000000000000000000000000000000002c3b63e4e38a32f",
          "blockHash": "0x67876a544cc4787e6ecded3da6c823fff53f6985ffc0b13537be17235f3031a7",
          "blockNumber": "0x1c56f4",
          "blockTimestamp": "0x67eadd0c",
          "transactionHash": "0xa650dc01cdf4e57fd9d01cd2c54d36570e8fa34b173696de3ec3457c2364bb49",
          "transactionIndex": "0x2",
          "logIndex": "0x10",
          "removed": false
        },
        {
          "address": "0xef340ba1e70510739f0e82e0c9511497182fbe86",
          "topics": [
            "0x176648f1f11cda284c124490086be42a926ddf0ae887ebe7b1d6b337d8942756",
            "0x000000000000000000000000388e360edaac94372df1a2663ffe52671bbd8b58"
          ],
          "data": "0x000000000000000000000000000000000000000000000000000000000000000100000000000000000000000000000000000000000000000002c68af0bb1400000000000000000000000000000000000000000000000000000002d4b26cdb5cd100000000000000000000000000000000000000000000000002c3b63e4e38a32f",
          "blockHash": "0x67876a544cc4787e6ecded3da6c823fff53f6985ffc0b13537be17235f3031a7",
          "blockNumber": "0x1c56f4",
          "blockTimestamp": "0x67eadd0c",
          "transactionHash": "0xa650dc01cdf4e57fd9d01cd2c54d36570e8fa34b173696de3ec3457c2364bb49",
          "transactionIndex": "0x2",
          "logIndex": "0x11",
          "removed": false
        }
      ],
      "logsBloom": "0x00000000000000000000000000000000000001000000000000001000000000000000000000000000000000100040000000000000004000000000000000000000000000000000000000000008000000000000000000000000000000000000000200000000008000010000000000000000000000000000000008000010001000000000000000000000080000000000000000000000000000000000020040004040000000000000000000000000000000000000000000000000100000000801000000000002000000000000000000000000000000000000000000000000000010000000000000880000000000000000000000000000000000000000000000000000",
      "type": "0x2",
      "transactionHash": "0xa650dc01cdf4e57fd9d01cd2c54d36570e8fa34b173696de3ec3457c2364bb49",
      "transactionIndex": "0x2",
      "blockHash": "0x67876a544cc4787e6ecded3da6c823fff53f6985ffc0b13537be17235f3031a7",
      "blockNumber": "0x1c56f4",
      "gasUsed": "0x3ab43",
      "effectiveGasPrice": "0x7735940",
      "from": "0x388e360edaac94372df1a2663ffe52671bbd8b58",
      "to": "0xef340ba1e70510739f0e82e0c9511497182fbe86",
      "contractAddress": null
    }
  ],
  "libraries": [],
  "pending": [],
  "returns": {},
  "timestamp": 1743445262,
  "chain": 999,
  "commit": "d975cb6"
}